S016000045787465726E616C4465766963652E737265637B
S11300000C94DA000C94F7000C94F7000C94F700AD
S11300100C94F7000C94F7000C94F7000C94F70080
S11300200C94F7000C9488020C94F7000C94F700DD
S11300300C94F7000C9471020C94F7000C94F700E4
S11300400C945A020C94F7000C94FE020C94F700E2
S11300500C94F7000C94DE020C94F7000C94F70057
S11300600C94F7000C94F700870AA609740AA609F1
S1130070740AA609560AA609480AA6093A0AA6094C
S11300802C0AA6091F0AA6091F0AA609020AA6091C
S1130090020AA6092C0AA6092C0AA6092C0AA609F2
S11300A02C0AA609E809A6092C0AA6092C0AA609FD
S11300B02C0A6E616E00696E660000407A10F35A75
S11300C000A0724E18090010A5D4E80000E8764894
S11300D0170000E40B54020000CA9A3B000000E140
S11300E0F505000080969800000040420F000000D3
S11300F0A08601000000102700000000E8030000B3
S113010000006400000000000A000000000001007C
S1130110000000002C76D888DC674F0823DFC1DF9D
S1130120AE59E1B1B796E5E3E453C63AE6519976A0
S113013096E8E6C28426EB898C9B62ED407C6FFCDA
S1130140EFBC9C9F40F2BAA56FA5F490055A2AF71C
S11301505C936B6CF9676DC11BFCE0E40D47FEF525
S113016020E6B500D0ED902E03009435770500808D
S1130170841E080000204E0A000000C80C333333EC
S1130180330F986E12831141EF8D2114893BE6558C
S113019016CFFEE6DB18D1844B381BF77C1D901D6F
S11301A0A4BBE424203284725E228100C9F124ECD1
S11301B0A1E53D2711241FBECFEFD8E0DEBFCDBFA0
S11301C011E0A0E0B1E0E2E3F2E302C005900D9299
S11301D0AC3AB107D9F724E0ACEAB1E001C01D9212
S11301E0AA38B207E1F70E94140B0C9417190C9467
S11301F00000FC01808191819C0197FD20C1409108
S1130200680250916902421753070CF484C080912C
S11302100001909101018436910509F47BC080911D
S1130220BC019091BD01892B21F01092BD01109267
S1130230BC018091BA019091BB01892B21F01092ED
S1130240BB011092BA018091B0008F7D8093B00001
S113025084E690E090930101809300011092C10123
S11302601092C00180916002909161029093BF014D
S11302708093BE010895209164023091650228178D
S113028039074CF497FF2CC0809100019091010133
S11302908436910529F187E88093B40087E890E0DB
S11302A0909301018093000180914002909141025A
S11302B0892B49F08091BC019091BD0101969093E6
S11302C0BD018093BC01809162029091630290937E
S11302D0C1018093C0018091B00080628093B0001E
S11302E02091BC013091BD01809140029091410266
S11302F08217930778F485E090E090933602809318
S1130300350290932702809326021092BD01109229
S1130310BC012A9A08954091C0015091C101411530
S11303205105B1F0415051095093C1014093C001AE
S1130330452B81F78091B0008F7D8093B000809130
S11303406002909161029093BF018093BE01089571
S113035040912602509127024150510943305105E2
S1130360C8F240914202509143024115510509F4EB
S113037073C06091660270916702861797070CF448
S113038063C060910001709101016436710509F444
S11303907DC06091B8017091B901621B730B6F3F0E
S11303A0FFEF7F0724F0623071050CF478C01092DF
S11303B0BB011092BA013093B9012093B801209186
S11303C0620230916302232B09F48ACF20916602E2
S11303D0309167028217930764F4181619060CF01B
S11303E04ACF20910001309101012436310509F4EE
S11303F042CF8AEF8093B4008AEF90E0909301019A
S1130400809300018091400290914102892B49F030
S11304108091BC019091BD0101969093BD018093A0
S1130420BC0180916202909163029093C101809318
S1130430C0018091B00080628093B00008952227AB
S11304403327281B390BDBCE60916402709165025F
S1130450681779070CF095CF2091BA013091BB0150
S11304604217530708F0ABCF85E090E09093360233
S11304708093350284E090E09093270280932602D3
S11304801092BB011092BA012A9A08953093B901CF
S11304902093B8012091BA013091BB01E1CF2091A2
S11304A0BA013091BB012F5F3F4F3093BB012093C2
S11304B0BA01D6CF1F920F920FB60F9211248F93C9
S11304C09F9380913E0290913F02019690933F0248
S11304D080933E029F918F910F900FBE0F901F90BB
S11304E018951F920F920FB60F9211248F939F931A
S11304F080913C0290913D02019690933D0280933D
S11305003C029F918F910F900FBE0F901F901895F2
S11305101F920F920FB60F9211242F933F934F9374
S11305205F936F937F938F939F93AF93BF93EF9357
S113053040913A0250913B024F5F5F4F50933B0210
S113054040933A02E1E0E09337029A01AFEAB7E45C
S11305500E94C316281B390B36952795820F931FCB
S1130560929582958F7089279F70892769E1689F8A
S11305709001699F300D11244217530711F4E09341
S113058038024D37510538F081E0809339021092DA
S11305903B0210923A0283E88093B200EF91BF913C
S11305A0AF919F918F917F916F915F914F913F9107
S11305B02F910F900FBE0F901F9018951F920F92BE
S11305C00FB60F9211248F939F93EF93FF93EAE753
S11305D0F0E0808180838091780090917900E1E25D
S11305E0F2E09183808381E08283FF91EF919F9178
S11305F08F910F900FBE0F901F9018951F920F921E
S11306000FB60F9211242F933F934F938F939F9381
S1130610EF93FF9380911F02882381F08091C6009D
S11306208432A1F1FF91EF919F918F914F913F916E
S11306302F910F900FBE0F901F90189520911A02C2
S113064030911B02C901019690931B0280931A02F8
S11306504091C600F901EE5EFD4F4083893091055B
S113066080F4FC01EE5EFD4F82918432D9F68091D4
S1130670C1008F778093C100108281E080931E02B5
S1130680D1CF10921B0210921A02CCCF81E080933A
S1130690200210921D0210921C02C4CFCF92DF924E
S11306A0EF92FF920F931F93CF93DF93CDB7DEB7F3
S11306B060970FB6F894DEBF0FBECDBFCE01019692
S11306C07C0180E1F70111928A95E9F78BE591E0CD
S11306D00E947F10F8940AE211E088E5C82E81E0B8
S11306E0D82EF801819191918F010E94E9189F936E
S11306F08F93DF92CF92FF92EF920E946918C70105
S11307000E947F100F900F900F900F900F900F90FA
S1130710F1E000351F0729F7789460960FB6F89436
S1130720DEBF0FBECDBFDF91CF911F910F91FF9020
S1130730EF90DF90CF900895CF92DF92EF92FF92E7
S11307400F931F93CF93DF93CDB7DEB760970FB6A8
S1130750F894DEBF0FBECDBF8E010F5F1F4F80E147
S1130760F80111928A95E9F780916B028F93809139
S11307706A028F9386E591E09F938F931F930F9363
S11307800E946918C8010E947F10809169028F93AA
S1130790809168028F9388E5E82E81E0F82EFF921D
S11307A0EF921F930F930E946918C8010E947F1053
S11307B0809167028F93809166028F93FF92EF92EC
S11307C01F930F930E946918C8010E947F108091A3
S11307D065028F93809164028F93FF92EF921F932F
S11307E00F930E946918C8010E947F1080916302D0
S11307F08F93809162028F93FF92EF921F930F93D6
S11308000E946918C8010E947F10809161028F9331
S1130810809160028F93FF92EF921F930F930E9437
S113082069180FB6F894DEBF0FBECDBFC8010E9491
S11308307F1080915F028F9380915E028F93FF926D
S1130840EF921F930F930E946918C8010E947F10B2
S113085080915D028F9380915C028F9380915B0203
S11308608F9380915A028F939EE5C92E91E0D92EE1
S1130870DF92CF921F930F930E946918C8010E94C0
S11308807F10809159028F93809158028F938091A9
S113089057028F93809156028F93DF92CF921F93CA
S11308A00F930E946918C8010E947F10809155021D
S11308B08F93809154028F93FF92EF921F930F9323
S11308C00E946918C8010E947F10809153028F937F
S11308D0809152028F93FF92EF921F930F930E9485
S11308E069180FB6F894DEBF0FBECDBFC8010E94D1
S11308F07F10809151028F93809150028F93FF92C9
S1130900EF921F930F930E946918C8010E947F10F1
S113091080914F028F9380914E028F93FF92EF92BA
S11309201F930F930E946918C8010E947F10809141
S11309304D028F9380914C028F9380914B028F9341
S113094080914A028F93DF92CF921F930F930E945C
S11309506918C8010E947F10809149028F93809189
S113096048028F93FF92EF921F930F930E9469188E
S1130970C8010E947F10809147028F9380914602A4
S11309808F93FF92EF921F930F930E9469180FB6F3
S1130990F894DEBF0FBECDBFC8010E947F108091C6
S11309A045028F93809144028F93FF92EF921F939D
S11309B00F930E946918C8010E947F10809143021E
S11309C08F93809142028F93FF92EF921F930F9324
S11309D00E946918C8010E947F10809141028F9380
S11309E0809140028F93FF92EF921F930F930E9486
S11309F06918C8010E947F100FB6F894DEBF0FBEBD
S1130A00CDBF60960FB6F894DEBF0FBECDBFDF91A9
S1130A10CF911F910F91FF90EF90DF90CF900895A9
S1130A200F931F93CF93DF93F894C4E0D1E00AE2CD
S1130A3011E069917991F801819191918F010E945E
S1130A40EF18F1E0CA32DF07A1F77894DF91CF9174
S1130A501F910F910895F89480E090E00E94E918A6
S1130A6090936B0280936A0282E090E00E94E918FE
S1130A70909369028093680284E090E00E94E918F0
S1130A80909367028093660286E090E00E94E918E2
S1130A90909365028093640288E090E00E94E918D4
S1130AA090936302809362028AE090E00E94E918C6
S1130AB090936102809360028CE090E00E94E918B8
S1130AC090935F0280935E028EE090E00E94E918AA
S1130AD0BC0180E090E00E94B71120E030E04AE7DA
S1130AE054E40E940F119B01AC0160E070E080E8C7
S1130AF09FE30E94A21060935A0270935B0280935A
S1130B005C0290935D0280E190E00E94E918BC01D0
S1130B1080E090E00E94B71120E030E04AE754E41E
S1130B200E940F119B01AC0160E070E080E89FE33C
S1130B300E94A21060935602709357028093580249
S1130B409093590282E190E00E94E9189093550233
S1130B508093540284E190E00E94E9189093530238
S1130B608093520286E190E00E94E918909351022A
S1130B708093500288E190E00E94E91890934F021C
S1130B8080934E028AE190E00E94E918BC0180E063
S1130B9090E00E94B71120E030E04AE754E40E945C
S1130BA00F1160934A0270934B0280934C0290930E
S1130BB04D028CE190E00E94E918909349028093E1
S1130BC048028EE190E00E94E918909347028093D6
S1130BD0460280E290E00E94E918909345028093D7
S1130BE0440282E290E00E94E918909343028093C9
S1130BF0420284E290E00E94E918909341028093BB
S1130C0040027894089566E671E082E192E00E94E1
S1130C101918892B99F16DE671E082E192E00E9446
S1130C201918892B39F16FE671E082E192E00E9494
S1130C301918892B71F164E771E082E192E00E9456
S1130C401918892B19F188E791E00E947F101092FE
S1130C501B0210921A0288E0E2E1F2E0DF011D9229
S1130C608A95E9F710921E028091C10080688093F2
S1130C70C100089581E080931F02E9CF8BE691E0E3
S1130C800E947F1081E080931F02E1CF0E944E03F7
S1130C90DECF0E949C03DBCFAF92BF92CF92DF9254
S1130CA0EF92FF920F931F93CF93DF935B016A013F
S1130CB07901DC0111962C9111972F938C918F93CC
S1130CC084E891E09F938F93C2E0D2E0DF93CF93C7
S1130CD00E946918BE0182EC91E00E940E18D501B1
S1130CE011968C9111978F938C918F938AE891E050
S1130CF09F938F93DF93CF930E946918BE0182EC78
S1130D0091E00E940E18D60113968C9113978F933D
S1130D1012968C9112978F9311968C9111978F93B1
S1130D208C918F938FE891E09F938F93DF93CF9370
S1130D300E946918BE0182EC91E00E940E18D7014E
S1130D4013968C9113978F9312968C9112978F937D
S1130D5011968C9111978F938C918F9386E991E0E2
S1130D609F938F93DF93CF930E946918BE0182EC07
S1130D7091E00E940E18D80113968C9113978F93CB
S1130D8012968C9112978F9311968C9111978F9341
S1130D908C918F938FE991E09F938F93DF93CF93FF
S1130DA00E9469188DB79EB784960FB6F8949EBFBB
S1130DB00FBE8DBFBE0182EC91E00E940E1882EC42
S1130DC091E00E948E101F928F9386EA91E09F9388
S1130DD08F93DF93CF930E946918BE0182EC91E058
S1130DE00E940E1882EC91E00E947F1080E4E2ECF5
S1130DF0F1E0DF011D928A95E9F70F900F900F90B3
S1130E000F900F900F90DF91CF911F910F91FF9052
S1130E10EF90DF90CF90BF90AF90089586E084B9B3
S1130E2089E385B98FE387B980EC88B98CE08AB906
S1130E3083EF8BB90E942B0561E080E090E00E9473
S1130E40BE0E61E080E090E00E94560F81E00E94B7
S1130E50DA0D82E090E00E94611081E090E00E944F
S1130E60611082E090E00E94F20D7894A89599E2D6
S1130E7088E10FB6F894A895809360000FBE909314
S1130E8060000895FC014081518157FD95C0509345
S1130E90B7014093B601483E83E05807BCF089E0AF
S1130EA090E09093B5018093B4019093B301809343
S1130EB0B201459B31C08091B201806D88B95A9BC3
S1130EC076C08081918197FF5A9808959A0145369A
S1130ED051050CF048C0ADECBCEC0E94C3169695CD
S1130EE0879596958795969587959093B501809368
S1130EF0B4019C01220F331F880F991F880F991F7B
S1130F00880F991F820F931F481B590B5093B301ED
S1130F104093B2014599CFCF8091B401806E88B9D6
S1130F208091020190910301079771F2E0913302DD
S1130F30F0913402EE0FFF1FE65DFE4F8081918138
S1130F409C012F7E232B19F00E9709F0BDCF5A99DF
S1130F5037C08091B6019091B7018436910508F0AD
S1130F60B4CF5A9A08953695279536952795ABE7C9
S1130F70B4E10E94C316969587959093B50180932A
S1130F80B4019A01ADECBCEC0E94C316AC015695B9
S1130F90479556954795569547959A010E94C316CD
S1130FA0969587959695879596958795A2CF8081F6
S1130FB0918197FDD6CF089551954195510967CFF9
S1130FC08091B6019091B7018436910508F47DCFE4
S1130FD05A987BCF98B188B190718072892B41F473
S1130FE080912602806E88B95A9B05C05A9808954C
S1130FF088B1807C88B908954E9B14C08091B0015B
S11310009091B1010197C9F04F9920C08091AE0130
S11310109091AF0101969093AF018093AE01019737
S1131020D9F008958091B0019091B1010196909307
S1131030B1018093B001019739F781E080932902CF
S11310401092B1011092B0014F9BE0CF8091AE019C
S11310509091AF01019729F781E0809328021092C3
S1131060AF011092AE0108958091020190910301A5
S1131070209129028630910531F02223C1F010928B
S11310802E0210922D02222389F02091280222237D
S113109069F08630910509F440C0079769F081E052
S11310A080932B0210922902109228020895309105
S11310B028023111E4CF0895E0913302F091340213
S11310C0EE0FFF1FE65DFE4F808191818C35910507
S11310D009F43DC083369105A1F18A359105D1F11A
S11310E083E090E090930301809302019093360291
S11310F080933502F894E0913302F0913402EE0FBC
S1131100FF1FE65DFE4F808191810E94E918909354
S11311106D0280936C027894C5CF8091B0008F7D6E
S11311208093B00087E090E09093030180930201E4
S1131130909336028093350210923202109231025B
S1131140B1CF0E94100581E080932502ABCF0E94AD
S11311509C03A8CF0E944E03A5CF20914402309156
S113116045022115310581F1DC014D915C914A3034
S1131170510520F54091AC015091AD014F5F5F4F97
S11311805093AD014093AC01E1E0F0E0F09327020D
S1131190E0932602DB01ED91FC913A9778F1241754
S11311A0350708F52A9A85E090E0909336028093FB
S11311B035021092AD011092AC010895FB014081FB
S11311C051814A30510580F08091AC019091AD017C
S11311D0892B49F01092AD011092AC0110922702B4
S11311E010922602089508954091AC015091AD01EA
S11311F04F5F5F4F5093AD014093AC01E2E0F0E0EC
S1131200F0932702E0932602DC018D919C910A97CA
S113121030F6FB01808191810A9708F683E090E023
S11312209093270280932602BACF809124028823C8
S113123009F18091350290913602892BD9F480917D
S11312402902811104C0809128028823E9F184E0F5
S113125090E09093360280933502809148029091F9
S11312604902909332028093310210922902109223
S11312702802089580912902882389F08091B4007E
S11312808A3F41F18AEF8093B4008091B00080627C
S11312908093B00081E080932A0210922902809109
S11312A02802882389F08091B400873871F087E898
S11312B08093B4008091B00080628093B00081E09C
S11312C080932A021092280208958091B00085FD2F
S11312D0F6CFEDCF8091B00085FDDCCFD3CF8091E8
S11312E02902882379F08091330290913402853168
S11312F0910528F40196909334028093330210925E
S11313002902089580912802882369F0809133028C
S113131090913402009729F00197909334028093BE
S1131320330210922802089580912B02811129C062
S1131330E0913302F0913402EE0FFF1FE65DFE4FA1
S11313400190F081E02DE532F105B8F087E090E0FE
S113135090930301809302019093360280933502A7
S1131360109234021092330210926D0210926C02A9
S113137010922902109228020895EC5CFF4F0C94FD
S1131380BD16F89460916C0270916D02E091330285
S1131390F0913402EE0FFF1FE65DFE4F80819181D4
S11313A00E94EF18789410926D0210926C021092C1
S11313B029021092280287E090E090930301809321
S11313C00201909336028093350210922B02089505
S11313D0809129028111BAC080912802882341F2A8
S11313E080916C0290916D02181619060CF0C0CF12
S11313F0019790936D0280936C02109229021092CF
S11314002802089580912902882361F080916C025A
S113141090916D02833691052CF4019690936D02A0
S113142080936C0280912802882309F4A1CF8091D3
S11314306C0290916D0282309105D4F699CF80911F
S11314402902882349F280916C0290916D02873EB3
S113145023E092070CF655C080912902882309F4F1
S1131460BBCF80916C0290916D02833691050CF094
S1131470B3CF47C080912902882309F4ADCF80916E
S11314806C0290916D028C3391050CF0A5CF39C09C
S113149080912902882309F49FCF80916C02909156
S11314A06D02833091050CF097CF2BC080912902F7
S11314B0882359F080916C0290916D0297FF05C0CA
S11314C0019690936D0280936C0280912802882388
S11314D009F44ECF80916C0290916D028C3F2FEFF6
S11314E092070CF445CF84CF80912902882309F414
S11314F073CF80916C0290916D02853091050CF050
S11315006BCF019690936D0280936C0265CF8091AE
S11315102902882361F080916C0290916D02883CCD
S113152091052CF4019690936D0280936C02809146
S11315302802882309F41CCF80916C0290916D02DB
S113154089332FEF92070CF413CF52CF80916C02A2
S113155090916D0218161906A4F6209128022223F0
S113156009F406CF45CF81E00E94B10D81E00E94CD
S1131570C30D109227021092260284E090E090930B
S113158036028093350280914802909149029093EB
S113159032028093310281E0089529988091B0004D
S11315A08F7D8093B0002A9880E00E94B10D80E086
S11315B00E94C30D84E690E09093010180930001A2
S11315C01092C1011092C0011092BF011092BE018D
S11315D01092BD011092BC0161E080E090E00E9495
S11315E0BE0E61E080E090E00E94560F61E080E072
S11315F090E00E94A30E61E080E090E00E94EE0F74
S113160080E090E00E94F20D8091350290913602C4
S1131610059741F010923602109235021092320270
S11316201092310280E00895CF93DF93CDB7DEB7F7
S113163062970FB6F894DEBF0FBECDBF19861A8627
S11316401B861C861D821E821F82188619821A829E
S11316501B821C821A8A198A188A1F861E861D8676
S11316600E940E0710E0C12CD12CE12CF12C222475
S1131670239432E0332E46E0A42EB12C55E0652E9F
S1131680712C64E0862E912C01C0A89580912302D0
S11316908823B1F06091210270912202072E000C80
S11316A0880B990B0E94B91120E030E04AEF5FE308
S11316B00E94451269837A838B839C831092230250
S11316C0809137028823D9F08091350290913602B7
S11316D08430910509F415C28730910509F402C2DA
S11316E08330910509F4F5C1892B39F4449902C07A
S11316F0459B03C088B1807C88B9109237028091E1
S11317003802882349F1809124028111FBC00E9490
S1131710FC070E94340880910201909103018330F8
S1131720910509F4F4C08630910509F4BEC1079708
S113173009F4C8C180912F0290913002892B11F0D5
S11317404F99E8C180912A02882321F04E9B02C060
S11317504F99E8C11092380280913902882309F424
S11317609FC04F99E3C0809102019091030187309B
S1131770910509F4F2C0039709F4E0C080912F02A7
S113178090913002059750F480912502811106C092
S113179080912D0290912E024E9758F110923002B2
S11317A010922F021092340210923302B09203016D
S11317B0A09202011092250280912402882309F448
S11317C083C09092360280923502809148029091B3
S11317D049029093320280933102809126029091C3
S11317E02702892B21F070923602609235020E9402
S11317F02B0518995DC080912402882309F434C113
S113180018995DC085B1832585B9C114D10409F443
S1131810BAC0E114F10409F413C116BC1092850096
S11318201092840010923F0210923E0210923D02E8
S113183010923C02C114D10419F031E0C31AD1084A
S1131840E114F10419F081E0E81AF1088091310201
S113185090913202009759F001979093320280934D
S11318603102892B21F410923602109235028091B4
S11318701F0281112EC080911C0290911D020597B8
S113188030F010921F0210921D0210921C028091DF
S1131890350290913602059709F441C1109239023C
S11318A080911E02882309F4F0CE0E940306EDCE37
S11318B0189B5DC080912402882309F4BBCF0E9449
S11318C0CD0A8093240255C010923602109235023C
S11318D084CF80911C0290911D02019690931D0269
S11318E080931C0220912002222349F22091240299
S11318F0222309F4D2C0112309F4CFC010E01092BE
S11319002002BDCF81E090E00E94F20D00CF209133
S11319102C02222309F4BCC0109236021092350224
S1131920222520932C020E94940904CF8091020165
S1131930909103018730910509F01DCF80912F020A
S11319409091300220912D0230912E022F5F3F4F53
S113195030932E0220932D0215CF80912F02909167
S1131960300201969093300280932F02EBCF809146
S11319702402882309F45ECF85B1832585B9C11477
S1131980D10409F046CF86B550903E02412C920115
S1131990280F311DC90160915402709155020E94B3
S11319A08A1680E090E00E94B71120915A0230918B
S11319B05B0240915C0250915D020E9445120E94BC
S11319C08811DC01CB0160E00E94EE0F9A8B898BB9
S11319D0409184005091850020913C0230913D0259
S11319E0AFEFBFEF0E94C316640F751F811D911DD9
S11319F0209152023091530240E050E00E949E1622
S1131A00CA01B9010E94B9112091560230915702BE
S1131A1040915802509159020E9445120E94881127
S1131A20788B6F871E861D868091460290914702AF
S1131A30892B09F084C011E0E114F10409F0EDCE22
S1131A40BE01615F7F4FCE0141960E94AD08809137
S1131A50BE019091BF01009709F46CC00197909367
S1131A60BF018093BE01D9CE0E94B30A80932402A1
S1131A7010923902E0905E02F0905F021A8A198A8D
S1131A80188A1F861E861D868EE1C82ED12CFECD97
S1131A90909336028093350243CF84E20E947810FB
S1131AA080911C0290911D022ACF0E9415098091F9
S1131AB00201909103018730910521F0039709F009
S1131AC039CE31CF0E946F098091020190910301B8
S1131AD0F5CF8CE692E00E94420780913502909106
S1131AE0360202CE8091330290913402880F991FFE
S1131AF0865D9E4F0E944207809135029091360286
S1131B00EFCDCE010D960E9442078091350290914F
S1131B103602E2CD1092300210922F0213CE0E94B0
S1131B20EA07BCCE8091B0008F7D8093B000109204
S1131B302A0210CECE010D960E94F9006ECE8E01BF
S1131B400B5F1F4F9E01275F3F4FAE014F5F5F4FFB
S1131B50BE01615F7F4FCE0141960E944C0611E0A9
S1131B6058CE811107C080916E008E7F80936E00E5
S1131B7015BC089587E085BD80916E0081608093D7
S1131B806E0016BC0895811108C080916F008E7F8D
S1131B9080936F0010928100089587E08093810004
S1131BA080916F00816080936F0010928500109285
S1131BB0840008951092B200811108C01092B100FF
S1131BC0809170008E7F80937000089583E08093ED
S1131BD0B00087E08093B1008091700081608093B1
S1131BE070000895009779F0019731F480917A009C
S1131BF0806480937A0008958FE880937A0087E464
S1131C0080937C00089580917A008F7B80937A0082
S1131C100895AC012091840430918504F901EE0FFC
S1131C20FF1FEC57FC4F6081718180918604909175
S1131C308704A0918804B0918904861B970BA1099D
S1131C40B109840F951FA11DB11D80938604909343
S1131C508704A0938804B0938904518340832F5F41
S1131C603F4F2F773327309385042093840427E054
S1131C70B695A795979587952A95D1F708954F928C
S1131C805F926F927F92AF92BF92CF92DF92EF9268
S1131C90FF920F931F93CF93DF93FB01A080B1803A
S1131CA0EC018C011395C12CD12C760121C0072E97
S1131CB0000C880B990B0E94B9112B013C01C70140
S1131CC0B6010E94B7116B017C01A3019201C3010B
S1131CD0B2010E9445129B01AC01C701B6010E94EA
S1131CE0A3100E9488116B017C010C171D0751F091
S1131CF0699179916A197B0977FFD9CF71956195BB
S1131D007109D5CF27E096958795779567952A959C
S1131D10D1F70E94B7110E94B8129B01AC010E9436
S1131D20A3100E948811CB01DF91CF911F910F91D5
S1131D30FF90EF90DF90CF90BF90AF907F906F9027
S1131D405F904F9008956623B9F010928604109224
S1131D5087041092880410928904109285041092CA
S1131D608404E4E8F3E01192119284E0E438F80783
S1131D70D1F780E090E008950C94090E4F925F92A1
S1131D806F927F928F929F92AF92BF92CF92DF9287
S1131D90EF92FF92CF93DF93EC01662309F457C0CF
S1131DA0812C912C80E2A82E82E4B82E412C512C57
S1131DB03201C12CD12CE12C9FE3F92EBE01DD0FA1
S1131DC0880B990B0E94B911A30192010E94A210E1
S1131DD0A70196010E944512A30192010E94A3103B
S1131DE06B017C019B01AC01C301B2010E94A210F2
S1131DF09F7726EA3BE944EC5BE30E944512A50188
S1131E0094010E94A31060938003709381038093D4
S1131E10820390938303C0927C03D0927D03E0926B
S1131E207E03F0927F03C701B6010E948111CB01AA
S1131E30DF91CF91FF90EF90DF90CF90BF90AF9064
S1131E409F908F907F906F905F904F9008958090B7
S1131E50800390908103A0908203B090830320E0DC
S1131E6030E040EA52E4C501B4010E94A3109B0192
S1131E70AC01C501B4010E940F116B017C014090BB
S1131E807C0350907D0360907E0370907F039B01E0
S1131E90AC0160E070E080E89FE30E94A210A5011D
S1131EA094010E9445124B015C0188CF4F925F92CE
S1131EB06F927F928F929F92AF92BF92CF92DF9256
S1131EC0EF92FF92CF93DF93EC01662309F457C09E
S1131ED0812C912C80E2A82E82E4B82E412C512C26
S1131EE03201C12CD12CE12C9FE3F92EBE01DD0F70
S1131EF0880B990B0E94B911A30192010E94A210B0
S1131F00A70196010E944512A30192010E94A31009
S1131F106B017C019B01AC01C301B2010E94A210C0
S1131F209F7726EA3BE944EC5BE30E944512A50156
S1131F3094010E94A31060937803709379038093B3
S1131F407A0390937B03C0927403D0927503E0925A
S1131F507603F0927703C701B6010E948111CB0189
S1131F60DF91CF91FF90EF90DF90CF90BF90AF9033
S1131F709F908F907F906F905F904F900895809086
S1131F80780390907903A0907A03B0907B0320E0CB
S1131F9030E040EA52E4C501B4010E94A3109B0161
S1131FA0AC01C501B4010E940F116B017C0140908A
S1131FB074035090750360907603709077039B01CF
S1131FC0AC0160E070E080E89FE30E94A210A501EC
S1131FD094010E9445124B015C0188CF0F931F931B
S1131FE0CF93DF936623D9F0109273031092720398
S1131FF0109271031092700310926F0310926E038B
S1132000EEE6F2E01192119283E0EE36F807D1F792
S113201080E090E0DF91CF911F910F910895EC0142
S1132020809172039091730380389105C0F0809180
S11320306E0390916F03009769F100917003109102
S1132040710398012C1B3D0B37FD37C08217930792
S1132050A0F4C801DF91CF911F910F9108959C01C5
S11320602F5F3F4F3093730320937203880F991FA0
S1132070FC01E259FD4FD183C083CE010E94090EB9
S11320809093710380937003CE01DF91CF911F91E0
S11320900F910895CE010E94090E8C019093710353
S11320A08093700360E773E08EE692E00E943F0E37
S11320B090936F0380936E03C4CF319521953109BA
S11320C0C5CF009791F0019721F488E98093C1006E
S11320D008951092C10086E08093C20083E090E0EE
S11320E09093C5008093C40008951092C100089590
S11320F09091C00095FFFCCF8093C6000895FC0129
S11321002081222351F031969091C00095FFFCCF9D
S11321102093C60021912111F7CF0895FC0180E09E
S113212047E09191992369F0892728E030E004C0C1
S1132130880F21503109A9F387FFFACF880F84272C
S1132140F8CF08955058BB27AA270E94BA100C94C0
S11321500B120E94FD1138F00E94041220F039F491
S11321609F3F19F426F40C94FA110EF4E095E7FB62
S11321700C94F411E92F0E941C1258F3BA17620749
S113218073078407950720F079F4A6F50C943E12A2
S11321900EF4E0950B2EBA2FA02D0B01B90190017E
S11321A00C01CA01A0011124FF27591B99F0593FC2
S11321B050F4503E68F11A16F040A22F232F342F0A
S11321C04427585FF3CF469537952795A795F04058
S11321D05395C9F77EF41F16BA0B620B730B840B6D
S11321E0BAF09150A1F0FF0FBB1F661F771F881F25
S11321F0C2F70EC0BA0F621F731F841F48F487957D
S113220077956795B795F7959E3F08F0B0CF93956E
S1132210880F08F09927EE0F9795879508950E94E7
S113222023110C940B120E94041258F00E94FD1109
S113223040F029F45F3F29F00C94F41151110C94EF
S11322403F120C94FA110E941C1268F39923B1F303
S1132250552391F3951B550BBB27AA2762177307C8
S1132260840738F09F5F5F4F220F331F441FAA1F5C
S1132270A9F335D00E2E3AF0E0E832D09150504018
S1132280E695001CCAF72BD0FE2F29D0660F771FC6
S1132290881FBB1F261737074807AB07B0E809F0AC
S11322A0BB0B802DBF01FF2793585F4F3AF09E3F31
S11322B0510578F00C94F4110C943F125F3FE4F351
S11322C0983ED4F3869577956795B795F7959F5F74
S11322D0C9F7880F911D9695879597F90895E1E0C0
S11322E0660F771F881FBB1F621773078407BA071F
S11322F020F0621B730B840BBA0BEE1F88F7E0957A
S113230008950E9488116894B1110C943F120895A5
S11323100E94241288F09F5798F0B92F9927B7513B
S1132320B0F0E1F0660F771F881F991F1AF0BA9575
S1132330C9F714C0B13091F00E943E12B1E0089583
S11323400C943E12672F782F8827B85F39F0B93F75
S1132350CCF3869577956795B395D9F73EF4909528
S11323608095709561957F4F8F4F9F4F0895E894A6
S113237009C097FB3EF490958095709561957F4FC9
S11323808F4F9F4F9923A9F0F92F96E9BB27939577
S1132390F695879577956795B795F111F8CFFAF487
S11323A0BB0F11F460FF1BC06F5F7F4F8F4F9F4FB8
S11323B016C0882311F096E911C0772321F09EE816
S11323C0872F762F05C0662371F096E8862F70E07C
S11323D060E02AF09A95660F771F881FDAF7880F56
S11323E09695879597F9089597F99F6780E870E027
S11323F060E008959FEF80EC089500240A94161677
S1132400170618060906089500240A9412161306DE
S1132410140605060895092E0394000C11F488236C
S113242052F0BB0F40F4BF2B11F460FF04C06F5F88
S11324307F4F8F4F9F4F089557FD9058440F551F5E
S113244059F05F3F71F04795880F97FB991F61F032
S11324509F3F79F087950895121613061406551FA9
S1132460F2CF4695F1DF08C0161617061806991F15
S1132470F1CF86957105610508940895E894BB270A
S113248066277727CB0197F908950E9458120C9478
S11324900B120E94FD1138F00E94041220F09523C3
S11324A011F00C94F4110C94FA1111240C943F12B1
S11324B00E941C1270F3959FC1F3950F50E0551FB5
S11324C0629FF001729FBB27F00DB11D639FAA2785
S11324D0F00DB11DAA1F649F6627B00DA11D661FD4
S11324E0829F2227B00DA11D621F739FB00DA11DF5
S11324F0621F839FA00D611D221F749F3327A00DAF
S1132500611D231F849F600D211D822F762F6A2F4A
S113251011249F5750409AF0F1F088234AF0EE0FAF
S1132520FF1FBB1F661F771F881F91505040A9F7DC
S11325309E3F510580F00C94F4110C943F125F3FC0
S1132540E4F3983ED4F3869577956795B795F79518
S1132550E7959F5FC1F7FE2B880F911D9695879590
S113256097F9089519F416F40C94FA110C94F812CE
S11325700E942412B8F39923C9F3B6F39F57550B5D
S113258087FF0E9406130024A0E640EA90018058C9
S11325905695979528F4805C660F771F881F20F066
S11325A026173707480730F4621B730B840B202966
S11325B031294A2BA69517940794202531254A27BB
S11325C058F7660F771F881F20F02617370748072C
S11325D030F4620B730B840B200D311D411DA0954B
S11325E081F7B901842F9158880F9695879508959E
S11325F09F3F31F0915020F4879577956795B79573
S1132600880F911D9695879597F90895915050409C
S1132610660F771F881FD2F70895A0E1B0E0E3E1C9
S1132620F3E10C94D2167C011B016A01FC011782B0
S11326301682838181FF44C39E012F5F3F4F39017E
S1132640F7019381F10193FD859193FF81911F011E
S1132650882309F431C3853239F493FD859193FFBE
S113266081911F01853239F4B70190E00E942D1841
S113267056016501E5CF10E0512C912CFFE1F915CD
S1132680D8F08B3279F038F4803279F08332A1F4C7
S1132690F92DF0612EC08D3261F0803369F4292D5B
S11326A021602DC0392D3260932E892D8460982E9F
S11326B02AC0E92DE86015C097FC2DC020ED280F35
S11326C02A3088F496FE06C03AE0139F200D1124A8
S11326D0122F19C08AE0589E200D1124522EE92D84
S11326E0E0629E2E10C08E3231F496FCE5C2F92DC4
S11326F0F0649F2E08C08C3621F4292D2068922E78
S113270002C0883641F4F10193FD859193FF8191D4
S11327101F018111B3CF9BEB980F933020F4992DB7
S11327209061805E07C09BE9980F933008F066C102
S1132730992D9F7E96FF16E09F73992E853619F486
S11327409064992E08C0863621F4392F3068932E70
S113275002C01111115097FE07C01C3350F44424D9
S11327604394410E27E00BC0183038F027E017E0FF
S113277005C027E09CE3492E02C0212F412C5601BD
S113278084E0A80EB11CF60160817181828193817D
S1132790042DA3010E942B176C01F981FC87F0FF23
S11327A002C0F3FF06C091FC06C092FE06C000E220
S11327B005C00DE203C00BE201C000E08C858C7003
S11327C019F001115AC29BC297FE10C04C0CFC8533
S11327D0F4FF04C08A81813309F44A94141474F513
S11327E028E0241578F588E0482E2CC096FC2AC0F1
S11327F0812F90E08C159D059CF03CEFC3163FEFB4
S1132800D30674F0892D8068982E0AC0E2E0F0E0C7
S1132810EC0FFD1FE10FF11D8081803319F411507D
S11328201111F4CF97FE0EC044244394410E812F1E
S113283090E0C816D9062CF41C1904C0442443940F
S113284001C010E097FE06C01C141D0434F4C60138
S1132850019605C085E090E002C081E090E001119E
S11328600196112331F0212F30E02F5F3F4F820F6B
S1132870931F252D30E08217930714F4581A01C0D2
S1132880512C892D897049F4552039F0B70180E223
S113289090E00E942D185A94F7CF002329F0B70135
S11328A0802F90E00E942D1893FC09C0552039F028
S11328B0B70180E390E00E942D185A94F7CF97FE59
S11328C04CC04601D7FE02C0812C912CC601881948
S11328D09909F301E80FF91FFE87ED879601241982
S11328E03109388B2F87012F10E0119501951109BB
S11328F03FEF8316930629F4B7018EE290E00E941D
S11329002D18C814D9044CF08F8598898815990519
S113291024F4ED85FE85818101C080E3F1E08F1A06
S113292091082D853E852F5F3F4F3E872D8780166A
S113293091062CF0B70190E00E942D18D9CFC8144D
S1132940D90441F49A81963320F4953319F43C85E3
S113295034FF81E3B70190E04EC08A81813319F0DE
S11329609C859F7E9C87B70190E00E942D181111D1
S113297005C094FC18C085E690E017C0B7018EE24C
S113298090E00E942D181E5F82E001E0080FF30121
S1132990E80FF11D8081B70190E00E942D18802F6F
S11329A00113F3CFE6CF85E490E0B7010E942D1820
S11329B0D7FC06C0C114D10441F4EC85E4FF05C082
S11329C0D194C194D1088DE201C08BE2B70190E0AB
S11329D00E942D1880E32AE0C216D1042CF08F5FE8
S11329E0FAE0CF1AD108F7CFB70190E00E942D1872
S11329F0B701C601C0960E942D1854C1833631F028
S1132A00833779F0833509F056C020C0560132E08F
S1132A10A30EB11CF6018081898301E010E06301FB
S1132A2012C05601F2E0AF0EB11CF601C080D18095
S1132A3096FE03C0612F70E002C06FEF7FEFC60106
S1132A400E9422188C01F92DFF7714C0560122E050
S1132A50A20EB11CF601C080D18096FE03C0612F86
S1132A6070E002C06FEF7FEFC6010E9403188C0173
S1132A70F92DF0689F2EF3FD1AC0852D90E00817FC
S1132A801907A8F4B70180E290E00E942D185A9427
S1132A90F4CFF60197FC859197FE81916F01B70100
S1132AA090E00E942D1851105A94015011090115FB
S1132AB0110579F7F7C0843611F0893661F55601AE
S1132AC097FE09C024E0A20EB11CF6016081718159
S1132AD0828193810AC0F2E0AF0EB11CF6016081DD
S1132AE07181072E000C880B990BF92DFF769F2E10
S1132AF097FF09C090958095709561957F4F8F4F92
S1132B009F4FF0689F2E2AE030E0A3010E948B18AB
S1132B10C82EC6183FC0092D853721F40F7E2AE040
S1132B2030E01DC0097F8F3691F018F4883559F0D4
S1132B30C3C0803719F0883711F0BEC0006104FFAC
S1132B4009C0046007C094FE08C0066006C028E0FF
S1132B5030E005C020E130E002C020E132E056015F
S1132B6007FF09C084E0A80EB11CF60160817181E1
S1132B708281938108C0F2E0AF0EB11CF60160813E
S1132B80718180E090E0A3010E948B18C82EC618C2
S1132B900F77902E96FE0BC0092D0E7FC11650F4B0
S1132BA094FE0AC092FC08C0092D0E7E05C0DC2CE0
S1132BB0092D03C0DC2C01C0D12E04FF0DC0FE0181
S1132BC0EC0DF11D8081803311F4097E09C002FFF0
S1132BD006C0D394D39404C0802F867809F0D3948C
S1132BE003FD11C000FF06C01C2DD51480F4150D83
S1132BF01D190DC0D51458F4B70180E290E00E946D
S1132C002D18D394F7CFD51410F45D1801C0512CAE
S1132C1004FF10C0B70180E390E00E942D1802FF6A
S1132C2017C001FD03C088E790E002C088E590E08A
S1132C30B7010CC0802F867859F001FF02C08BE2E7
S1132C4001C080E207FD8DE2B70190E00E942D18DB
S1132C50C11638F4B70180E390E00E942D1811509A
S1132C60F7CFCA94F301EC0DF11D8081B70190E018
S1132C700E942D18C110F5CF15C0F4E0F51560F5CC
S1132C8084E0581A93FE1FC0011127C02C8523FF2E
S1132C902AC002EB10E0392D3071932EF801849193
S1132CA0811124C0552009F4E4CCB70180E290E0FE
S1132CB00E942D185A94F6CFF7018681978126C079
S1132CC08FEF9FEF23C0B70180E290E00E942D18A0
S1132CD05A945110F8CFD8CF512CB701802F90E0DF
S1132CE00E942D18D3CF06EB10E0D5CF911080525F
S1132CF0B70190E00E942D180F5F1F4FCFCF23E044
S1132D00251510F483E0BDCF512CC0CF6096E2E1CD
S1132D100C94EE16AA1BBB1B51E107C0AA1FBB1FD4
S1132D20A617B70710F0A61BB70B881F991F5A9553
S1132D30A9F780959095BC01CD010895052E97FBC8
S1132D401EF400940E94B51657FD07D00E9409177F
S1132D5007FC03D04EF40C94B5165095409530956D
S1132D6021953F4F4F4F5F4F0895909580957095F3
S1132D7061957F4F8F4F9F4F0895EE0FFF1F059072
S1132D80F491E02D0994A29FB001B39FC001A39FC9
S1132D90700D811D1124911DB29F700D811D112490
S1132DA0911D08952F923F924F925F926F927F925E
S1132DB08F929F92AF92BF92CF92DF92EF92FF9247
S1132DC00F931F93CF93DF93CDB7DEB7CA1BDB0BF3
S1132DD00FB6F894DEBF0FBECDBF09942A88398898
S1132DE048885F846E847D848C849B84AA84B9849F
S1132DF0C884DF80EE80FD800C811B81AA81B981AB
S1132E00CE0FD11D0FB6F894DEBF0FBECDBFED01BE
S1132E100895A1E21A2EAA1BBB1BFD010DC0AA1F17
S1132E20BB1FEE1FFF1FA217B307E407F50720F02F
S1132E30A21BB30BE40BF50B661F771F881F991FAA
S1132E401A9469F760957095809590959B01AC01F3
S1132E50BD01CF010895283008F027E03327DA01B7
S1132E60990F311D87FD916000966105710539F454
S1132E7032602E5F3D9330E32A95E1F708959F3F3A
S1132E8030F080387105610509F03C5F3C5F3D938B
S1132E90913008F08068911DDF93CF931F930F93B7
S1132EA0FF92EF92192F987F9695E92F9695969514
S1132EB0E90FFF27EC5EFE4F99273327EE24FF240A
S1132EC0A701E70105900894079428F4360FE71E3C
S1132ED0F81E491F511D660F771F881F991F0694FE
S1132EE0A1F70590079428F4E70EF81E491F561F12
S1132EF0C11D770F881F991F661F0694A1F70590BF
S1132F00079428F4F80E491F561FC71FD11D880FB8
S1132F10991F661F771F0694A1F70590079420F464
S1132F20490F561FC71FD81F990F661F771F881F89
S1132F300694A9F784911095177041F0D695C7951A
S1132F4057954795F794E7941A95C1F7EAEBF0E0A3
S1132F5068941590159135916591959105907FE24E
S1132F607395E118F10A430B560BC90BD009C0F74E
S1132F70E10CF11E431F561FC91FD01D7EF4703390
S1132F8011F48A95E6CFE894015030F0080F0AF462
S1132F900027021708F4202F2395022F7A3328F0F4
S1132FA079E37D932A95E9F710C07D932A9589F6F4
S1132FB0069497956795379517951794E118F10A34
S1132FC0430B560BC90BD00998F023957E9173954A
S1132FD07A3308F070E37C932013B8F77E91706124
S1132FE07D9330F0839571E37D9370E32A95E1F747
S1132FF01124EF90FF900F911F91CF91DF919927AA
S113300087FD90950895FC01059061507040011072
S1133010D8F7809590958E0F9F1F0895FB01DC01D2
S11330200D900020E9F7119701900D920020E1F72F
S11330300895FB01DC018D91019080190110D9F3F1
S1133040990B0895FC016150704001900110D8F76C
S1133050809590958E0F9F1F08950F931F93CF9384
S1133060DF93FB01238121FD03C08FEF9FEF2CC071
S113307022FF16C0468157812481358142175307A8
S113308044F4A081B1819D012F5F3F4F31832083A0
S11330908C93268137812F5F3F4F3783268314C05B
S11330A08B01EC01FB010084F185E02D0995892B4E
S11330B0E1F6D80116968D919C9117970196179673
S11330C09C938E931697CE01DF91CF911F910F9110
S11330D00895AEE0B0E0EFE6F8E10C94E0160D8957
S11330E01E8986E08C831A8309838FEF9FE79E8372
S11330F08D83AE01475E5F4F6F89788DCE01019657
S11331000E940D13EF81F885E00FF11F10822E96B7
S1133110E4E00C94FC16FA01AA27283051F120317E
S113312081F1E8946F936E7F6E5F7F4F8F4F9F4F57
S1133130AF4FB1E03ED0B4E03CD0670F781F891F99
S11331409A1FA11D680F791F8A1F911DA11D6A0F67
S1133150711D811D911DA11D20D009F468943F911A
S11331602AE0269F11243019305D3193DEF6CF0119
S11331700895462F4770405D4193B3E00FD0C9F7DF
S1133180F6CF462F4F70405D4A3318F0495D31FD4C
S11331904052419302D0A9F7EACFB4E0A69597959F
S11331A0879577956795BA95C9F700976105710575
S11331B008959B01AC010A2E0694579547953795BF
S11331C02795BA95C9F7620F731F841F951FA01D19
S11331D00895A8E1B0E042E050E00C94F71801969D
S11331E0272F0E9406190C940519DC01CB01FC0160
S11331F0F999FECF06C0F2BDE1BDF89A319600B44C
S11332000D9241505040B8F70895262FF999FECFFA
S113321092BD81BDF89A019700B4021639F01FBA25
S113322020BD0FB6F894FA9AF99A0FBE0895F8944F
S1053230FFCFCA
S113323264000600000000000500FBFF02003C00E1
S1133242630000000000010001005000500006006D
S1133252000000001E001E006300000002000400C3
S1133262060008000A000C000E00100012001400F0
S1133272160018001A001C001E0020002200240060
S11332825A005C0063000D0A2564240D0A00252EF1
S11332923366240D0A00494E4954004F4B2400560C
S11332A2415253004D454D00494E49545F455252D7
S11332B24F522400244125642400502564240054E0
S11332C2252E30662400544D50252E3166240048A4
S10F32D2252E31662400307825580000B9
S9030000FC
