S016000045787465726E616C4465766963652E737265637B
S11300000C9459000C9476000C9476000C947600B1
S11300100C9476000C9476000C9476000C94760084
S11300200C9476000C94F9020C9476000C947600EF
S11300300C9476000C94E2020C9476000C947600F6
S11300400C94CB020C9476000C946F030C94760001
S11300500C9476000C944F030C9476000C94760068
S11300600C9476000C947600730B920A600B920A3F
S1130070600B920A420B920A340B920A260B920AE4
S1130080180B920A0B0B920A0B0B920AEE0A920AB5
S1130090EE0A920A180B920A180B920A180B920A8B
S11300A0180B920AD40A920A180B920A180B920A95
S11300B0180B11241FBECFEFD8E0DEBFCDBF11E077
S11300C0A0E0B1E0EEEDFDE202C005900D92AC3A85
S11300D0B107D9F724E0ACEAB1E001C01D92A63B18
S11300E0B207E1F70E94FD0B0C94ED160C9400008E
S11300F0CF92DF92EF92FF920F931F93CF93DF93F0
S1130100CDB7DEB72A970FB6F894DEBF0FBECDBFCA
S11301107C01FE0131969AE0DF011D929A95E9F780
S1130120249A2C9A8FE39CE90197F1F700C0000010
S11301302C98AFECB7E01197F1F700C000002C9AAF
S11301402498B5EDBA95F1F700001C9988C08FE3A7
S113015091E00197F1F700C000001C9B80C0AFE361
S1130160B1E01197F1F700C00000CE010B9601E059
S113017010E047E050E0A0E0B0E025E630E004C045
S11301802150310909F46BC01C9BFACF20EA2A954F
S1130190F1F71C9B09C09801042E02C0220F331FE3
S11301A00A94E2F7A22BB32B25E630E004C02150D9
S11301B0310909F454C01C99FACF41505109E8F6A9
S11301C0A193B1938E179F07A1F6249A2C9A8FE3DB
S11301D09CE90197F1F700C00000E981FA81AB8145
S11301E0BC814D815E818F8198859F012A0F3B1FC1
S11301F0240F351F280F391F09851A852017310749
S113020071F56B011E2F00270A2B1B2B742F6627F9
S1130210682B792B77FD34C080E090E00E940112B6
S113022020E030E040E251E40E945911D7016D937F
S11302307D938D939C931397B80180E090E00E9486
S1130240011220E030E040E251E40E945911F6012D
S1130250608371838283938380E090E002C08FEF98
S11302609FEF2A960FB6F894DEBF0FBECDBFDF9185
S1130270CF911F910F91FF90EF90DF90CF90089551
S11302807F7780E090E00E94011220E030E040E2BD
S113029051E40E945911DC01CB01B058F70180836D
S11302A09183A283B383C8CF87E085BDEEE6F0E0F7
S11302B080818160808316BC089587E080938100EB
S11302C0EFE6F0E0808181608083109285001092D7
S11302D084000895FC01808191819C0197FD20C1D7
S11302E040919A0350919B03421753070CF484C026
S11302F080910001909101018436910509F47BC03D
S11303008091C8019091C901892B21F01092C901F3
S11303101092C8018091C6019091C701892B21F0E8
S11303201092C7011092C6018091B0008F7D809316
S1130330B00084E690E09093010180930001109254
S1130340CD011092CC0180919203909193039093EC
S1130350CB018093CA0108952091960330919703AD
S1130360281739074CF497FF2CC080910001909115
S113037001018436910529F187E88093B40087E868
S113038090E0909301018093000180917203909119
S11303907303892B49F08091C8019091C90101969A
S11303A09093C9018093C80180919403909195031F
S11303B09093CD018093CC018091B00080628093B2
S11303C0B0002091C8013091C901809172039091CD
S11303D073038217930778F485E090E090936803A1
S11303E08093670390935903809358031092C90133
S11303F01092C8012A9A08954091CC015091CD01E0
S113040041155105B1F0415051095093CD0140932C
S1130410CC01452B81F78091B0008F7D8093B00093
S113042080919203909193039093CB018093CA019E
S11304300895409158035091590341505109433054
S11304405105C8F24091740350917503411551054B
S113045009F473C060919803709199038617970704
S11304600CF463C060910001709101016436710560
S113047009F47DC06091C4017091C501621B730BC6
S11304806F3FFFEF7F0724F0623071050CF478C0F2
S11304901092C7011092C6013093C5012093C40184
S11304A02091940330919503232B09F48ACF209152
S11304B09803309199038217930764F41816190668
S11304C00CF04ACF2091000130910101243631050E
S11304D009F442CF8AEF8093B4008AEF90E09093BE
S11304E00101809300018091720390917303892B21
S11304F049F08091C8019091C90101969093C90176
S11305008093C80180919403909195039093CD01B9
S11305108093CC018091B00080628093B0000895F4
S113052022273327281B390BDBCE60919603709169
S11305309703681779070CF095CF2091C601309185
S1130540C7014217530708F0ABCF85E090E09093C2
S113055068038093670384E090E090935903809349
S113056058031092C7011092C6012A9A0895309335
S1130570C5012093C4012091C6013091C701E1CF88
S11305802091C6013091C7012F5F3F4F3093C701BF
S11305902093C601D6CF1F920F920FB60F9211244B
S11305A08F939F9380917003909171030196909320
S11305B07103809370039F918F910F900FBE0F90E2
S11305C01F9018951F920F920FB60F9211248F93BC
S11305D09F9380916E0390916F03019690936F03A4
S11305E080936E039F918F910F900FBE0F901F9079
S11305F018951F920F920FB60F9211242F933F93C9
S11306004F935F936F937F938F939F93AF93BF9316
S1130610EF9340916C0350916D034F5F5F4F509384
S11306206D0340936C03E1E0E09369039A01AFEA40
S1130630B7E40E949013281B390B36952795820F37
S1130640931F929582958F7089279F70892769E1FE
S1130650689F9001699F300D11244217530711F4CC
S1130660E0936A034D37510538F081E080936B03C2
S113067010926D0310926C0383E88093B200EF91A3
S1130680BF91AF919F918F917F916F915F914F91A6
S11306903F912F910F900FBE0F901F9018951F92AE
S11306A00F920FB60F9211248F939F93EF93FF93A2
S11306B0EAE7F0E08081808380917800909179006E
S11306C0E3E5F3E09183808381E08283FF91EF91FE
S11306D09F918F910F900FBE0F901F9018951F92AE
S11306E00F920FB60F9211242F933F934F938F9332
S11306F09F93EF93FF9380915103882381F080911E
S1130700C6008432A1F1FF91EF919F918F914F9197
S11307103F912F910F900FBE0F901F90189520912D
S11307204C0330914D03C901019690934D0380937E
S11307304C034091C600F901EC5BFC4F40838930C7
S1130740910580F4FC01EC5BFC4F82918432D9F674
S11307508091C1008F778093C100108281E08093E3
S11307605003D1CF10924D0310924C03CCCF81E0B3
S11307708093520310924F0310924E03C4CFCF9232
S1130780DF92EF92FF920F931F93CF93DF93CDB736
S1130790DEB760970FB6F894DEBF0FBECDBFCE01B3
S11307A001967C0180E1F70111928A95E9F78BE5C6
S11307B091E00E94C910F8940AE211E088E5C82E7D
S11307C081E0D82EF801819191918F010E948816C1
S11307D09F938F93DF92CF92FF92EF920E94D51353
S11307E0C7010E94C9100F900F900F900F900F90A7
S11307F00F90F1E000351F0729F7789460960FB643
S1130800F894DEBF0FBECDBFDF91CF911F910F9142
S1130810FF90EF90DF90CF900895CF92DF92EF9208
S1130820FF920F931F93CF93DF93CDB7DEB76097FB
S11308300FB6F894DEBF0FBECDBF8E010F5F1F4F02
S113084080E1F80111928A95E9F780919D038F93D5
S113085080919C038F9386E591E09F938F931F93E0
S11308600F930E94D513C8010E94C91080919B0365
S11308708F9380919A038F9388E5E82E81E0F82E78
S1130880FF92EF921F930F930E94D513C8010E9409
S1130890C910809199038F93809198038F93FF924D
S11308A0EF921F930F930E94D513C8010E94C910A1
S11308B0809197038F93809196038F93FF92EF9289
S11308C01F930F930E94D513C8010E94C9108091F1
S11308D095038F93809194038F93FF92EF921F93CC
S11308E00F930E94D513C8010E94C91080919303ED
S11308F08F93809192038F93FF92EF921F930F93A4
S11309000E94D5130FB6F894DEBF0FBECDBFC80149
S11309100E94C910809191038F93809190038F93CB
S1130920FF92EF921F930F930E94D513C8010E9468
S1130930C91080918F038F9380918E038F93809140
S11309408D038F9380918C038F939EE5C92E91E044
S1130950D92EDF92CF921F930F930E94D513C80113
S11309600E94C91080918B038F9380918A038F9387
S1130970809189038F93809188038F93DF92CF9224
S11309801F930F930E94D513C8010E94C910809130
S113099087038F93809186038F93FF92EF921F9327
S11309A00F930E94D513C8010E94C910809185033A
S11309B08F93809184038F93FF92EF921F930F93F1
S11309C00E94D5130FB6F894DEBF0FBECDBFC80189
S11309D00E94C910809183038F93809182038F9327
S11309E0FF92EF921F930F930E94D513C8010E94A8
S11309F0C910809181038F93809180038F93FF921C
S1130A00EF921F930F930E94D513C8010E94C9103F
S1130A1080917F038F9380917E038F9380917D03D8
S1130A208F9380917C038F93DF92CF921F930F93C8
S1130A300E94D513C8010E94C91080917B038F9333
S1130A4080917A038F93FF92EF921F930F930E94EA
S1130A50D513C8010E94C910809179038F938091A6
S1130A6078038F93FF92EF921F930F930E94D513F5
S1130A700FB6F894DEBF0FBECDBFC8010E94C910E7
S1130A80809177038F93809176038F93FF92EF92F7
S1130A901F930F930E94D513C8010E94C91080911F
S1130AA075038F93809174038F93FF92EF921F933A
S1130AB00F930E94D513C8010E94C910809173033B
S1130AC08F93809172038F93FF92EF921F930F93F2
S1130AD00E94D513C8010E94C9100FB6F894DEBF56
S1130AE00FBECDBF60960FB6F894DEBF0FBECDBF6C
S1130AF0DF91CF911F910F91FF90EF90DF90CF90F6
S1130B0008950F931F93CF93DF93F894C4E0D1E03B
S1130B100AE211E069917991F801819191918F0133
S1130B200E948E16F1E0CA32DF07A1F77894DF91B4
S1130B30CF911F910F910895F89480E090E00E9466
S1130B40881690939D0380939C0382E090E00E941A
S1130B50881690939B0380939A0384E090E00E940C
S1130B608816909399038093980386E090E00E94FE
S1130B708816909397038093960388E090E00E94F0
S1130B80881690939503809394038AE090E00E94E2
S1130B90881690939303809392038CE090E00E94D4
S1130BA0881690939103809390038EE090E00E94C6
S1130BB08816BC0180E090E00E94011220E030E041
S1130BC04AE754E40E9459119B01AC0160E070E0D3
S1130BD080E89FE30E94EC1060938C0370938D0374
S1130BE080938E0390938F0380E190E00E94881697
S1130BF0BC0180E090E00E94011220E030E04AE76E
S1130C0054E40E9459119B01AC0160E070E080E85B
S1130C109FE30E94EC106093880370938903809390
S1130C208A0390938B0382E190E00E94881690934C
S1130C3087038093860384E190E00E948816909352
S1130C4085038093840386E190E00E948816909344
S1130C5083038093820388E190E00E948816909336
S1130C608103809380038AE190E00E948816BC018E
S1130C7080E090E00E94011220E030E04AE754E472
S1130C800E94591160937C0370937D0380937E03CB
S1130C9090937F038CE190E00E94881690937B03ED
S1130CA080937A038EE190E00E94881690937903F2
S1130CB08093780380E290E00E94881690937703F3
S1130CC08093760382E290E00E94881690937503E5
S1130CD08093740384E290E00E94881690937303D7
S1130CE0809372037894089566E671E084E493E057
S1130CF00E94CC13892B99F16DE671E084E493E0B2
S1130D000E94CC13892B39F16FE671E084E493E0FF
S1130D100E94CC13892B71F164E771E084E493E0C1
S1130D200E94CC13892B19F188E791E00E94C91025
S1130D3010924D0310924C0388E0E4E4F3E0DF01E9
S1130D401D928A95E9F7109250038091C100806842
S1130D508093C100089581E080935103E9CF8BE62D
S1130D6091E00E94C91081E080935103E1CF0E9479
S1130D70BF03DECF0E940D04DBCFAF92BF92CF92B0
S1130D80DF92EF92FF920F931F93CF93DF935B0158
S1130D906A017901E801DC0111962C9111972F93D6
S1130DA08C918F9384E891E09F938F938CE393E0ED
S1130DB09F938F930E94D513F50181818F93808136
S1130DC08F938AE891E09F938F9384E393E09F93BA
S1130DD08F930E94D513D60113968C9113978F93FA
S1130DE012968C9112978F9311968C9111978F93E1
S1130DF08C918F938FE891E09F938F938CE293E093
S1130E009F938F930E94D513F70183818F938281DF
S1130E108F9381818F9380818F9386E991E09F9353
S1130E208F9384E293E09F938F930E94D5138B81D9
S1130E308F938A818F9389818F9388818F938FE990
S1130E4091E09F938F938CE193E09F938F930E9403
S1130E50D5138DB79EB784960FB6F8949EBF0FBE78
S1130E608DBF6CE373E08CED92E00E94C11364E3E8
S1130E7073E08CED92E00E94C1136CE273E08CEDA0
S1130E8092E00E94C11364E273E08CED92E00E9450
S1130E90C1136CE173E08CED92E00E94C1138CED00
S1130EA092E00E94D8101F928F9386EA91E09F935C
S1130EB08F9384ED92E09F938F930E94D51364EDFA
S1130EC072E08CED92E00E94C1138CED92E00E94DE
S1130ED0C91080E4ECEDF2E0DF011D928A95E9F798
S1130EE00F900F900F900F900F900F90DF91CF9174
S1130EF01F910F91FF90EF90DF90CF90BF90AF9034
S1130F000895CF93DF936623D1F01092D302109209
S1130F10D2021092D1021092D0021092CF021092FB
S1130F20CE02EEECF1E08EEC92E0119211928E176B
S1130F309F07D9F780E090E0DF91CF910895EC010D
S1130F408091D2029091D30280389105B0F08091C3
S1130F50CE029091CF02009751F14091D00250916E
S1130F60D1029A012C1B3D0B37FD34C08217930725
S1130F7090F4CA01DF91CF9108959C012F5F3F4FF8
S1130F803093D3022093D202880F991FFC01E253BD
S1130F90FE4FD183C08360E0CE010E94230F909363
S1130FA0D1028093D002CE01DF91CF91089560E009
S1130FB0CE010E94230F9093D1028093D00260ED62
S1130FC072E08EEC91E00E94BF0E9093CF0280936A
S1130FD0CE02C3CF319521953109C8CF86E084B9BB
S1130FE089E385B98FE387B980EC88B98CE08AB945
S1130FF083EF8BB90E949C0561E080E090E00E9441
S11310007B0F61E080E090E00E9413101092B20028
S113101083E08093B00087E08093B100E0E7F0E0E4
S113102080818160808382E090E00E94AB1081E047
S113103090E00E94AB108FE880937A0087E480935D
S11310407C007894A89599E288E10FB6F894A89565
S1131050809360000FBE909360000895FC0140816E
S1131060518157FD95C05093C3014093C201483E3E
S113107083E05807BCF089E090E09093C10180932D
S1131080C0019093BF018093BE01459B31C0809104
S1131090BE01806D88B95A9B76C08081918197FF8B
S11310A05A9808959A01453651050CF048C0ADECA4
S11310B0BCEC0E9490139695879596958795969586
S11310C087959093C1018093C0019C01220F331F27
S11310D0880F991F880F991F880F991F820F931FDC
S11310E0481B590B5093BF014093BE014599CFCF84
S11310F08091C001806E88B98091020190910301B2
S1131100079771F2E0916503F0916603EE0FFF1FFC
S1131110E65DFE4F808191819C012F7E232B19F087
S11311200E9709F0BDCF5A9937C08091C2019091B2
S1131130C3018436910508F0B4CF5A9A08953695C0
S1131140279536952795ABE7B4E10E9490139695C1
S113115087959093C1018093C0019A01ADECBCECDA
S11311600E949013AC015695479556954795569510
S113117047959A010E949013969587959695879521
S113118096958795A2CF8081918197FDD6CF0895BA
S113119051954195510967CF8091C2019091C30146
S11311A08436910508F47DCF5A987BCF98B188B1E5
S11311B090718072892B41F480915803806E88B9B4
S11311C05A9B05C05A98089588B1807C88B90895BF
S11311D04E9B14C08091BC019091BD010197C9F050
S11311E04F9920C08091BA019091BB0101969093D0
S11311F0BB018093BA010197D9F008958091BC0195
S11312009091BD0101969093BD018093BC0101971B
S113121039F781E080935B031092BD011092BC0109
S11312204F9BE0CF8091BA019091BB01019729F7C0
S113123081E080935A031092BB011092BA01089581
S1131240809102019091030120915B038630910506
S113125031F02223C1F01092600310925F03222325
S113126089F020915A03222369F08630910509F40C
S113127040C0079769F081E080935D0310925B039F
S113128010925A03089530915A033111E4CF08950E
S1131290E0916503F0916603EE0FFF1FE65DFE4FDC
S11312A0808191818C35910509F43DC08336910587
S11312B0A1F18A359105D1F183E090E09093030187
S11312C0809302019093680380936703F894E091FC
S11312D06503F0916603EE0FFF1FE65DFE4F80810C
S11312E091810E94881690939F0380939E03789423
S11312F0C5CF8091B0008F7D8093B00087E090E0EF
S11313009093030180930201909368038093670391
S11313101092640310926303B1CF0E94810581E0AF
S113132080935703ABCF0E940D04A8CF0E94BF0344
S1131330A5CF20917603309177032115310581F1F2
S1131340DC014D915C914A30510520F54091B80182
S11313505091B9014F5F5F4F5093B9014093B80169
S1131360E1E0F0E0F0935903E0935803DB01ED91E1
S1131370FC913A9778F12417350708F52A9A85E005
S113138090E090936803809367031092B9011092E0
S1131390B8010895FB01408151814A30510580F024
S11313A08091B8019091B901892B49F01092B9014B
S11313B01092B80110925903109258030895089599
S11313C04091B8015091B9014F5F5F4F5093B901FB
S11313D04093B801E2E0F0E0F0935903E09358033E
S11313E0DC018D919C910A9730F6FB0180819181FB
S11313F00A9708F683E090E090935903809358038A
S1131400BACF80915603882309F1809167039091A4
S11314106803892BD9F480915B03811104C0809106
S11314205A038823E9F184E090E090936803809361
S1131430670380917A0390917B0390936403809374
S1131440630310925B0310925A03089580915B0327
S1131450882389F08091B4008A3F41F18AEF809318
S1131460B4008091B00080628093B00081E08093EA
S11314705C0310925B0380915A03882389F0809166
S1131480B400873871F087E88093B4008091B0008D
S113149080628093B00081E080935C0310925A03D1
S11314A008958091B00085FDF6CFEDCF8091B00016
S11314B085FDDCCFD3CF80915B03882379F08091C5
S11314C06503909166038531910528F40196909304
S11314D066038093650310925B03089580915A0319
S11314E0882369F08091650390916603009729F041
S11314F00197909366038093650310925A030895AD
S113150080915D03811129C0E0916503F091660328
S1131510EE0FFF1FE65DFE4F0190F081E02DE532F6
S1131520F105B8F087E090E0909303018093020105
S11315309093680380936703109266031092650387
S113154010929F0310929E0310925B0310925A0311
S11315500895EC5CFF4F0C948A13F89460919E03F9
S113156070919F03E0916503F0916603EE0FFF1FF6
S1131570E65DFE4F808191810E948E1678941092D0
S11315809F0310929E0310925B0310925A0387E00C
S113159090E09093030180930201909368038093F9
S11315A0670310925D03089580915B038111BAC0B3
S11315B080915A03882341F280919E0390919F0366
S11315C0181619060CF0C0CF019790939F038093CF
S11315D09E0310925B0310925A03089580915B035B
S11315E0882361F080919E0390919F038336910537
S11315F02CF4019690939F0380939E0380915A0349
S1131600882309F4A1CF80919E0390919F03823097
S11316109105D4F699CF80915B03882349F2809198
S11316209E0390919F03873E23E092070CF655C0DA
S113163080915B03882309F4BBCF80919E03909132
S11316409F03833691050CF0B3CF47C080915B03B1
S1131650882309F4ADCF80919E0390919F038C332E
S113166091050CF0A5CF39C080915B03882309F460
S11316709FCF80919E0390919F03833091050CF03E
S113168097CF2BC080915B03882359F080919E03F0
S113169090919F0397FF05C0019690939F038093B9
S11316A09E0380915A03882309F44ECF80919E03B0
S11316B090919F038C3F2FEF92070CF445CF84CF7A
S11316C080915B03882309F473CF80919E039091EA
S11316D09F03853091050CF06BCF019690939F0387
S11316E080939E0365CF80915B03882361F0809192
S11316F09E0390919F03883C91052CF4019690934E
S11317009F0380939E0380915A03882309F41CCF7E
S113171080919E0390919F0389332FEF92070CF4DD
S113172013CF52CF80919E0390919F0318161906F0
S1131730A4F620915A03222309F406CF45CF299811
S11317408091B0008F7D8093B0002A9880916E00C4
S11317508E7F80936E0015BC80916F008E7F809386
S11317606F001092810084E690E0909301018093D1
S113177000011092CD011092CC011092CB01109275
S1131780CA011092C9011092C80161E080E090E0A2
S11317900E947B0F61E080E090E00E94131061E002
S11317A080E090E00E94230F1092D3021092D202A4
S11317B01092D1021092D0021092CF021092CE0257
S11317C0EEECF1E01192119282E0EE3CF807D1F7D1
S11317D080917A008F7B80937A0080916703909147
S11317E06803059741F01092680310926703109202
S11317F064031092630380E00895CF93DF9300D0D5
S113180000D000D0CDB7DEB71E821D821C821B82A1
S11318101A8219820E94EE0711E000E0C12CD12C3B
S1131820E12CF12C2224239432E0332E44E0842E44
S1131830912C56E0A52EB12C65E0662E712CA5C026
S11318404F995EC180910201909103018730910507
S113185009F46DC1039709F45BC180916103909110
S11318606203059750F480915703811106C080915B
S11318705F03909160034E9758F1109262031092A7
S113188061031092660310926503B0920301A09263
S113189002011092570380915603882309F402C170
S11318A0909268038092670380917A0390917B03FE
S11318B09093640380936303809158039091590338
S11318C0892B21F070926803609267030E949C0543
S11318D01899E0C080915603882309F4B8C1189977
S11318E029C285B1832585B9C114D10409F435C150
S11318F010E0E114F10409F496C116BC10928500BD
S113190010928400109271031092700310926F036E
S113191010926E03C114D10419F031E0C31AD10836
S1131920E114F10419F081E0E81AF10880916303ED
S113193090916403009759F0019790936403809306
S11319406303892B21F4109268031092670380913A
S113195051038111ACC080914E0390914F030597C0
S113196030F01092510310924F0310924E03809165
S1131970670390916803059709F4E1C110926B0322
S11319808091500381117CC0A895809155038823D0
S1131990D1F06091530370915403072E000C880B0F
S11319A0990B0E94031220E030E04AEF5FE30E94AB
S11319B08F126093B4017093B5018093B601909334
S11319C0B70110925503809169038823D9F080915F
S11319D06703909168038430910509F47FC18730CF
S11319E0910509F487C18330910509F495C1892BC8
S11319F039F4449902C0459B03C088B1807C88B9FE
S1131A001092690380916A03882371F180915603CF
S1131A10882329F080917A00806480937A000E9460
S1131A20E8080E942009809102019091030183300B
S1131A30910509F456C08630910509F43CC1079715
S1131A4009F442C18091610390916203892B11F0E2
S1131A504F996BC180915C03882321F04E9B02C097
S1131A604F9970C110926A0311110DC080916B03DC
S1131A708111E6CE10E080915003882309F484CFCD
S1131A800E94740681CF6CEA71E080EB91E00E94C1
S1131A907800ECCF189B55C08091560381114AC140
S1131AA010E038CF109268031092670305CF80913D
S1131AB04E0390914F03019690934F0380934E03EE
S1131AC020915203222309F44ACF20915603222362
S1131AD009F4E9C0002309F4E6C000E010925203BF
S1131AE03ECF20915E03222309F4D8C010926803EC
S1131AF010926703222520935E030E94800AA2CFDE
S1131B0080910201909103018730910509F0A2CEE2
S1131B10809161039091620320915F03309160038F
S1131B202F5F3F4F3093600320935F039ACE8091E1
S1131B306103909162030196909362038093610321
S1131B40EBCF80915603882309F4AACF85B183256E
S1131B5085B9C114D10409F0CBCE86B55090700379
S1131B60412C9201280F311DC901609186037091A7
S1131B7087030E94571380E090E00E940112209195
S1131B808C0330918D0340918E0350918F030E94FA
S1131B908F120E94D211DC01CB0160E00E94810708
S1131BA060E00E947B0F9E838D834091840050915E
S1131BB0850020916E0330916F03AFEFBFEF0E9459
S1131BC09013640F751F811D911D20918403309122
S1131BD0850340E050E00E946B13CA01B9010E94E2
S1131BE00312209188033091890340918A03509114
S1131BF08B030E948F120E94CB11DC01CB0160E0A9
S1131C000E9413109C838B831A821982809178031B
S1131C1090917903892B09F0A2C011E001E0E1144D
S1131C20F10409F06ACEBE016D5F7F4FCE010596C7
S1131C300E9499098091CA019091CB01009709F4FF
S1131C4089C001979093CB018093CA0156CE0E941C
S1131C5054010E945D01109259031092580390920E
S1131C6068038092670380917A0390917B03909339
S1131C706403809363032092560310926B03E090F5
S1131C809003F09091031E821D821C821B821A8293
S1131C90198210E08EE1C82ED12C77CE9093680380
S1131CA08093670327CF84E20E94C21080914E0381
S1131CB090914F0313CF0E94010A809102019091E9
S1131CC003018730910531F40E945B0A809102017F
S1131CD090910301039709F0B5CE0FCFCE01019681
S1131CE00E942E08809167039091680387309105C4
S1131CF009F079CE8091650390916603880F991F4E
S1131D00865D9E4F0E942E08809167039091680320
S1131D108330910509F06BCE8EE993E00E942E0882
S1131D20809167039091680362CE109262031092CF
S1131D30610390CE0E949F0B8093560304CF0E94B0
S1131D40D6081CCE8091B0008F7D8093B000109295
S1131D505C0388CECE0101960E946A01CECD0CEAC6
S1131D6011E020EB31E044EB51E0BE016D5F7F4FA9
S1131D70CE0105960E94BD0611E001E0BACD4F9256
S1131D805F926F927F92AF92BF92CF92DF92EF9267
S1131D90FF920F931F93CF93DF93FB01A080B18039
S1131DA0EC018C011395C12CD12C760121C0072E96
S1131DB0000C880B990B0E9403122B013C01C701F4
S1131DC0B6010E9401126B017C01A3019201C301BF
S1131DD0B2010E948F129B01AC01C701B6010E949F
S1131DE0ED100E94D2116B017C010C171D0751F0FC
S1131DF0699179916A197B0977FFD9CF71956195BA
S1131E007109D5CF27E096958795779567952A959B
S1131E10D1F70E9401120E9402139B01AC010E949F
S1131E20ED100E94D211CB01DF91CF911F910F9140
S1131E30FF90EF90DF90CF90BF90AF907F906F9026
S1131E405F904F9008950F931F936623C9F01092EB
S1131E50B2041092B3041092B4041092B504109218
S1131E60B1041092B004E0EBF3E01192119284E01B
S1131E70E03BF807D1F780E090E01F910F910895BF
S1131E80E091B004F091B104AC0160E070E0DF01D6
S1131E90AA0FBB1FA055BC4F2D913C911197421B1B
S1131EA0530B610971090091B2041091B30420919C
S1131EB0B4043091B504400F511F621F731F409347
S1131EC0B2045093B3046093B4047093B5048D9337
S1131ED09C933196EF77FF27F093B104E093B0041D
S1131EE037E076956795579547953A95D1F7CA01A6
S1131EF01F910F9108954F925F926F927F928F92EC
S1131F009F92AF92BF92CF92DF92EF92FF92CF93C4
S1131F10DF93EC01662309F457C0812C912C80E2F5
S1131F20A82E82E4B82E412C512C3201C12CD12C84
S1131F30E12C9FE3F92EBE01DD0F880B990B0E9463
S1131F400312A30192010E94EC10A70196010E94C2
S1131F508F12A30192010E94ED106B017C019B0181
S1131F60AC01C301B2010E94EC109F7726EA3BE961
S1131F7044EC5BE30E948F12A50194010E94ED10D2
S1131F806093AC037093AD038093AE039093AF035F
S1131F90C092A803D092A903E092AA03F092AB03E3
S1131FA0C701B6010E94CB11CB01DF91CF91FF9005
S1131FB0EF90DF90CF90BF90AF909F908F907F90E5
S1131FC06F905F904F9008958090AC039090AD0314
S1131FD0A090AE03B090AF0320E030E040EA52E4BA
S1131FE0C501B4010E94ED109B01AC01C501B4010F
S1131FF00E9459116B017C014090A8035090A903E1
S11320006090AA037090AB039B01AC0160E070E0A8
S113201080E89FE30E94EC10A50194010E948F12B6
S11320204B015C0188CF4F925F926F927F928F92A7
S11320309F92AF92BF92CF92DF92EF92FF92CF9393
S1132040DF93EC01662309F457C0812C912C80E2C4
S1132050A82E82E4B82E412C512C3201C12CD12C53
S1132060E12C9FE3F92EBE01DD0F880B990B0E9432
S11320700312A30192010E94EC10A70196010E9491
S11320808F12A30192010E94ED106B017C019B0150
S1132090AC01C301B2010E94EC109F7726EA3BE930
S11320A044EC5BE30E948F12A50194010E94ED10A1
S11320B06093A4037093A5038093A6039093A7034E
S11320C0C092A003D092A103E092A203F092A303D2
S11320D0C701B6010E94CB11CB01DF91CF91FF90D4
S11320E0EF90DF90CF90BF90AF909F908F907F90B4
S11320F06F905F904F9008958090A4039090A503F3
S1132100A090A603B090A70320E030E040EA52E498
S1132110C501B4010E94ED109B01AC01C501B401DD
S11321200E9459116B017C014090A0035090A103BF
S11321306090A2037090A3039B01AC0160E070E087
S113214080E89FE30E94EC10A50194010E948F1285
S11321504B015C0188CF009791F0019721F488E945
S11321608093C10008951092C10086E08093C2005C
S113217083E090E09093C5008093C400089510928A
S1132180C10008959091C00095FFFCCF8093C600D4
S11321900895FC012081222351F031969091C000D2
S11321A095FFFCCF2093C60021912111F7CF08950C
S11321B0FC0180E047E09191992369F0892728E0A8
S11321C030E004C0880F21503109A9F387FFFACF0A
S11321D0880F8427F8CF08955058BB27AA270E9458
S11321E004110C9455120E94471238F00E944E12AA
S11321F020F039F49F3F19F426F40C9444120EF4A1
S1132200E095E7FB0C943E12E92F0E94661258F306
S1132210BA17620773078407950720F079F4A6F5C7
S11322200C9488120EF4E0950B2EBA2FA02D0B01FE
S1132230B90190010C01CA01A0011124FF27591B07
S113224099F0593F50F4503E68F11A16F040A22F0D
S1132250232F342F4427585FF3CF4695379527957E
S1132260A795F0405395C9F77EF41F16BA0B620B7D
S1132270730B840BBAF09150A1F0FF0FBB1F661FC4
S1132280771F881FC2F70EC0BA0F621F731F841F07
S113229048F4879577956795B795F7959E3F08F02D
S11322A0B0CF9395880F08F09927EE0F97958795EF
S11322B008950E946D110C9455120E944E1258F00C
S11322C00E94471240F029F45F3F29F00C943E121B
S11322D051110C9489120C9444120E94661268F3F2
S11322E09923B1F3552391F3951B550BBB27AA27CB
S11322F062177307840738F09F5F5F4F220F331F05
S1132300441FAA1FA9F335D00E2E3AF0E0E832D0CC
S113231091505040E695001CCAF72BD0FE2F29D0CF
S1132320660F771F881FBB1F261737074807AB07A1
S1132330B0E809F0BB0B802DBF01FF2793585F4F16
S11323403AF09E3F510578F00C943E120C94891299
S11323505F3FE4F3983ED4F3869577956795B795F8
S1132360F7959F5FC9F7880F911D9695879597F903
S11323700895E1E0660F771F881FBB1F621773077C
S11323808407BA0720F0621B730B840BBA0BEE1F91
S113239088F7E09508950E94D2116894B1110C94C5
S11323A0891208950E946E1288F09F5798F0B92FF1
S11323B09927B751B0F0E1F0660F771F881F991F76
S11323C01AF0BA95C9F714C0B13091F00E9488127E
S11323D0B1E008950C948812672F782F8827B85F8E
S11323E039F0B93FCCF3869577956795B395D9F7CE
S11323F03EF490958095709561957F4F8F4F9F4FD8
S11324000895E89409C097FB3EF4909580957095E3
S113241061957F4F8F4F9F4F9923A9F0F92F96E92C
S1132420BB279395F695879577956795B795F111A1
S1132430F8CFFAF4BB0F11F460FF1BC06F5F7F4F3E
S11324408F4F9F4F16C0882311F096E911C0772350
S113245021F09EE8872F762F05C0662371F096E859
S1132460862F70E060E02AF09A95660F771F881F28
S1132470DAF7880F9695879597F9089597F99F67E6
S113248080E870E060E008959FEF80EC08950024F8
S11324900A941616170618060906089500240A94C5
S11324A012161306140605060895092E0394000C4B
S11324B011F4882352F0BB0F40F4BF2B11F460FFDA
S11324C004C06F5F7F4F8F4F9F4F089557FD905803
S11324D0440F551F59F05F3F71F04795880F97FBE4
S11324E0991F61F09F3F79F087950895121613069E
S11324F01406551FF2CF4695F1DF08C016161706CD
S11325001806991FF1CF8695710561050894089501
S1132510E894BB2766277727CB0197F908950E9493
S1132520A2120C9455120E94471238F00E944E12C7
S113253020F0952311F00C943E120C9444121124B3
S11325400C9489120E94661270F3959FC1F3950F43
S113255050E0551F629FF001729FBB27F00DB11D23
S1132560639FAA27F00DB11DAA1F649F6627B00DB3
S1132570A11D661F829F2227B00DA11D621F739F9C
S1132580B00DA11D621F839FA00D611D221F749FAA
S11325903327A00D611D231F849F600D211D822FF1
S11325A0762F6A2F11249F5750409AF0F1F0882318
S11325B04AF0EE0FFF1FBB1F661F771F881F915045
S11325C05040A9F79E3F510580F00C943E120C94A4
S11325D089125F3FE4F3983ED4F386957795679527
S11325E0B795F795E7959F5FC1F7FE2B880F911D6F
S11325F09695879597F9089519F416F40C94441256
S11326000C9442130E946E12B8F39923C9F3B6F3E3
S11326109F57550B87FF0E9450130024A0E640EA01
S1132620900180585695979528F4805C660F771F23
S1132630881F20F026173707480730F4621B730BF6
S1132640840B202931294A2BA69517940794202519
S113265031254A2758F7660F771F881F20F0261761
S11326603707480730F4620B730B840B200D311DC0
S1132670411DA09581F7B901842F9158880F969533
S1132680879508959F3F31F0915020F48795779571
S11326906795B795880F911D9695879597F9089535
S11326A091505040660F771F881FD2F70895AA1BD8
S11326B0BB1B51E107C0AA1FBB1FA617B70710F029
S11326C0A61BB70B881F991F5A95A9F7809590955B
S11326D0BC01CD010895052E97FB1EF400940E94C1
S11326E0821357FD07D00E949F1307FC03D04EF4BA
S11326F00C94821350954095309521953F4F4F4F40
S11327005F4F089590958095709561957F4F8F4F99
S11327109F4F0895EE0FFF1F0590F491E02D09944B
S1132720A29FB001B39FC001A39F700D811D11240E
S1132730911DB29F700D811D1124911D0895A1E278
S11327401A2EAA1BBB1BFD010DC0AA1FBB1FEE1F27
S1132750FF1FA217B307E407F50720F0A21BB30B72
S1132760E40BF50B661F771F881F991F1A9469F7EE
S113277060957095809590959B01AC01BD01CF014A
S11327800895FB01DC010D900020E9F711970190F9
S11327900D920020E1F70895FB01DC018D91019079
S11327A080190110D9F3990B0895AEE0B0E0EBED78
S11327B0F3E10C94C4160D891E8986E08C831A8378
S11327C009838FEF9FE79E838D83AE01475E5F4F42
S11327D06F89788DCE0101960E94F713EF81F885F9
S11327E0E00FF11F10822E96E4E00C94E016ABE0AB
S11327F0B0E0EDEFF3E10C94B6166C017B018A01B5
S1132800FC0117821682838181FFCCC1CE0101961F
S11328103C01F6019381F70193FD859193FF81912A
S11328207F01882309F4BAC1853239F493FD859177
S113283093FF81917F01853229F4B60190E00E94D3
S1132840EE15E7CF912C212C312CFFE1F315D8F0B4
S11328508B3279F038F4803279F08332A1F4232D6D
S113286020611DC08D3261F0803369F4232D216015
S113287016C0832D8260382EE32DE4603E2E2AC0DC
S1132880F32DF8601DC037FC2DC020ED280F2A3031
S113289040F08E32B9F436FC81C1232D2064322EEF
S11328A019C036FE06C08AE0989E200D1124922E8F
S11328B011C0EAE02E9E200D1124222EF32DF06289
S11328C03F2E08C08C3621F4832D8068382E02C038
S11328D0883641F4F70193FD859193FF81917F013F
S11328E08111B3CF982F9F7D9554933028F40C5FBA
S11328F01F4F9FE399830DC0833631F0833771F006
S1132900833509F059C021C0F801808189830E5FA5
S11329101F4F88248394912C530113C02801F2E0A3
S11329204F0E511CF801A080B18036FE03C0692D02
S113293070E002C06FEF7FEFC5010E94E3154C0108
S11329408201F32DFF773F2E16C0280122E0420EAC
S1132950511CF801A080B18036FE03C0692D70E0DF
S113296002C06FEF7FEFC5010E94D8154C01F32D13
S1132970F0683F2E820133FC1BC0822D90E0881644
S11329809906B0F4B60180E290E00E94EE152A9414
S1132990F4CFF50137FC859137FE81915F01B601D3
S11329A090E00E94EE1521102A9421E0821A9108E9
S11329B08114910471F7E8C0843611F0893641F529
S11329C0F80137FE07C060817181828193810C5FB9
S11329D01F4F08C060817181072E000C880B990B72
S11329E00E5F1F4FF32DFF763F2E97FF09C0909582
S11329F08095709561957F4F8F4F9F4FF0683F2E64
S1132A002AE030E0A3010E942A16882E861845C0C9
S1132A10853731F4232D2F7EB22E2AE030E025C0F5
S1132A20932D997FB92E8F36C1F018F4883579F03B
S1132A30B5C0803719F0883721F0B0C0E92FE061C4
S1132A40BE2EB4FE0DC0FB2DF460BF2E09C034FEB3
S1132A500AC0292F2660B22E06C028E030E005C047
S1132A6020E130E002C020E132E0F801B7FE07C007
S1132A7060817181828193810C5F1F4F06C06081E8
S1132A80718180E090E00E5F1F4FA3010E942A161F
S1132A90882E8618FB2DFF773F2E36FE0DC0232D82
S1132AA02E7FA22E891458F434FE0BC032FC09C0C8
S1132AB0832D8E7EA82E05C0B82CA32C03C0B82C61
S1132AC001C0B92CA4FE0FC0FE01E80DF11D8081E8
S1132AD0803321F49A2D997EA92E09C0A2FE06C046
S1132AE0B394B39404C08A2D867809F0B394A3FCFC
S1132AF011C0A0FE06C0B21488F4280C922C9B18B6
S1132B000EC0B21460F4B60180E290E00E94EE15AB
S1132B10B394F7CFB21418F42B1802C0982C212CBC
S1132B20A4FE10C0B60180E390E00E94EE15A2FE60
S1132B3017C0A1FC03C088E790E002C088E590E0DC
S1132B40B6010CC08A2D867859F0A1FE02C08BE232
S1132B5001C080E2A7FC8DE2B60190E00E94EE1570
S1132B60891438F4B60180E390E00E94EE159A943B
S1132B70F7CF8A94F301E80DF11D8081B60190E04E
S1132B800E94EE158110F5CF222009F442CEB60141
S1132B9080E290E00E94EE152A94F6CFF601868139
S1132BA0978102C08FEF9FEF2B96E2E10C94D2162F
S1132BB0FC010590615070400110D8F78095909504
S1132BC08E0F9F1F0895FC01615070400190011009
S1132BD0D8F7809590958E0F9F1F08950F931F939C
S1132BE0CF93DF93FB01238121FD03C08FEF9FEF80
S1132BF02CC022FF16C0468157812481358142179B
S1132C00530744F4A081B1819D012F5F3F4F31836D
S1132C1020838C93268137812F5F3F4F3783268310
S1132C2014C08B01EC01FB010084F185E02D0995B2
S1132C30892BE1F6D80116968D919C9117970196F0
S1132C4017969C938E931697CE01DF91CF911F9187
S1132C500F910895FA01AA27283051F1203181F10A
S1132C60E8946F936E7F6E5F7F4F8F4F9F4FAF4F90
S1132C70B1E03ED0B4E03CD0670F781F891F9A1FA3
S1132C80A11D680F791F8A1F911DA11D6A0F711D57
S1132C90811D911DA11D20D009F468943F912AE063
S1132CA0269F11243019305D3193DEF6CF0108954B
S1132CB0462F4770405D4193B3E00FD0C9F7F6CF7C
S1132CC0462F4F70405D4A3318F0495D31FD405244
S1132CD0419302D0A9F7EACFB4E0A69597958795DA
S1132CE077956795BA95C9F70097610571050895B9
S1132CF09B01AC010A2E0694579547953795279565
S1132D00BA95C9F7620F731F841F951FA01D0895FC
S1132D10A8E1B0E042E050E00C9496160196272F0B
S1132D200E94A5160C94A416DC01CB01FC01F999B0
S1132D30FECF06C0F2BDE1BDF89A319600B40D9203
S1132D4041505040B8F70895262FF999FECF92BD0F
S1132D5081BDF89A019700B4021639F01FBA20BD5C
S1132D600FB6F894FA9AF99A0FBE08952F923F92EB
S1132D704F925F926F927F928F929F92AF92BF9287
S1132D80CF92DF92EF92FF920F931F93CF93DF9333
S1132D90CDB7DEB7CA1BDB0B0FB6F894DEBF0FBE90
S1132DA0CDBF09942A88398848885F846E847D84DD
S1132DB08C849B84AA84B984C884DF80EE80FD80DF
S1132DC00C811B81AA81B981CE0FD11D0FB6F89455
S1112DD0DEBF0FBECDBFED010895F894FFCF16
S1132DDE64000600000000000500FBFF02003C003A
S1132DEE63000000000001000100500050000600C6
S1132DFE000000001E001E0063000000020004001C
S1132E0E060008000A000C000E0010001200140048
S1132E1E160018001A001C001E00200022002400B8
S1132E2E5A005C0063000D0A2564240D0A00252E49
S1132E3E3366240D0A00494E4954004F4B24005664
S1132E4E415253004D454D00494E49545F4552522F
S1132E5E4F52240024412564240050256424005438
S1132E6E252E30662400544D50252E3166240048FC
S10F2E7E252E3166240030782558000011
S9030000FC
