S016000045787465726E616C4465766963652E737265637B
S11300000C941B010C9438010C9438010C943801A5
S11300100C9438010C9438010C9438010C94380178
S11300200C9438010C9468010C9438010C94380138
S11300300C9438010C9451010C9438010C9438013F
S11300400C943A010C9438010C9438010C94380146
S11300500C9438010C94BD010C9438010C943801B3
S11300600C9438010C9438019F09D90AC309D90AA0
S1130070C309D90AE609D90A090AD90A2C0AD90AEC
S1130080960AD90A720AD90A720AD90A4F0AD90AEF
S11300904F0AD90A960AD90A960AD90A960AD90A97
S11300A0960AD90AB80AD90A960AD90A960AD90A1E
S11300B0960A07634236B79BD8A71A39685618AE12
S11300C0BAAB558C1D3CB7CC5763BD6DEDFD753E89
S11300D0F6177231BF000000803F08000000BE9296
S11300E02449123EABAAAA2ABECDCCCC4C3E000079
S11300F00080BEABAAAAAA3E00000000BF00000018
S1130100803F0000000000084178D3BB4387D1132F
S11301103D190E3CC3BD4282AD2B3E68EC8276BED7
S1130120D98FE1A93E4C80EFFFBE01C4FF7F3F00A1
S1130130000000006E616E00696E660000407A1077
S1130140F35A00A0724E18090010A5D4E80000E884
S11301507648170000E40B54020000CA9A3B0000E2
S113016000E1F505000080969800000040420F0071
S11301700000A08601000000102700000000E80332
S1130180000000006400000000000A0000000000FD
S11301900100000000002C76D888DC674F0823DFBC
S11301A0C1DFAE59E1B1B796E5E3E453C63AE6518F
S11301B0997696E8E6C28426EB898C9B62ED407CB6
S11301C06FFCEFBC9C9F40F2BAA56FA5F490055A52
S11301D02AF75C936B6CF9676DC11BFCE0E40D4777
S11301E0FEF520E6B500D0ED902E0300943577059A
S11301F00080841E080000204E0A000000C80C3352
S11302003333330F986E12831141EF8D2114893BE0
S1130210E65516CFFEE6DB18D1844B381BF77C1D60
S1130220901DA4BBE424203284725E228100C9F1B3
S113023024ECA1E53D2711241FBECFEFD8E0DEBF9B
S1130240CDBF11E0A0E0B1E0E6E4F7E302C0059021
S11302500D92AC3AB107D9F722E0ACEAB1E001C0A3
S11302601D92A236B207E1F70E94340B0C94A11B35
S11302700C9400001F920F920FB60F9211248F93CB
S11302809F9380912E0290912F02019690932F02BA
S113029080932E029F918F910F900FBE0F901F900D
S11302A018951F920F920FB60F9211248F939F935C
S11302B080912C0290912D02019690932D028093AF
S11302C02C029F918F910F900FBE0F901F90189545
S11302D01F920F920FB60F9211242F933F934F93B7
S11302E05F936F937F938F939F93AF93BF9340914B
S11302F02A0250912B024F5F5F4F50932B02409381
S11303002A0281E0809327029A01AFEAB7E40E94AF
S11303103518281B390B36952795820F931F929514
S113032082958F7089279F70892769E1689F900162
S1130330699F300D11244217530719F481E080930B
S113034028024D37510538F081E08093290210923C
S11303502B0210922A0283E88093B200BF91AF91DE
S11303609F918F917F916F915F914F913F912F91C9
S11303700F900FBE0F901F9018951F920F920FB6FB
S11303800F9211248F939F93EF93FF93EAE7F0E08A
S113039080818083809178009091790090931302FA
S11303A080931202FF91EF919F918F910F900FBE56
S11303B00F901F901895EF92FF920F931F93CF9376
S11303C0DF93CDB7DEB760970FB6F894DEBF0FBEEC
S11303D0CDBFFE01319680E1DF011D928A95E9F7D8
S11303E089E791E00E943F10F89400E010E021C0FA
S11303F0F801EE0FFF1FE05DFE4F808191810E94A6
S1130400731B9F938F9386E791E09F938F93CE0105
S113041001967C019F938F930E94F31AC7010E9457
S11304203F100F5F1F4F0F900F900F900F900F9082
S11304300F9003311105E4F2789460960FB6F894A6
S1130440DEBF0FBECDBFDF91CF911F910F91FF9003
S1130450EF900895CF92DF92EF92FF920F931F9344
S1130460CF93DF93CDB7DEB760970FB6F894DEBFB6
S11304700FBECDBF8E010F5F1F4F80E1F8011192B7
S11304808A95E9F780915B028F9380915A028F934A
S113049084E791E09F938F931F930F930E94F31A25
S11304A0C8010E943F10809159028F938091580295
S11304B08F930F2EF6E7EF2EF1E0FF2EF02DFF9233
S11304C0EF921F930F930E94F31AC8010E943F10EA
S11304D0809157028F93809156028F93FF92EF92EF
S11304E01F930F930E94F31AC8010E943F1080913A
S11304F055028F93809154028F93FF92EF921F9332
S11305000F930E94F31AC8010E943F108091530276
S11305108F93809152028F93FF92EF921F930F93C8
S11305200E94F31AC8010E943F10809151028F93D8
S1130530809150028F93FF92EF921F930F930E942A
S1130540F31A0FB6F894DEBF0FBECDBFC8010E94E8
S11305503F1080914F028F9380914E028F93FF92B0
S1130560EF921F930F930E94F31AC8010E943F1049
S113057080914D028F9380914C028F9380914B0216
S11305808F9380914A028F930F2EFCE7CF2EF1E0D8
S1130590DF2EF02DDF92CF921F930F930E94F31A58
S11305A0C8010E943F10809149028F9380914802B4
S11305B08F93809147028F93809146028F93DF92AD
S11305C0CF921F930F930E94F31AC8010E943F1009
S11305D0809145028F93809144028F93FF92EF9212
S11305E01F930F930E94F31AC8010E943F10809139
S11305F043028F93809142028F93FF92EF921F9355
S11306000F930E94F31A0FB6F894DEBF0FBECDBF4E
S1130610C8010E943F10809141028F938091400253
S11306208F93FF92EF921F930F930E94F31AC801C6
S11306300E943F1080913F028F9380913E028F93DE
S1130640FF92EF921F930F930E94F31AC8010E9426
S11306503F1080913D028F9380913C028F93809153
S11306603B028F9380913A028F93DF92CF921F9334
S11306700F930E94F31AC8010E943F10809139021F
S11306808F93809138028F93FF92EF921F930F9371
S11306900E94F31AC8010E943F10809137028F9381
S11306A0809136028F93FF92EF921F930F930E94D3
S11306B0F31A0FB6F894DEBF0FBECDBFC8010E9477
S11306C03F10809135028F93809134028F93FF9273
S11306D0EF921F930F930E94F31AC8010E943F10D8
S11306E0809133028F93809132028F93FF92EF9225
S11306F01F930F930E94F31AC8010E943F10809128
S113070031028F93809130028F93FF92EF921F9367
S11307100F930E94F31AC8010E943F100FB6F89479
S1130720DEBF0FBECDBF60960FB6F894DEBF0FBE1E
S1130730CDBFDF91CF911F910F91FF90EF90DF908C
S1130740CF900895CF93DF93F894C0E0D0E010C029
S1130750CE01880F991FFC01E65FFE4F6081718115
S1130760FC01E05DFE4F808191810E94791B2196FE
S1130770C331D1056CF37894DF91CF910895F89447
S113078080E090E00E94731B90935B0280935A0276
S113079082E090E00E94731B909359028093580268
S11307A084E090E00E94731B90935702809356025A
S11307B086E090E00E94731B90935502809354024C
S11307C088E090E00E94731B90935302809352023E
S11307D08AE090E00E94731B909351028093500230
S11307E08CE090E00E94731B90934F0280934E0222
S11307F08EE090E00E94731BBC0180E090E00E94B8
S1130800891120E030E04AE754E40E94E1109B01A2
S1130810AC0160E070E080E89FE30E946F10609399
S11308204A0270934B0280934C0290934D0280E1F4
S113083090E00E94731BBC0180E090E00E9489114B
S113084020E030E04AE754E40E94E1109B01AC014F
S113085060E070E080E89FE30E946F1060934602BE
S113086070934702809348029093490282E190E09A
S11308700E94731B909345028093440284E190E0AC
S11308800E94731B909343028093420286E190E09E
S11308900E94731B909341028093400288E190E090
S11308A00E94731B90933F0280933E028AE190E082
S11308B00E94731BBC0180E090E00E94891120E03B
S11308C030E04AE754E40E94E11060933A027093E6
S11308D03B0280933C0290933D028CE190E00E94A5
S11308E0731B90933902809338028EE190E00E944A
S11308F0731B909337028093360280E290E00E944B
S1130900731B909335028093340282E290E00E943C
S1130910731B909333028093320284E290E00E942E
S1130920731B909331028093300278940895AF92B0
S1130930BF92CF92DF92EF92FF920F931F93CF93C8
S1130940DF935B016A017901FC0121812F9380818E
S11309508F9384E891E09F938F93C2E0D2E0DF937A
S1130960CF930E94F31ABE0182EC91E00E94A11A77
S1130970F50181818F9380818F938AE891E09F9321
S11309808F93DF93CF930E94F31ABE0182EC91E020
S11309900E94A11AF60183818F9382818F938181B2
S11309A08F9380818F938FE891E09F938F93DF9350
S11309B0CF930E94F31ABE0182EC91E00E94A11A27
S11309C0F70183818F9382818F9381818F938081BB
S11309D08F9386E991E09F938F93DF93CF930E9447
S11309E0F31ABE0182EC91E00E94A11AF8018381FE
S11309F08F9382818F9381818F9380818F938FE9ED
S1130A0091E09F938F93DF93CF930E94F31AEDB7F6
S1130A10FEB7B4960FB6F894FEBF0FBEEDBFBE018D
S1130A2082EC91E00E94A11A82EC91E00E945510A0
S1130A301F928F9386EA91E09F938F93DF93CF93D6
S1130A400E94F31ABE0182EC91E00E94A11AC2EC4A
S1130A50D1E0FE0101900020E9F731978DE09AE0A2
S1130A60918380831282CE010E943F1080E4FE01B4
S1130A7011928A95E9F70F900F900F900F900F90B5
S1130A800F90DF91CF911F910F91FF90EF90DF9026
S1130A90CF90BF90AF90089586E084B989E385B97B
S1130AA08FE387B980EC88B98CE08AB983EF8BB97E
S1130AB00E94A2030E94BF0381E00E94BB0D82E05A
S1130AC090E00E94211081E090E00E94211082E0D9
S1130AD090E00E94D30D7894A89599E288E10FB62E
S1130AE0F894A895809360000FBE909360000895D9
S1130AF0662399F084E690E09093070180930601C1
S1130B001092C1011092C0011092BF011092BE0157
S1130B101092BD011092BC0108952091BE01309144
S1130B20BF012115310539F0215031093093BF013E
S1130B302093BE010895FC0120813181C901332332
S1130B4024F488279927821B930B409158025091D3
S1130B50590248175907A4F18091060190910701A1
S1130B608436910509F43EC18091BC019091BD0188
S1130B70892B21F01092BD011092BC018091BA0121
S1130B809091BB01892B21F01092BB011092BA0104
S1130B90E0EBF0E080818F7D808384E690E09093A9
S1130BA00701809306011092C1011092C001809147
S1130BB05002909151029093BF018093BE01089519
S1130BC04091C0015091C10141155105B9F0415006
S1130BD051095093C1014093C001452B09F002C152
S1130BE0E0EBF0E080818F7D8083809150029091D2
S1130BF051029093BF018093BE0108954091160263
S1130C0050911702415051094330510508F4EAC08C
S1130C10409132025091330241155105C9F160915E
S1130C20560270915702261737073CF4609154021C
S1130C3070915502621773075CF16091060170911F
S1130C4007016436710529F49093B9018093B801C2
S1130C501FC06091B8017091B901681B790B6F3F97
S1130C60FFEF7F076CF06230710554F48091BA0194
S1130C709091BB0101969093BB018093BA0108C087
S1130C801092BB011092BA019093B9018093B801FC
S1130C908091BA019091BB0148175907A0F485E0EF
S1130CA090E0909326028093250284E090E0909354
S1130CB01702809316021092BB011092BA0185B1FB
S1130CC0846085B908958091520290915302892BD2
S1130CD009F46CC080915602909157022817390785
S1130CE054F4121613066CF58091060190910701D5
S1130CF08436910531F18AEF8093B4008AEF90E055
S1130D009093070180930601809130029091310203
S1130D10892B49F08091BC019091BD01019690937B
S1130D20BD018093BC018091520290915302909333
S1130D30C1018093C001E0EBF0E080818062808398
S1130D4008958091540290915502821793074CF4B0
S1130D50332364F58091060190910701843691054F
S1130D6029F187E88093B40087E890E09093070125
S1130D70809306018091300290913102892B49F0D1
S1130D808091BC019091BD0101969093BD01809327
S1130D90BC0180915202909153029093C1018093BF
S1130DA0C001E0EBF0E08081806280832091BC018F
S1130DB03091BD01809130029091310282179307E6
S1130DC088F485E090E09093260280932502909326
S1130DD01702809316021092BD011092BC0185B1D6
S1130DE0846085B90895CF93DF93FC01808191815C
S1130DF099231CF4919581959109AC019093B701C5
S1130E008093B601883E23E0920758F089E090E091
S1130E109093B5018093B4019093B3018093B20190
S1130E205BC085369105B8F19C01369527953695BA
S1130E302795ABE7B4E10E94351896958795909372
S1130E40B5018093B4019A01ADECBCEC0E94351855
S1130E50AC015695479556954795569547959A01F1
S1130E600E943518969587959695879596958795BA
S1130E709C01220F331F880F991F880F991F880F19
S1130E80991F820F931F9A01281B390B3093B301CA
S1130E902093B20121C09C01ADECBCEC0E9435183A
S1130EA0EC01D695C795D695C795D695C795D09399
S1130EB0B501C093B401CE01880F991FCC0FDD1F7B
S1130EC0CC0FDD1FCC0FDD1FC80FD91F4C1B5D0BD2
S1130ED05093B3014093B201459B17C08091B20176
S1130EE0806D88B95A9B09C08081918199230CF443
S1130EF046C08BB18B7F8BB942C08081918199238D
S1130F00F4F58BB184608BB93AC08091B401806EE2
S1130F1088B98091080190910901079721F48BB158
S1130F208B7F8BB92CC0E0912302F0912402EE0F49
S1130F30FF1FE05DFE4F80819181009729F08E3084
S1130F40910511F04097C1F45A9B0BC08091B601F2
S1130F509091B7018436910590F08BB18B7F8BB95A
S1130F600EC08091B6019091B7018436910538F492
S1130F708BB184608BB903C08BB18B7F8BB9DF914C
S1130F80CF91089598B188B190718072892B51F4F2
S1130F9080911602806E88B95A9B07C08BB18B7FF3
S1130FA08BB9089588B1807C88B908954E9909C099
S1130FB08091B0019091B10101969093B101809319
S1130FC0B0018091B0019091B101019739F481E0B1
S1130FD0809319021092B1011092B0014F9909C087
S1130FE08091AE019091AF0101969093AF018093EF
S1130FF0AE018091AE019091AF01019739F481E087
S1131000809318021092AF011092AE01089580915E
S11310100801909109018630910561F0209119022F
S1131020211104C020911802222321F010921E02E3
S113103010921D0220911902222309F463C0209109
S11310401802222309F45EC086309105A1F4E0EB76
S1131050F0E080818F7D808387E090E090930901A8
S11310608093080190932602809325021092220215
S11310701092210243C0079709F03DC0E09123027A
S1131080F0912402EE0FFF1FE05DFE4F80819181FD
S11310908C35910581F08336910521F08A359105CF
S11310A069F406C00E94A20381E08093150226C061
S11310B00E94DB0123C00E942A0220C083E090E04A
S11310C0909309018093080190932602809325024E
S11310D0F894E0912302F0912402EE0FFF1FE05DEB
S11310E0FE4F808191810E94731B90935D028093D7
S11310F05C02789403C081E080931B021092190271
S1131100109218020895209134023091350221156D
S1131110310509F44AC0DC01ED91FC91EA30F10596
S113112030F0DB014D915C914A305105F0F540916E
S1131130AC015091AD014F5F5F4F5093AD014093AF
S1131140AC013A9730F4E1E0F0E0F0931702E09359
S11311501602DB01ED91FC913A9730F4E2E0F0E005
S1131160F0931702E0931602FC01808191810A97A3
S113117058F4DB018D919C910A9730F483E090E060
S1131180909317028093160224173507E0F485B173
S1131190846085B985E090E09093260280932502CF
S11311A01092AD011092AC0108958091AC01909120
S11311B0AD01892B41F01092AD011092AC01109257
S11311C0170210921602089580911402882309F1DF
S11311D08091250290912602892BD9F480911902DD
S11311E0811104C080911802882399F084E090E072
S11311F090932602809325028091380290913902BF
S113120090932202809321021092190210921802E4
S11312100895809119028823A9F08091B4008A3F2F
S113122021F48091B00085FD08C08AEF8093B4005A
S1131230E0EBF0E080818062808381E080931A0299
S113124010921902809118028823A9F08091B400A9
S1131250873821F48091B00085FD08C087E8809329
S1131260B400E0EBF0E080818062808381E08093D1
S11312701A0210921802089580911902882379F0B5
S113128080912302909124028531910528F40196DE
S1131290909324028093230210921902089580915E
S11312A01802882369F08091230290912402009708
S11312B029F001979093240280932302109218023C
S11312C0089580911B02882339F1F894E091230258
S11312D0F0912402EE0FFF1FE05DFE4F60915C026F
S11312E070915D02808191810E94791B78941092A3
S11312F05D0210925C02109219021092180287E0AB
S113130090E09093090180930801909326028093C2
S1131310250210921B020895E0912302F091240209
S1131320EE0FFF1FE05DFE4F0190F081E02DE532EE
S1131330F10508F03EC1EC5CFF4F0C942F1880912E
S11313401902882361F080915C0290915D02883CCF
S113135091052CF4019690935D0280935C02809138
S11313601802882309F437C180915C0290915D02D0
S113137089332FEF92070CF42EC1019790935D02ED
S113138080935C0228C180911902882361F08091C6
S11313905C0290915D02853091052CF40196909346
S11313A05D0280935C0280911802882309F413C1C2
S11313B080915C0290915D02181619060CF00BC125
S11313C0019790935D0280935C0205C1809119029C
S11313D0882359F080915C0290915D0299232CF44A
S11313E0019690935D0280935C0280911802882399
S11313F009F4F1C080915C0290915D028C3F2FEF63
S113140092070CF4E8C0019790935D0280935C020C
S1131410E2C080911902882361F080915C0290916E
S11314205D02833091052CF4019690935D028093C4
S11314305C0280911802882309F4CDC080915C027B
S113144090915D02181619060CF0C5C0019790938F
S11314505D0280935C02BFC080911902882361F011
S113146080915C0290915D028C3391052CF401967D
S113147090935D0280935C0280911802882309F4A2
S1131480AAC080915C0290915D02181619060CF0B6
S1131490A2C0019790935D0280935C029CC08091EE
S11314A01902882361F080915C0290915D02833679
S11314B091052CF4019690935D0280935C028091D7
S11314C01802882309F487C080915C0290915D0220
S11314D0823091050CF47FC0019790935D02809354
S11314E05C0279C080911902882369F080915C02C2
S11314F090915D02873E23E092072CF4019690932D
S11315005D0280935C0280911802882309F463C011
S113151080915C0290915D02181619060CF05BC074
S1131520019790935D0280935C0255C080911902EB
S1131530882361F080915C0290915D02833691056D
S11315402CF4019690935D0280935C0280911802C2
S1131550882309F440C080915C0290915D021816C2
S11315601906CCF5019790935D0280935C0233C019
S113157080911902882361F080915C0290915D0250
S1131580181619062CF0019690935D0280935C0264
S1131590809118028823F9F080915C0290915D0299
S11315A018161906C4F4019790935D0280935C02A7
S11315B012C087E090E09093090180930801909312
S11315C02602809325021092240210922302109284
S11315D05D0210925C021092190210921802089592
S11315E081E00E94920D81E00E94A40D10921702E6
S11315F01092160284E090E09093260280932502D4
S113160080913802909139029093220280932102B2
S113161081E0089585B18D7F85B9E0EBF0E08081AC
S11316208F7D808385B18B7F85B980E00E94920D88
S113163080E00E94A40D61E080E090E00E947805C3
S113164080E090E00E94D30D8091250290912602C3
S1131650059741F010922602109225021092220260
S11316601092210280E00895CF93DF93CDB7DEB7C7
S1131670C655D1090FB6F894DEBF0FBECDBF19828F
S11316801A821B821C821D821E821F821886198662
S11316901A861B861C861E861D86188A1F861A8A31
S11316A0198A1B8A1C8A1D8A1E8A188E1F8A00E8C2
S11316B010E01A8F098F80E092E00E949D189C8FA1
S11316C08B8F1D8E1E8E1F8E18A21AA219A21CA308
S11316D00BA380E092E00E949D189EA38DA388E155
S11316E0ECE5F1E0DE01979601900D928A95E1F721
S11316F088E1ECE5F1E0DE01DF9601900D928A9538
S1131700E1F70E944C0511E0C12CD12CE12CF12C05
S113171080912702882399F18091250290912602D5
S1131720049721F4CE0141960E94F306809125028C
S113173090912602079751F48091230290912402FC
S1131740880F991F805D9E4F0E94F30680912502A9
S113175090912602039721F48CE592E00E94F3060F
S11317608091250290912602892B39F4449902C074
S1131770459B03C088B1807C88B910922702809170
S11317802802882309F457C080911402882321F089
S113179081E090E00E94D30D0E94D6070E940708C2
S11317A080910801909109018330910599F4309159
S11317B01C02332329F0109226021092250206C03F
S11317C043E050E0509326024093250221E0232772
S11317D020931C02069711F40E94E40880910801EA
S11317E090910901079711F40E943C098091080126
S11317F090910901039711F40E94610980911F02DD
S113180090912002892B31F04F9B04C0109220024A
S113181010921F0280911A02882359F04E9B09C02E
S11318204F9B07C0E0EBF0E080818F7D80831092B6
S11318301A0210922802111110E0809129028823C3
S113184009F46EC14F990FC080910801909109016C
S1131850079749F480911F0290912002019690937A
S1131860200280931F028091080190910901873022
S1131870910511F0039749F480911D0290911E0285
S1131880019690931E0280931D0280911F029091F5
S11318902002059750F480911502811106C08091B1
S11318A01D0290911E024E97A8F1109220021092F0
S11318B01F02109224021092230286E090E090937B
S11318C00901809308011092150280911402882363
S11318D079F084E090E09093260280932502809131
S11318E0380290913902909322028093210204C01D
S11318F010922602109225028091160290911702EE
S1131900892B31F085E090E09093260280932502A4
S11319100E94BF0318991AC080911402811116C045
S11319200E94F00A8093140210922902E0904E0261
S1131930F0904F021E861D86188A1F861A8A198AFD
S11319400F2EF3E0CF2ED12CF02DE2CE189B23C026
S1131950809114028823F9F00E940A0B80931402E8
S113196021E0AE01495D5F4F60E070E0CB010E9471
S1131970AD0E21E0AE01415C5F4F60E070E0CB0151
S11319800E94AD0E21E0AE014D5E5F4F60E070E05D
S1131990CB010E94680F80911402882309F499C036
S11319A095B182E0892785B9C114D10409F075C0C5
S11319B086B5B0902E02A12C9501280F311DC901C6
S11319C060914402709145020E94FC1780E090E00F
S11319D00E94891120914A0230914B0240914C029D
S11319E050914D020E94401220E0AE014D5E5F4FC7
S11319F00E94680F0E945A117E876D87409184006F
S1131A005091850020912C0230912D02AFEFBFEF51
S1131A100E943518640F751F811D911D209142028B
S1131A203091430240E050E00E941018CA01B9010D
S1131A300E948B1120914602309147024091480246
S1131A40509149020E9440120E945A11788B6F876C
S1131A501A8A198A609112027091130280E090E050
S1131A600E94891120E030E04AEF5FE30E944012B7
S1131A7069877A878B879C878E010B5F1F4F9E0136
S1131A802F5F3F4FAE01475F5F4FBE01615F7F4FE6
S1131A90CE010D960E94970411E0E114F10461F463
S1131AA0BE01615F7F4FCE010D960E94830860E006
S1131AB0CE0141960E94780516BC109285001092C2
S1131AC0840010922F0210922E0210922D02109276
S1131AD02C02C114D10419F031E0C31AD108E11465
S1131AE0F10419F081E0E81AF10880912102909143
S1131AF02202009759F001979093220280932102C9
S1131B00892B21F41092260210922502809125023D
S1131B1090912602059711F40E94C207109229029F
S1131B20A895F6CD882349F087E085BDEEE6F0E080
S1131B3080818160808316BC0895EEE6F0E08081A8
S1131B408E7F808315BC0895882369F087E0809395
S1131B508100EFE6F0E0808181608083109285004F
S1131B60109284000895EFE6F0E080818E7F8083F8
S1131B701092810008951092B200882361F083E0EE
S1131B808093B00087E08093B100E0E7F0E08081CB
S1131B908160808308951092B100E0E7F0E08081D5
S1131BA08E7F80830895009741F0019761F4EAE7FE
S1131BB0F0E08081806480830895EAE7F0E080812A
S1131BC08F7B808308958FE880937A0087E48093E5
S1131BD07C0008958F929F92AF92BF92EF92FF92F2
S1131BE00F931F93CF93DF937C018B01C0E0D0E070
S1131BF0812C912C540130C0FE01EE0FFF1FEE0F1B
S1131C00FF1FEE0DFF1D6081718182819381F801B8
S1131C1020813181428153810E946F100E945311AF
S1131C209B01772324F422273327261B370BB90182
S1131C30330F880B990B0E948B1120E030E040E0B9
S1131C4050E40E94AD129B01AC01C501B4010E9495
S1131C5070104B015C012196C038D1056CF220E074
S1131C6030E040E05CE3C501B4010E9440120E94F0
S1131C7003139B01AC010E947010DF91CF911F915F
S1131C800F91FF90EF90BF90AF909F908F90089529
S1131C90CF92DF92EF92FF920F931F93CF93DF9334
S1131CA06B017C01EA01222381F0188219821A82D5
S1131CB01B821D821C828E819F81880F991F880F31
S1131CC0991F0E949D1899878887888599850C811A
S1131CD01D81000F111F000F111F080F191FF8019C
S1131CE02081318142815381C701B6010E946F1066
S1131CF09B01AC01688179818A819B810E9470106B
S1131D00688379838A839B83F801C082D182E282CB
S1131D10F3828C819D8101962E813F81B9010E94BD
S1131D20FC179D838C83B90180E090E00E948911A7
S1131D309B01AC01688179818A819B810E94E110B9
S1131D40688379838A839B83DF91CF911F910F915D
S1131D50FF90EF90DF90CF9008954F925F926F9233
S1131D607F928F929F92AF92BF92CF92DF92EF9227
S1131D70FF92CF93DF9300D000D000D0CDB7DEB771
S1131D802B013C015E834D832223B1F0FA0180894B
S1131D909189A289B38984839583A683B7831082AA
S1131DA0118212821382FA0110861186128613861A
S1131DB01486158616861786ED81FE81C480D5802B
S1131DC0E680F7802089318942895389C701B601A9
S1131DD00E9470109B01AC01C701B6010E94E11082
S1131DE04B015C01AD81BE811C966D937D938D93F7
S1131DF09C931F9718968D919D910D90BC91A02D49
S1131E0089839A83AB83BC839C01AD01C301B20176
S1131E100E946F109B01AC01C501B4010E944012E5
S1131E209B01AC0169817A818B819C810E94701035
S1131E302B013C01ED81FE81608371838283938356
S1131E40A501940160E070E080E89FE30E946F10B8
S1131E509B01AC01C701B6010E9440126B017C01D9
S1131E60A301920169817A818B819C810E946F1008
S1131E709F77AD81BE8154962D913D914D915C919A
S1131E8057970E9440129B01AC01C701B6010E9402
S1131E907010ED81FE816483758386839783408609
S1131EA051866286738626960FB6F894DEBF0FBEFF
S1131EB0CDBFDF91CF91FF90EF90DF90CF90BF9097
S1131EC0AF909F908F907F906F905F904F90089508
S1131ED0AF92BF92CF92DF92EF92FF920F931F9334
S1131EE0CF93DF93A62EB72EC82ED92EEA01222334
S1131EF0F9F01D821C82188219821A821B828E813B
S1131F009F81880F991F880F991F0E949D18998798
S1131F108887AE01465F5F4F21E06A2D7B2D8C2DB3
S1131F209D2D0E94480EE12CF12C00E010E07AC0B7
S1131F308C819D812E813F818217930708F5E88566
S1131F40F9859C012F5F3F4F3D832C83880F991F98
S1131F50880F991FE80FF91F862F972FAC2DBD2DE1
S1131F6080839183A283B383465F5F4F20E08C2DEF
S1131F709D2D0E94480EEA2CFB2C0C2D1D2D52C0C9
S1131F80688179818A819B8120E030E0A9010E94E7
S1131F90DC10811114C020E08E01065F1F4FA801E0
S1131FA06A2D7B2D8C2D9D2D0E94480EB8018885AD
S1131FB099850E94EA0D688379838A839B83EA84E6
S1131FC0FB840C851D852A2D3B2D4C2D5D2D6E2DFE
S1131FD07F2D802F912F0E946F100E9453119B011F
S1131FE0772324F422273327261B370BB901330F19
S1131FF0880B990B0E948B11288139814A815B815E
S11320000E943B12181674F0AE01465F5F4F20E049
S11320106A2D7B2D8C2D9D2D0E94480EEA2CFB2CC5
S11320200C2D1D2D6E2D7F2D802F912FDF91CF91A3
S11320301F910F91FF90EF90DF90CF90BF90AF90E2
S11320400895009731F0019739F488E08093C10036
S113205008951092C10008951092C10086E0809303
S1132060C20083E090E09093C5008093C40008957B
S11320709091C00095FFFCCF8093C60008950F9304
S11320801F93CF93DF938C01C0E0D0E003C00E9484
S113209038102196F801EC0FFD1F80818111F7CFD4
S11320A0DF91CF911F910F910895FC0180E013C03F
S11320B03196892720E030E00BC0882334F490E087
S11320C0880F991F97E0892701C0880F2F5F3F4F22
S11320D02830310590F390819111EACF089550583A
S11320E0BB27AA270E9487100C9401120E94F311A7
S11320F038F00E94FA1120F039F49F3F19F426F4C5
S11321000C94F0110EF4E095E7FB0C94EA11E92F1E
S11321100E94121258F3BA176207730784079507CF
S113212020F079F4A6F50C9434120EF4E0950B2EFD
S1132130BA2FA02D0B01B90190010C01CA01A00115
S11321401124FF27591B99F0593F50F4503E68F170
S11321501A16F040A22F232F342F4427585FF3CFB1
S1132160469537952795A795F0405395C9F77EF482
S11321701F16BA0B620B730B840BBAF09150A1F0CB
S1132180FF0FBB1F661F771F881FC2F70EC0BA0F51
S1132190621F731F841F48F4879577956795B795D9
S11321A0F7959E3F08F0B0CF9395880F08F09927D4
S11321B0EE0F9795879508950E94C61108F481E063
S11321C008950E94F5100C9401120E94FA1158F01F
S11321D00E94F31140F029F45F3F29F00C94EA11B6
S11321E051110C9435120C94F0110E94121268F3E0
S11321F09923B1F3552391F3951B550BBB27AA27BC
S113220062177307840738F09F5F5F4F220F331FF5
S1132210441FAA1FA9F335D00E2E3AF0E0E832D0BD
S113222091505040E695001CCAF72BD0FE2F29D0C0
S1132230660F771F881FBB1F261737074807AB0792
S1132240B0E809F0BB0B802DBF01FF2793585F4F07
S11322503AF09E3F510578F00C94EA110C94351233
S11322605F3FE4F3983ED4F3869577956795B795E9
S1132270F7959F5FC9F7880F911D9695879597F9F4
S11322800895E1E0660F771F881FBB1F621773076D
S11322908407BA0720F0621B730B840BBA0BEE1F82
S11322A088F7E09508950E945A116894B1110C942E
S11322B0351208950E941A1288F09F5798F0B92F8A
S11322C09927B751B0F0E1F0660F771F881F991F67
S11322D01AF0BA95C9F714C0B13091F00E943412C3
S11322E0B1E008950C943412672F782F8827B85FD3
S11322F039F0B93FCCF3869577956795B395D9F7BF
S11323003EF490958095709561957F4F8F4F9F4FC8
S11323100895E89409C097FB3EF4909580957095D4
S113232061957F4F8F4F9F4F9923A9F0F92F96E91D
S1132330BB279395F695879577956795B795F11192
S1132340F8CFFAF4BB0F11F460FF1BC06F5F7F4F2F
S11323508F4F9F4F16C0882311F096E911C0772341
S113236021F09EE8872F762F05C0662371F096E84A
S1132370862F70E060E02AF09A95660F771F881F19
S1132380DAF7880F9695879597F90895990F0008BD
S1132390550FAA0BE0E8FEEF16161706E807F90733
S11323A0C0F012161306E407F50798F0621B730BCE
S11323B0840B950B39F40A2661F0232B242B252B4F
S11323C021F408950A2609F4A140A6958FEF811DF2
S11323D0811D089597F99F6780E870E060E0089593
S11323E09FEF80EC089500240A9416161706180629
S11323F00906089500240A94121613061406050605
S11324000895092E0394000C11F4882352F0BB0F95
S113241040F4BF2B11F460FF04C06F5F7F4F8F4FF8
S11324209F4F089557FD9058440F551F59F05F3F33
S113243071F04795880F97FB991F61F09F3F79F0E2
S113244087950895121613061406551FF2CF469564
S1132450F1DF08C0161617061806991FF1CF8695E6
S11324607105610508940895E894BB2766277727CA
S1132470CB0197F908950E94C61108F48FEF0895CF
S11324800E9453120C9401120E94F31138F00E941E
S1132490FA1120F0952311F00C94EA110C94F01128
S11324A011240C9435120E94121270F3959FC1F3FB
S11324B0950F50E0551F629FF001729FBB27F00DEE
S11324C0B11D639FAA27F00DB11DAA1F649F662743
S11324D0B00DA11D661F829F2227B00DA11D621F92
S11324E0739FB00DA11D621F839FA00D611D221F4C
S11324F0749F3327A00D611D231F849F600D211D30
S1132500822F762F6A2F11249F5750409AF0F1F0B2
S113251088234AF0EE0FFF1FBB1F661F771F881F1B
S113252091505040A9F79E3F510580F00C94EA1158
S11325300C9435125F3FE4F3983ED4F38695779577
S11325406795B795F795E7959F5FC1F7FE2B880FC1
S1132550911D9695879597F90895FA01EE0FFF1F3F
S1132560309621053105A1F16115710561F48038BA
S1132570BFE39B0749F168949038810561F0803886
S1132580BFEF9B0741F099234AF5FF3FE105310571
S1132590210519F1E8940894E795D901AA2329F4AF
S11325A0AB2FBE2FF85FD0F310C0FF5F70F4A69579
S11325B0E0F7F73950F019F0FF3A38F49F779F931A
S11325C00DD00F9007FC9058089546F00C94F0112C
S11325D060E070E080E89FE308954FE79F775F93A2
S11325E04F933F932F930E9403142F913F914F9148
S11325F05F910E9440120C944B1319F416F40C943E
S1132600F0110C947D130E941A12B8F39923C9F3A4
S1132610B6F39F57550B87FF0E948B130024A0E647
S113262040EA900180585695979528F4805C660F8F
S1132630771F881F20F026173707480730F4621BDE
S1132640730B840B202931294A2BA69517940794E0
S1132650202531254A2758F7660F771F881F20F059
S113266026173707480730F4620B730B840B200DD1
S1132670311D411DA09581F7B901842F9158880F10
S113268096958795089529F416F00C94EA110C9404
S113269034120C94F0110E941A12A8F39638A0F781
S11326A007F80F92E8942BE33AEA48EB5FE70E94BD
S11326B056120F920F920F924DB75EB70F920E946F
S11326C04B14E2EBF0E00E9492134F915F91EF9173
S11326D0FF91E595EE1FFF1F49F0FE57E068442780
S11326E0EE0F441FFA95E1F74195550B0E94C5136F
S11326F00F9007FE0C94B91308959F3F31F0915049
S113270020F4879577956795B795880F911D9695D1
S1132710879597F9089591505040660F771F881F49
S1132720D2F70895DF93CF931F930F93FF92EF9205
S1132730DF927B018C01689406C0DA2EEF010E94BF
S11327405312FE01E894A591259135914591559137
S1132750A6F3EF010E948710FE019701A801DA9405
S113276069F7DF90EF90FF900F911F91CF91DF9168
S113277008959B01AC0160E070E080E89FE30C9455
S1132780E1100C94EA110C947D130E941A12D8F3F0
S11327909923C9F3940F511DA3F39150504094F021
S11327A059F0882332F0660F771F881F91505040EC
S11327B0C1F79E3F51052CF7880F911D969587957B
S11327C097F908955F3FACF0983E9CF0BB2786953F
S11327D077956795B79508F4B1609395C1F7BB0FEA
S11327E058F711F460FFE8CF6F5F7F4F8F4F9F4F13
S11327F0E3CF0C94351216F00C947D130C94F01165
S113280068940C94EA110E941A12A8F39923C1F354
S1132810AEF3DF93CF931F930F93FF92C92FDD275E
S113282088232AF02197660F771F881FDAF720E0A4
S113283030E040E85FEB9FE3883920F0803E38F0D9
S113284021968F770E947010EAEDF0E004C00E9498
S11328507010E7E0F1E00E9492138B01BE01EC01DD
S1132860FB2E6F5771097595771F880B990B0E9482
S11328708B1128E132E741E35FE30E945312AF2D4D
S11328809801AE01FF900F911F91CF91DF910E94AB
S113289087100C940112FA01DC01AA0FBB1F9B01E3
S11328A0AC01BF5728F4222733274427507820C08F
S11328B0B75190F4AB2F0024469537952795011C0A
S11328C0A395D2F3002071F0220F331F441FB39558
S11328D0DAF30ED00C946F1061307105A0E88A070A
S11328E0B94630F49B01AC01662777278827907896
S11328F0309621F020833183428353830895A0E1ED
S1132900B0E0E5E8F4E10C9444187C011B016A0191
S1132910FC0117821682838181FF44C39E012F5FCD
S11329203F4F3901F7019381F10193FD859193FFA5
S113293081911F01882309F431C3853239F493FD51
S1132940859193FF81911F01853239F4B70190E09D
S11329500E94B71A56016501E5CF10E0512C912C65
S1132960FFE1F915D8F08B3279F038F4803279F040
S11329708332A1F4F92DF0612EC08D3261F08033E1
S113298069F4292D21602DC0392D3260932E892DB3
S11329908460982E2AC0E92DE86015C097FC2DC0EC
S11329A020ED280F2A3088F496FE06C03AE0139FE3
S11329B0200D1124122F19C08AE0589E200D1124D5
S11329C0522EE92DE0629E2E10C08E3231F496FC18
S11329D0E5C2F92DF0649F2E08C08C3621F4292D10
S11329E02068922E02C0883641F4F10193FD85914E
S11329F093FF81911F018111B3CF9BEB980F93300B
S1132A0020F4992D9061805E07C09BE9980F933064
S1132A1008F066C1992D9F7E96FF16E09F73992E4C
S1132A20853619F49064992E08C0863621F4392F1E
S1132A303068932E02C01111115097FE07C01C3349
S1132A4050F444244394410E27E00BC0183038F06E
S1132A5027E017E005C027E09CE3492E02C0212FA0
S1132A60412C560184E0A80EB11CF60160817181ED
S1132A7082819381042DA3010E94BE196C01F98106
S1132A80FC87F0FF02C0F3FF06C091FC06C092FE73
S1132A9006C000E205C00DE203C00BE201C000E085
S1132AA08C858C7019F001115AC29BC297FE10C01C
S1132AB04C0CFC85F4FF04C08A81813309F44A94E8
S1132AC0141474F528E0241578F588E0482E2CC0F9
S1132AD096FC2AC0812F90E08C159D059CF03CEF5C
S1132AE0C3163FEFD30674F0892D8068982E0AC070
S1132AF0E2E0F0E0EC0FFD1FE10FF11D8081803377
S1132B0019F411501111F4CF97FE0EC044244394CC
S1132B10410E812F90E0C816D9062CF41C1904C06C
S1132B204424439401C010E097FE06C01C141D0405
S1132B3034F4C601019605C085E090E002C081E04E
S1132B4090E001110196112331F0212F30E02F5F25
S1132B503F4F820F931F252D30E08217930714F403
S1132B60581A01C0512C892D897049F4552039F027
S1132B70B70180E290E00E94B71A5A94F7CF00237D
S1132B8029F0B701802F90E00E94B71A93FC09C086
S1132B90552039F0B70180E390E00E94B71A5A94A7
S1132BA0F7CF97FE4CC04601D7FE02C0812C912C72
S1132BB0C60188199909F301E80FF91FFE87ED870B
S1132BC0960124193109388B2F87012F10E01195B4
S1132BD0019511093FEF8316930629F4B7018EE29C
S1132BE090E00E94B71AC814D9044CF08F859889D4
S1132BF08815990524F4ED85FE85818101C080E363
S1132C00F1E08F1A91082D853E852F5F3F4F3E8757
S1132C102D87801691062CF0B70190E00E94B71A18
S1132C20D9CFC814D90441F49A81963320F495334A
S1132C3019F43C8534FF81E3B70190E04EC08A81EA
S1132C40813319F09C859F7E9C87B70190E00E9498
S1132C50B71A111105C094FC18C085E690E017C09E
S1132C60B7018EE290E00E94B71A1E5F82E001E095
S1132C70080FF301E80FF11D8081B70190E00E9475
S1132C80B71A802F0113F3CFE6CF85E490E0B701A4
S1132C900E94B71AD7FC06C0C114D10441F4EC85D4
S1132CA0E4FF05C0D194C194D1088DE201C08BE248
S1132CB0B70190E00E94B71A80E32AE0C216D1045B
S1132CC02CF08F5FFAE0CF1AD108F7CFB70190E06C
S1132CD00E94B71AB701C601C0960E94B71A54C120
S1132CE0833631F0833779F0833509F056C020C03C
S1132CF0560132E0A30EB11CF6018081898301E004
S1132D0010E0630112C05601F2E0AF0EB11CF601EF
S1132D10C080D18096FE03C0612F70E002C06FEFC7
S1132D207FEFC6010E94AC1A8C01F92DFF7714C005
S1132D30560122E0A20EB11CF601C080D18096FE9D
S1132D4003C0612F70E002C06FEF7FEFC6010E94E5
S1132D50961A8C01F92DF0689F2EF3FD1AC0852D6B
S1132D6090E008171907A8F4B70180E290E00E94E8
S1132D70B71A5A94F4CFF60197FC859197FE819186
S1132D806F01B70190E00E94B71A51105A94015094
S1132D9011090115110579F7F7C0843611F0893648
S1132DA061F5560197FE09C024E0A20EB11CF6019C
S1132DB060817181828193810AC0F2E0AF0EB11CFF
S1132DC0F60160817181072E000C880B990BF92D97
S1132DD0FF769F2E97FF09C0909580957095619519
S1132DE07F4F8F4F9F4FF0689F2E2AE030E0A30162
S1132DF00E94151BC82EC6183FC0092D853721F423
S1132E000F7E2AE030E01DC0097F8F3691F018F460
S1132E10883559F0C3C0803719F0883711F0BEC027
S1132E20006104FF09C0046007C094FE08C0066086
S1132E3006C028E030E005C020E130E002C020E117
S1132E4032E0560107FF09C084E0A80EB11CF60168
S1132E50608171818281938108C0F2E0AF0EB11C60
S1132E60F6016081718180E090E0A3010E94151B4E
S1132E70C82EC6180F77902E96FE0BC0092D0E7F14
S1132E80C11650F494FE0AC092FC08C0092D0E7EAF
S1132E9005C0DC2C092D03C0DC2C01C0D12E04FF9D
S1132EA00DC0FE01EC0DF11D8081803311F4097E0B
S1132EB009C002FF06C0D394D39404C0802F86783F
S1132EC009F0D39403FD11C000FF06C01C2DD514D6
S1132ED080F4150D1D190DC0D51458F4B70180E206
S1132EE090E00E94B71AD394F7CFD51410F45D186C
S1132EF001C0512C04FF10C0B70180E390E00E9490
S1132F00B71A02FF17C001FD03C088E790E002C0B2
S1132F1088E590E0B7010CC0802F867859F001FF56
S1132F2002C08BE201C080E207FD8DE2B70190E0B0
S1132F300E94B71AC11638F4B70180E390E00E94EA
S1132F40B71A1150F7CFCA94F301EC0DF11D80812B
S1132F50B70190E00E94B71AC110F5CF15C0F4E094
S1132F60F51560F584E0581A93FE1FC0011127C0BF
S1132F702C8523FF2AC004E311E0392D3071932EF0
S1132F80F8018491811124C0552009F4E4CCB701DF
S1132F9080E290E00E94B71A5A94F6CFF701868136
S1132FA0978126C08FEF9FEF23C0B70180E290E0A6
S1132FB00E94B71A5A945110F8CFD8CF512CB701A8
S1132FC0802F90E00E94B71AD3CF08E311E0D5CF49
S1132FD091108052B70190E00E94B71A0F5F1F4F03
S1132FE0CFCF23E0251510F483E0BDCF512CC0CF03
S1132FF06096E2E10C946018AA1BBB1B51E107C068
S1133000AA1FBB1FA617B70710F0A61BB70B881F74
S1133010991F5A95A9F780959095BC01CD01089503
S1133020052E97FB1EF400940E94271857FD07D025
S11330300E947B1807FC03D04EF40C94271850957B
S11330404095309521953F4F4F4F5F4F0895909590
S11330508095709561957F4F8F4F9F4F0895EE0F28
S1133060FF1F0590F491E02D0994A29FB001B39F36
S1133070C001A39F700D811D1124911DB29F700D7D
S1133080811D1124911D08952F923F924F925F92BA
S11330906F927F928F929F92AF92BF92CF92DF9264
S11330A0EF92FF920F931F93CF93DF93CDB7DEB7C9
S11330B0CA1BDB0B0FB6F894DEBF0FBECDBF09945D
S11330C02A88398848885F846E847D848C849B84B4
S11330D0AA84B984C884DF80EE80FD800C811B81C2
S11330E0AA81B981CE0FD11D0FB6F894DEBF0FBEF1
S11330F0CDBFED010895A1E21A2EAA1BBB1BFD0151
S11331000DC0AA1FBB1FEE1FFF1FA217B307E407C2
S1133110F50720F0A21BB30BE40BF50B661F771F1A
S1133120881F991F1A9469F76095709580959095FA
S11331309B01AC01BD01CF0108950F931F93CF9361
S1133140DF938230910510F482E090E0E091600218
S1133150F091610220E030E0A0E0B0E0309719F196
S1133160408151810281138148175907C8F084179F
S1133170950769F4109731F012960C9312971396F1
S11331801C9327C0009360021093610222C0211592
S1133190310519F04217530718F49A01BD01EF01E4
S11331A0DF01F801DBCF21153105F9F0281B390BBC
S11331B02430310580F48A819B816115710521F0E9
S11331C0FB019383828304C0909361028093600225
S11331D0FE01329644C0FE01E20FF31F81939193E6
S11331E022503109398328833AC020915E023091FC
S11331F05F02232B41F420910201309103013093AB
S11332005F0220935E02209100013091010121159B
S1133210310541F42DB73EB74091040150910501A9
S1133220241B350BE0915E02F0915F02E217F30775
S1133230A0F42E1B3F0B2817390778F0AC014E5F22
S11332405F4F2417350748F04E0F5F1F50935F02FE
S113325040935E028193919302C0E0E0F0E0CF01DD
S1133260DF91CF911F910F910895CF93DF93009732
S113327009F481C0FC01329713821282A09160028A
S1133280B0916102109781F420813181820F931FE4
S113329020915E0230915F022817390751F5F093AF
S11332A05F02E0935E0267C0ED0120E030E0CE17DC
S11332B0DF0740F44A815B819E0141155105F1F01D
S11332C0EA01F5CFD383C28340815181840F951FD6
S11332D0C817D90759F488819981840F951F0296DC
S11332E0918380838A819B81938382832115310515
S11332F029F4F0936102E09360023DC0E901FB838D
S1133300EA8349915991C40FD51FEC17FD0761F465
S113331080819181840F951F0296E90199838883A6
S1133320828193819B838A83E0E0F0E012968D9101
S11333309C911397009719F0FD01DC01F7CF8D9153
S11333409C9111979D012E5F3F4F820F931F2091F7
S11333505E0230915F022817390769F4309729F427
S1133360109261021092600202C013821282B09322
S11333705F02A0935E02DF91CF910895283008F098
S113338027E03327DA01990F311D87FD91600096FC
S11333906105710539F432602E5F3D9330E32A955F
S11333A0E1F708959F3F30F080387105610509F019
S11333B03C5F3C5F3D93913008F08068911DDF9342
S11333C0CF931F930F93FF92EF92192F987F9695A7
S11333D0E92F96959695E90FFF27EA56FE4F992710
S11333E03327EE24FF24A701E701059008940794EE
S11333F028F4360FE71EF81E491F511D660F771F6C
S1133400881F991F0694A1F70590079428F4E70EE6
S1133410F81E491F561FC11D770F881F991F661F6D
S11334200694A1F70590079428F4F80E491F561F37
S1133430C71FD11D880F991F661F771F0694A1F718
S11334400590079420F4490F561FC71FD81F990FE2
S1133450661F771F881F0694A9F78491109517702B
S113346041F0D695C79557954795F794E7941A95E3
S1133470C1F7ECE3F1E068941590159135916591ED
S1133480959105907FE27395E118F10A430B560B71
S1133490C90BD009C0F7E10CF11E431F561FC91F09
S11334A0D01D7EF4703311F48A95E6CFE894015070
S11334B030F0080F0AF40027021708F4202F239590
S11334C0022F7A3328F079E37D932A95E9F710C027
S11334D07D932A9589F60694979567953795179560
S11334E01794E118F10A430B560BC90BD00998F055
S11334F023957E9173957A3308F070E37C932013BF
S1133500B8F77E9170617D9330F0839571E37D937C
S113351070E32A95E1F71124EF90FF900F911F912A
S1133520CF91DF91992787FD90950895FC0105902F
S1133530615070400110D8F7809590958E0F9F1FB1
S11335400895FB01DC010D900020E9F7119701902B
S11335500D920020E1F70895FC0161507040019044
S11335600110D8F7809590958E0F9F1F08950F93A3
S11335701F93CF93DF93FB01238121FD03C08FEFC2
S11335809FEF2CC022FF16C04681578124813581CC
S11335904217530744F4A081B1819D012F5F3F4F2F
S11335A0318320838C93268137812F5F3F4F37836C
S11335B0268314C08B01EC01FB010084F185E02D0E
S11335C00995892BE1F6D80116968D919C91179750
S11335D0019617969C938E931697CE01DF91CF9107
S11335E01F910F910895AEE0B0E0E9EFFAE10C9479
S11335F052180D891E8986E08C831A8309838FEF04
S11336009FE79E838D83AE01475E5F4F6F89788D00
S1133610CE0101960E947F14EF81F885E00FF11F1F
S113362010822E96E4E00C946E18FA01AA27283032
S113363051F1203181F1E8946F936E7F6E5F7F4F7B
S11336408F4F9F4FAF4FB1E03ED0B4E03CD0670FF7
S1133650781F891F9A1FA11D680F791F8A1F911D4A
S1133660A11D6A0F711D811D911DA11D20D009F49A
S113367068943F912AE0269F11243019305D3193DC
S1133680DEF6CF010895462F4770405D4193B3E0C5
S11336900FD0C9F7F6CF462F4F70405D4A3318F06C
S11336A0495D31FD4052419302D0A9F7EACFB4E01D
S11336B0A6959795879577956795BA95C9F70097D5
S11336C06105710508959B01AC010A2E0694579576
S11336D0479537952795BA95C9F7620F731F841FCD
S11336E0951FA01D0895A8E1B0E042E050E00C94BD
S11336F0811B0196272F0E94901B0C948F1BDC01C9
S1133700CB01FC01F999FECF06C0F2BDE1BDF89AE8
S1133710319600B40D9241505040B8F70895262FC9
S1133720F999FECF92BD81BDF89A019700B40216B3
S113373039F01FBA20BD0FB6F894FA9AF99A0FBE61
S10937400895F894FFCF88
S1133746000062022000640006000000000005007C
S1133756FBFF02003C000300000000000100010022
S1133766500050000600000001001E001E00630009
S1133776000002000400060008000A000C000E0007
S1133786100012001400160018001A001C001E0077
S11337962000220024005A005C00630000000000A0
S11337A60000000000000000000000000000A0422D
S11337B6A69BC43B0D0A2564240D0A00252E3366F8
S11337C6240D0A0024412564240050256424005451
S11337D6252E30662400544D50252E31662400488B
S10F37E6252E31662400307825580000A0
S9030000FC
