S016000045787465726E616C4465766963652E737265637B
S11300000C94DA000C94F7000C94F7000C94F700AD
S11300100C94F7000C94F7000C94F7000C94F70080
S11300200C94F7000C9488020C94F7000C94F700DD
S11300300C94F7000C9471020C94F7000C94F700E4
S11300400C945A020C94F7000C94F7000C94F700EB
S11300500C94F7000C94DE020C94F7000C94F70057
S11300600C94F7000C94F700E4090309D10903097F
S1130070D1090309B3090309A50903099709030968
S1130080890903097C0903097C0903095F09030938
S11300905F0903098909030989090309890903090E
S11300A08909030945090309890903098909030918
S11300B089096E616E00696E660000407A10F35A19
S11300C000A0724E18090010A5D4E80000E8764894
S11300D0170000E40B54020000CA9A3B000000E140
S11300E0F505000080969800000040420F000000D3
S11300F0A08601000000102700000000E8030000B3
S113010000006400000000000A000000000001007C
S1130110000000002C76D888DC674F0823DFC1DF9D
S1130120AE59E1B1B796E5E3E453C63AE6519976A0
S113013096E8E6C28426EB898C9B62ED407C6FFCDA
S1130140EFBC9C9F40F2BAA56FA5F490055A2AF71C
S11301505C936B6CF9676DC11BFCE0E40D47FEF525
S113016020E6B500D0ED902E03009435770500808D
S1130170841E080000204E0A000000C80C333333EC
S1130180330F986E12831141EF8D2114893BE6558C
S113019016CFFEE6DB18D1844B381BF77C1D901D6F
S11301A0A4BBE424203284725E228100C9F124ECD1
S11301B0A1E53D2711241FBECFEFD8E0DEBFCDBFA0
S11301C011E0A0E0B1E0EAEDF2E302C005900D9287
S11301D0AC3AB107D9F722E0ACEAB1E001C01D9214
S11301E0A336B207E1F70E945D0A0C946B190C94D4
S11301F00000FC01808191819C0197FD20C1409108
S1130200590250915A02421753070CF484C080914A
S11302100601909107018436910509F47BC0809111
S1130220BC019091BD01892B21F01092BD01109267
S1130230BC018091BA019091BB01892B21F01092ED
S1130240BB011092BA018091B0008F7D8093B00001
S113025084E690E090930701809306011092C10117
S11302601092C00180915102909152029093BF016B
S11302708093BE01089520915502309156022817AB
S113028039074CF497FF2CC0809106019091070127
S11302908436910529F187E88093B40087E890E0DB
S11302A0909307018093060180913102909132026C
S11302B0892B49F08091BC019091BD0101969093E6
S11302C0BD018093BC01809153029091540290939C
S11302D0C1018093C0018091B00080628093B0001E
S11302E02091BC013091BD01809131029091320284
S11302F08217930778F485E090E090932702809327
S1130300260290931802809317021092BD01109256
S1130310BC012A9A08954091C0015091C101411530
S11303205105B1F0415051095093C1014093C001AE
S1130330452B81F78091B0008F7D8093B000809130
S11303405102909152029093BF018093BE0108958F
S11303504091170250911802415051094330510500
S1130360C8F240913302509134024115510509F409
S113037073C06091570270915802861797070CF466
S113038063C060910601709107016436710509F438
S11303907DC06091B8017091B901621B730B6F3F0E
S11303A0FFEF7F0724F0623071050CF478C01092DF
S11303B0BB011092BA013093B9012093B801209186
S11303C0530230915402232B09F48ACF209157020F
S11303D0309158028217930764F4181619060CF02A
S11303E04ACF20910601309107012436310509F4E2
S11303F042CF8AEF8093B4008AEF90E09093070194
S1130400809306018091310290913202892B49F048
S11304108091BC019091BD0101969093BD018093A0
S1130420BC0180915302909154029093C101809336
S1130430C0018091B00080628093B00008952227AB
S11304403327281B390BDBCE60915502709156027D
S1130450681779070CF095CF2091BA013091BB0150
S11304604217530708F0ABCF85E090E09093270242
S11304708093260284E090E0909318028093170200
S11304801092BB011092BA012A9A08953093B901CF
S11304902093B8012091BA013091BB01E1CF2091A2
S11304A0BA013091BB012F5F3F4F3093BB012093C2
S11304B0BA01D6CF1F920F920FB60F9211248F93C9
S11304C09F9380912F029091300201969093300275
S11304D080932F029F918F910F900FBE0F901F90CA
S11304E018951F920F920FB60F9211248F939F931A
S11304F080912D0290912E02019690932E0280936A
S11305002D029F918F910F900FBE0F901F90189501
S11305101F920F920FB60F9211242F933F934F9374
S11305205F936F937F938F939F93AF93BF93EF9357
S113053040912B0250912C024F5F5F4F50932C023D
S113054040932B02E1E0E09328029A01AFEAB7E47A
S11305500E94FF15281B390B36952795820F931F90
S1130560929582958F7089279F70892769E1689F8A
S11305709001699F300D11244217530711F4E09341
S113058029024D37510538F081E080932A021092F8
S11305902C0210922B0283E88093B200EF91BF915A
S11305A0AF919F918F917F916F915F914F913F9107
S11305B02F910F900FBE0F901F9018951F920F92BE
S11305C00FB60F9211248F939F93EF93FF93EAE753
S11305D0F0E0808180838091780090917900E2E15D
S11305E0F2E09183808381E08283FF91EF919F9178
S11305F08F910F900FBE0F901F901895CF92DF929E
S1130600EF92FF920F931F93CF93DF93CDB7DEB793
S113061060970FB6F894DEBF0FBECDBFCE01019632
S11306207C0180E1F70111928A95E9F789E791E06D
S11306300E948D0FF89400E311E086E7C82E81E054
S1130640D82EF801819191918F010E943D199F93B9
S11306508F93DF92CF92FF92EF920E94BD18C70151
S11306600E948D0F0F900F900F900F900F900F908E
S1130670F1E006351F0729F7789460960FB6F894D1
S1130680DEBF0FBECDBFDF91CF911F910F91FF90C1
S1130690EF90DF90CF900895CF92DF92EF92FF9288
S11306A00F931F93CF93DF93CDB7DEB760970FB649
S11306B0F894DEBF0FBECDBF8E010F5F1F4F80E1E8
S11306C0F80111928A95E9F780915C028F938091E9
S11306D05B028F9384E791E09F938F931F930F9313
S11306E00E94BD18C8010E948D0F80915A028F93F9
S11306F0809159028F9386E7E82E81E0F82EFF92CD
S1130700EF921F930F930E94BD18C8010E948D0F92
S1130710809158028F93809157028F93FF92EF92AA
S11307201F930F930E94BD18C8010E948D0F8091E2
S113073056028F93809155028F93FF92EF921F93ED
S11307400F930E94BD18C8010E948D0F809154021E
S11307508F93809153028F93FF92EF921F930F9385
S11307600E94BD18C8010E948D0F809152028F9380
S1130770809151028F93FF92EF921F930F930E94E7
S1130780BD180FB6F894DEBF0FBECDBFC8010E94DE
S11307908D0F809150028F9380914F028F93FF921F
S11307A0EF921F930F930E94BD18C8010E948D0FF2
S11307B080914E028F9380914D028F9380914C02D1
S11307C08F9380914B028F939CE7C92E91E0D92E91
S11307D0DF92CF921F930F930E94BD18C8010E940D
S11307E08D0F80914A028F93809149028F9380915B
S11307F048028F93809147028F93DF92CF921F9389
S11308000F930E94BD18C8010E948D0F809146026B
S11308108F93809145028F93FF92EF921F930F93D2
S11308200E94BD18C8010E948D0F809144028F93CD
S1130830809143028F93FF92EF921F930F930E9434
S1130840BD180FB6F894DEBF0FBECDBFC8010E941D
S11308508D0F809142028F93809141028F93FF927A
S1130860EF921F930F930E94BD18C8010E948D0F31
S1130870809140028F9380913F028F93FF92EF9279
S11308801F930F930E94BD18C8010E948D0F809181
S11308903E028F9380913D028F9380913C028F930F
S11308A080913B028F93DF92CF921F930F930E940C
S11308B0BD18C8010E948D0F80913A028F938091D8
S11308C039028F93FF92EF921F930F930E94BD18EA
S11308D0C8010E948D0F809138028F938091370256
S11308E08F93FF92EF921F930F930E94BD180FB640
S11308F0F894DEBF0FBECDBFC8010E948D0F80915A
S113090036028F93809135028F93FF92EF921F935B
S11309100F930E94BD18C8010E948D0F809134026C
S11309208F93809133028F93FF92EF921F930F93D3
S11309300E94BD18C8010E948D0F809132028F93CE
S1130940809131028F93FF92EF921F930F930E9435
S1130950BD18C8010E948D0F0FB6F894DEBF0FBEFC
S1130960CDBF60960FB6F894DEBF0FBECDBFDF914A
S1130970CF911F910F91FF90EF90DF90CF9008954A
S11309800F931F93CF93DF93F894CAE0D1E000E371
S113099011E069917991F801819191918F010E94FF
S11309A04319F1E0C033DF07A1F77894DF91CF91C9
S11309B01F910F910895F89480E090E00E943D19F2
S11309C090935C0280935B0282E090E00E943D1968
S11309D090935A028093590284E090E00E943D195A
S11309E0909358028093570286E090E00E943D194C
S11309F0909356028093550288E090E00E943D193E
S1130A0090935402809353028AE090E00E943D192F
S1130A1090935202809351028CE090E00E943D1921
S1130A209093500280934F028EE090E00E943D1913
S1130A30BC0180E090E00E94CA1020E030E04AE768
S1130A4054E40E9422109B01AC0160E070E080E855
S1130A509FE30E94B00F60934B0270934C0280930B
S1130A604D0290934E0280E190E00E943D19BC013A
S1130A7080E090E00E94CA1020E030E04AE754E4AD
S1130A800E9422109B01AC0160E070E080E89FE3CB
S1130A900E94B00F6093470270934802809349020A
S1130AA090934A0282E190E00E943D19909346029D
S1130AB08093450284E190E00E943D1990934402A2
S1130AC08093430286E190E00E943D199093420294
S1130AD08093410288E190E00E943D199093400286
S1130AE080933F028AE190E00E943D19BC0180E0BE
S1130AF090E00E94CA1020E030E04AE754E40E94EB
S1130B00221060933B0270933C0280933D029093C9
S1130B103E028CE190E00E943D1990933A0280934A
S1130B2039028EE190E00E943D199093380280933F
S1130B30370280E290E00E943D1990933602809340
S1130B40350282E290E00E943D1990933402809332
S1130B50330284E290E00E943D1990933202809324
S1130B60310278940895AF92BF92CF92DF92EF92C0
S1130B70FF920F931F93CF93DF935B016A01790177
S1130B80DC0111962C9111972F938C918F9384E80B
S1130B9091E09F938F93C2E0D2E0DF93CF930E94C2
S1130BA0BD18BE0182EC91E00E946B18D50111962C
S1130BB08C9111978F938C918F938AE891E09F93F6
S1130BC08F93DF93CF930E94BD18BE0182EC91E016
S1130BD00E946B18D60113968C9113978F931296DB
S1130BE08C9112978F9311968C9111978F938C916E
S1130BF08F938FE891E09F938F93DF93CF930E941D
S1130C00BD18BE0182EC91E00E946B18D7011396C7
S1130C108C9113978F9312968C9112978F931196B0
S1130C208C9111978F938C918F9386E991E09F9388
S1130C308F93DF93CF930E94BD18BE0182EC91E0A5
S1130C400E946B18D80113968C9113978F93129668
S1130C508C9112978F9311968C9111978F938C91FD
S1130C608F938FE991E09F938F93DF93CF930E94AB
S1130C70BD188DB79EB784960FB6F8949EBF0FBE6D
S1130C808DBFBE0182EC91E00E946B1882EC91E072
S1130C900E949C0F1F928F9386EA91E09F938F93FB
S1130CA0DF93CF930E94BD18BE0182EC91E00E94B5
S1130CB06B1882EC91E00E948D0F80E4E2ECF1E08D
S1130CC0DF011D928A95E9F70F900F900F900F9016
S1130CD00F900F90DF91CF911F910F91FF90EF90A4
S1130CE0DF90CF90BF90AF90089586E084B989E3F8
S1130CF085B98FE387B980EC88B98CE08AB983EF32
S1130D008BB90E94DB0481E00E94520D82E090E0E6
S1130D100E94760F81E090E00E94760F82E090E0DE
S1130D200E946A0D7894A89599E288E10FB6F89428
S1130D30A895809360000FBE909360000895FC0115
S1130D404081518157FD95C05093B7014093B6013E
S1130D50483E83E05807BCF089E090E09093B501E9
S1130D608093B4019093B3018093B201459B31C049
S1130D708091B201806D88B95A9B76C0808191813F
S1130D8097FF5A9808959A01453651050CF048C0CA
S1130D90ADECBCEC0E94FF159695879596958795CA
S1130DA0969587959093B5018093B4019C01220F89
S1130DB0331F880F991F880F991F880F991F820F5F
S1130DC0931F481B590B5093B3014093B2014599AB
S1130DD0CFCF8091B401806E88B980910801909141
S1130DE00901079771F2E0912402F0912502EE0FB8
S1130DF0FF1FE05DFE4F808191819C012F7E232B9C
S1130E0019F00E9709F0BDCF5A9937C08091B601F9
S1130E109091B7018436910508F0B4CF5A9A089599
S1130E203695279536952795ABE7B4E10E94FF15D3
S1130E30969587959093B5018093B4019A01ADEC92
S1130E40BCEC0E94FF15AC01569547955695479505
S1130E50569547959A010E94FF1596958795969504
S1130E60879596958795A2CF8081918197FDD6CF5E
S1130E70089551954195510967CF8091B60190919C
S1130E80B7018436910508F47DCF5A987BCF98B189
S1130E9088B190718072892B41F480911702806E21
S1130EA088B95A9B05C05A98089588B1807C88B93E
S1130EB008954E9B14C08091B0019091B1010197A7
S1130EC0C9F04F9920C08091AE019091AF01019675
S1130ED09093AF018093AE010197D9F0089580916A
S1130EE0B0019091B10101969093B1018093B0014A
S1130EF0019739F781E080931A021092B1011092A0
S1130F00B0014F9BE0CF8091AE019091AF0101976A
S1130F1029F781E0809319021092AF011092AE017B
S1130F200895809108019091090120911A02863058
S1130F30910531F02223C1F010921F0210921E027B
S1130F40222389F020911902222369F08630910529
S1130F5009F440C0079769F081E080931C02109265
S1130F601A02109219020895309119023111E4CF36
S1130F700895E0912402F0912502EE0FFF1FE05D39
S1130F80FE4F808191818C35910509F43DC08336F3
S1130F909105A1F18A359105D1F183E090E0909318
S1130FA00901809308019093270280932602F89404
S1130FB0E0912402F0912502EE0FFF1FE05DFE4F49
S1130FC0808191810E943D1990935E0280935D021D
S1130FD07894C5CF8091B0008F7D8093B00087E076
S1130FE090E09093090180930801909327028093E5
S1130FF026021092230210922202B1CF0E94C00452
S113100081E080931602ABCF0E944C03A8CF0E94CC
S1131010FE02A5CF2091350230913602211531050B
S113102081F1DC014D915C914A30510520F54091EC
S1131030AC015091AD014F5F5F4F5093AD014093B0
S1131040AC01E1E0F0E0F0931802E0931702DB0159
S1131050ED91FC913A9778F12417350708F52A9A0F
S113106085E090E090932702809326021092AD01D0
S11310701092AC010895FB01408151814A30510521
S113108080F08091AC019091AD01892B49F01092D0
S1131090AD011092AC01109218021092170208953B
S11310A008954091AC015091AD014F5F5F4F509353
S11310B0AD014093AC01E2E0F0E0F0931802E0935C
S11310C01702DC018D919C910A9730F6FB01808117
S11310D091810A9708F683E090E090931802809338
S11310E01702BACF80911502882309F18091260254
S11310F090912702892BD9F480911A02811104C09E
S1131100809119028823E9F184E090E0909327020A
S1131110809326028091390290913A02909323029F
S11311208093220210921A0210921902089580915B
S11311301A02882389F08091B4008A3F41F18AEF32
S11311408093B4008091B00080628093B00081E00D
S113115080931B0210921A0280911902882389F04D
S11311608091B400873871F087E88093B40080914F
S1131170B00080628093B00081E080931B021092E3
S1131180190208958091B00085FDF6CFEDCF8091CE
S1131190B00085FDDCCFD3CF80911A02882379F08B
S11311A080912402909125028531910528F40196BD
S11311B0909325028093240210921A02089580913C
S11311C01902882369F080912402909125020097E6
S11311D029F001979093250280932402109219021A
S11311E0089580911C02811129C0E0912402F0919C
S11311F02502EE0FFF1FE05DFE4F0190F081E02D10
S1131200E532F105B8F087E090E09093090180930E
S113121008019093270280932602109225021092CF
S1131220240210925E0210925D0210921A02109231
S113123019020895EC5CFF4F0C94F915F894609131
S11312405D0270915E02E0912402F0912502EE0F9E
S1131250FF1FE05DFE4F808191810E9443197894C5
S113126010925E0210925D0210921A0210921902FC
S113127087E090E0909309018093080190932702FE
S11312808093260210921C02089580911A02811103
S1131290BAC080911902882341F280915D02909135
S11312A05E02181619060CF0C0CF019790935E02E7
S11312B080935D0210921A0210921902089580918F
S11312C01A02882361F080915D0290915E02833658
S11312D091052CF4019690935E0280935D028091B7
S11312E01902882309F4A1CF80915D0290915E02D6
S11312F082309105D4F699CF80911A02882349F25D
S113130080915D0290915E02873E23E092070CF685
S113131055C080911A02882309F4BBCF80915D02E5
S113132090915E02833691050CF0B3CF47C0809153
S11313301A02882309F4ADCF80915D0290915E0278
S11313408C3391050CF0A5CF39C080911A02882303
S113135009F49FCF80915D0290915E0283309105E4
S11313600CF097CF2BC080911A02882359F08091FA
S11313705D0290915E0297FF05C0019690935E0214
S113138080935D0280911902882309F44ECF8091E5
S11313905D0290915E028C3F2FEF92070CF445CFD3
S11313A084CF80911A02882309F473CF80915D025F
S11313B090915E02853091050CF06BCF019690936D
S11313C05E0280935D0265CF80911A02882361F0EA
S11313D080915D0290915E02883C91052CF4019607
S11313E090935E0280935D0280911902882309F430
S11313F01CCF80915D0290915E0289332FEF92079A
S11314000CF413CF52CF80915D0290915E021816B6
S11314101906A4F620911902222309F406CF45CF18
S113142081E00E94290D81E00E943B0D1092180278
S11314301092170284E090E0909327028093260292
S11314408091390290913A02909323028093220270
S113145081E0089529988091B0008F7D8093B00039
S11314602A9880E00E94290D80E00E943B0D84E6CA
S113147090E090930701809306011092C1011092AD
S1131480C0011092BF011092BE011092BD011092D2
S1131490BC0180E090E00E946A0D80912602909148
S11314A02702059741F0109227021092260210920B
S11314B023021092220280E00895CF93DF93CDB7E8
S11314C0DEB7C255D1090FB6F894DEBF0FBECDBF4B
S11314D02D961CAE1DAE1EAE1FAE2D9729961CAECA
S11314E01DAE1EAE1FAE299725961CAE1DAE1EAEB8
S11314F01FAE259763961FAE1EAE639761961FAE0F
S11315001EAE61972F961FAE1EAE2F9719AA1AAA68
S11315101BAA1CAA1EAA1DAA80E092E00E946716BC
S113152098AF8FAB19AE1AAE1BAE1CAE1EAE1DAE7D
S113153080E092E00E94671621969FAF8EAF2197BC
S113154088E1ECE5F1E0DE01599601900D928A956F
S1131550E1F788E1ECE5F1E0DE01119601900D92EE
S11315608A95E1F70E947506C12CD12CE12CF12C4F
S11315702224239432E0332E46E0A42EB12C55E0ED
S1131580652E712C64E0862E912C41C08091150249
S1131590882309F4F0C11899F8C085B1832585B969
S11315A0C114D10409F41AC1E114F10409F48AC183
S11315B016BC109285001092840010923002109292
S11315C02F0210922E0210922D02C114D10419F090
S11315D031E0C31AD108E114F10419F081E0E81AEA
S11315E0F1088091220290912302009709F47FC1AF
S11315F001979093230280932202892B09F077C1EB
S1131600109227021092260210922A02A895809125
S113161014028823C1F06091120270911302072E04
S1131620000C880B990B0E94CC1020E030E04AEFAC
S11316305FE30E94811125966CAF7DAF8EAF9FAFA3
S1131640259710921402809128028823D9F0809162
S11316502602909127028430910509F4DDC1873078
S1131660910509F4CAC18330910509F4BDC1892BE0
S113167039F4449902C0459B03C088B1807C88B981
S11316801092280280912902882349F18091150241
S113169081113CC10E9459070E9491078091080161
S11316A0909109018330910509F435C18630910583
S11316B009F486C1079709F490C1809120029091A2
S11316C02102892B11F04F99B1C180911B0288230B
S11316D021F04E9B02C04F99AEC110922902809115
S11316E02A02882309F492CF4F9924C180910801DA
S11316F0909109018730910509F433C1039709F4E6
S113170021C18091200290912102059750F480918B
S11317101602811106C080911E0290911F024E97FD
S113172058F1109221021092200210922502109278
S11317302402B0920901A09208011092160280912D
S11317401502882309F4DDC09092270280922602B4
S11317508091390290913A0290932302809322025D
S11317608091170290911802892B21F07092270220
S1131770609226020E94DB04189B08CF189B22C0AB
S113178080911502882309F420CF0E942A0A8093AD
S1131790150241E0BE01675E7F4F80E090E00E9449
S11317A0380E41E0BE016F5F7F4F80E090E00E9401
S11317B0380E21E0AE014F5C5F4F60E070E0CB017A
S11317C00E94DC0E80911502882309F4FECE85B1B7
S11317D0832585B9C114D10409F0E6CE86B55090AD
S11317E02F02412C9201280F311DC901609145023D
S11317F0709146020E94C61580E090E00E94CA10D3
S113180020914B0230914C0240914D0250914E0276
S11318100E94811120E0AE014F5C5F4F0E94DC0EFC
S11318200E949B1063967FAF6EAF639740918400D4
S11318305091850020912D0230912E02AFEFBFEF21
S11318400E94FF15640F751F811D911D2091430295
S11318503091440240E050E00E94DA15CA01B90117
S11318600E94CC10209147023091480240914902D5
S113187050914A020E9481110E949B1061967FAF91
S11318806EAF61972F961FAE1EAE2F9780913702D1
S113189090913802892B09F487CE8E010B5B1F4F80
S11318A09E01275B3F4FAE014F5B5F4FBE01615B03
S11318B07F4FCE018F5A9F4F0E94B305E114F1046C
S11318C009F076CEBE01615B7F4FCE018F5A9F4FE8
S11318D00E940A088091BE019091BF01009709F40B
S11318E0B2C001979093BF018093BE0161CE8091F5
S11318F0260290912702059709F086CE0E94470799
S113190083CE10922702109226022ACF81E090E023
S11319100E946A0DBFCE20911D02222309F44BC000
S11319201092270210922602222520931D020E9463
S1131930F108C3CE80910801909109018730910587
S113194009F0DCCE809120029091210220911E02A8
S113195030911F022F5F3F4F30931F0220931E02CE
S1131960D4CE80912002909121020196909321027D
S113197080932002EBCF0E94100A809315021092EC
S11319802A02E0904F02F090500263961FAE1EAE02
S1131990639761961FAE1EAE61972F961FAE1EAE63
S11319A02F9780E092E00E94671698AF8FAB8EE18C
S11319B0C82ED12C2CCE9093270280932602B4CF2C
S11319C00E94720880910801909109018730910565
S11319D021F0039709F071CEAACF0E94CC08809120
S11319E0080190910901F5CF8DE592E00E949F06D0
S11319F080912602909127023ACE80912402909100
S1131A002502880F991F805D9E4F0E949F0680913A
S1131A1026029091270227CECE01835B9F4F0E941E
S1131A209F06809126029091270219CE10922102DE
S1131A30109220024ACE8091B0008F7D8093B00036
S1131A4010921B024ACECE01835B9F4F0E94F90085
S1131A50AFCD811107C080916E008E7F80936E00A0
S1131A6015BC089587E085BD80916E0081608093E8
S1131A706E0016BC0895811108C080916F008E7F9E
S1131A8080936F0010928100089587E08093810015
S1131A9080916F00816080936F0010928500109296
S1131AA0840008951092B200811108C01092B10010
S1131AB0809170008E7F80937000089583E08093FE
S1131AC0B00087E08093B1008091700081608093C2
S1131AD070000895009779F0019731F480917A00AD
S1131AE0806480937A0008958FE880937A0087E475
S1131AF080937C00089580917A008F7B80937A0094
S1131B0008958F929F92AF92BF92CF92DF92EF92FD
S1131B10FF920F931F93CF93DF93FB0180809180FB
S1131B20A280B380EC018C011E5FC12CD12C760104
S1131B3015C0B901330F880B990B0E94CC109B017F
S1131B40AC010E9481119B01AC01C701B6010E9446
S1131B50B10F6B017C010C171D0791F0699179910C
S1131B6089919991A50194010E94B00F0E9494104B
S1131B709B0177FFDECF22273327261B370BD9CFD4
S1131B8020E030E040E05CE30E9481110E94F41107
S1131B909B01AC010E94B10FDF91CF911F910F9176
S1131BA0FF90EF90DF90CF90BF90AF909F908F9079
S1131BB008958F929F92AF92BF92EF92FF920F93EC
S1131BC01F93CF93DF937C01EB01442309F445C0B9
S1131BD0188219821A821B8200E010E0812C912C59
S1131BE054018E819F81080F191FF80120813181D2
S1131BF042815381F70160817181828193810E94C6
S1131C00B00FA50194010E94B10F688379838A8380
S1131C109B83F70180819181A281B381F801808344
S1131C209183A283B3831D821C8220E030E0A9014A
S1131C30688179818A819B810E94221068837983DB
S1131C408A839B83DF91CF911F910F91FF90EF9037
S1131C50BF90AF909F908F90089588809980AA80BC
S1131C60BB800C811D81000F111F000F111FB9CF04
S1131C702F923F924F925F926F927F928F929F9298
S1131C80AF92BF92CF92DF92EF92FF920F931F9386
S1131C90CF93DF933C01EB01B889A989FA89EB89D9
S1131CA0442309F480C04B2F5A2F6F2F7E2F4C836F
S1131CB05D836E837F83188219821A821B82188641
S1131CC019861A861B861D010F2F1E2F812C912C1D
S1131CD05401232D322DA8016B2F7A2F8F2F9E2F85
S1131CE00E94B10F9B01AC01632D722DC8010E94AB
S1131CF022106B017C016C877D878E879F87A501ED
S1131D009401F30160817181828193810E94B00FFB
S1131D10A70196010E948111A50194010E94B10FAF
S1131D202B013C01688379838A839B839B01AC01EB
S1131D30C501B4010E94B00F9F772C893D894E895B
S1131D405F890E9481114B015C01A701960160E04B
S1131D5070E080E89FE30E94B00F232D322DA8018C
S1131D600E9481119B01AC01C501B4010E94B10F15
S1131D706C837D838E839F83488659866A867B869F
S1131D80DF91CF911F910F91FF90EF90DF90CF9053
S1131D90BF90AF909F908F907F906F905F904F9087
S1131DA03F902F9008953C802D800E811F81888460
S1131DB09984AA84BB848DCF8F929F92AF92BF9255
S1131DC0CF92DF92EF92FF920F931F93CF93DF9303
S1131DD000D000D0CDB7DEB769837A838B839C8330
S1131DE08A01FA0121116BC080809180A280B380A6
S1131DF020E030E0A901C501B4010E941D10882330
S1131E0009F43EC0F801C084D184E284F3842981BA
S1131E103A814B815C81C701B6010E94B00F0E94D8
S1131E2094109B0177FD5DC0B901330F880B990BAA
S1131E300E94CC10A50194010E947C1118169CF4F8
S1131E40C701B6010F900F900F900F90DF91CF91C3
S1131E501F910F91FF90EF90DF90CF90BF90AF90C4
S1131E609F908F900895B801685F7F4F40E0CE0146
S1131E7001960E94D90DC980DA80EB80FC80E0CF06
S1131E8040E07801F8E0EF0EF11CB701CE010196B5
S1131E900E94D90DF801C680D780B701C6010E94FF
S1131EA0810DF8016083718382839383C6010E944C
S1131EB0FF16F80180809180A280B380A3CF1582A1
S1131EC014821082118212821382BA01685F7F4FDA
S1131ED041E0CE0101960E94D90DC12CD12C76018E
S1131EE0AFCF22273327261B370B9ECF009791F0C5
S1131EF0019721F488E08093C10008951092C100F5
S1131F0086E08093C20083E090E09093C5008093C4
S1131F10C40008951092C1000895FC012081222379
S1131F2051F031969091C00095FFFCCF2093C600EC
S1131F3021912111F7CF0895FC0180E047E09191B0
S1131F40992369F0892728E030E004C0880F2150E4
S1131F503109A9F387FFFACF880F8427F8CF0895B2
S1131F605058BB27AA270E94C80F0C9442110E9404
S1131F70341138F00E943B1120F039F49F3F19F4DA
S1131F8026F40C9431110EF4E095E7FB0C942B111C
S1131F90E92F0E94531158F3BA1762077307840795
S1131FA0950720F079F4A6F50C9475110EF4E095DC
S1131FB00B2EBA2FA02D0B01B90190010C01CA01FF
S1131FC0A0011124FF27591B99F0593F50F4503EAA
S1131FD068F11A16F040A22F232F342F4427585F9C
S1131FE0F3CF469537952795A795F0405395C9F7B4
S1131FF07EF41F16BA0B620B730B840BBAF091506C
S1132000A1F0FF0FBB1F661F771F881FC2F70EC00A
S1132010BA0F621F731F841F48F4879577956795DD
S1132020B795F7959E3F08F0B0CF9395880F08F0C9
S11320309927EE0F9795879508950E94071108F444
S113204081E008950E9436100C9442110E943B11C5
S113205058F00E94341140F029F45F3F29F00C94A9
S11320602B1151110C9476110C9431110E945311BF
S113207068F39923B1F3552391F3951B550BBB27B3
S1132080AA2762177307840738F09F5F5F4F220FF8
S1132090331F441FAA1FA9F335D00E2E3AF0E0E8EF
S11320A032D091505040E695001CCAF72BD0FE2F39
S11320B029D0660F771F881FBB1F261737074807CD
S11320C0AB07B0E809F0BB0B802DBF01FF27935885
S11320D05F4F3AF09E3F510578F00C942B110C940D
S11320E076115F3FE4F3983ED4F386957795679530
S11320F0B795F7959F5FC9F7880F911D96958795BA
S113210097F90895E1E0660F771F881FBB1F6217D8
S113211073078407BA0720F0621B730B840BBA0B96
S1132120EE1F88F7E09508950E949B106894B11102
S11321300C94761108950E945B1188F09F5798F0D3
S1132140B92F9927B751B0F0E1F0660F771F881FB8
S1132150991F1AF0BA95C9F714C0B13091F00E94D2
S11321607511B1E008950C947511672F782F8827A5
S1132170B85F39F0B93FCCF3869577956795B395F9
S1132180D9F73EF490958095709561957F4F8F4F68
S11321909F4F0895E89409C097FB3EF4909580956D
S11321A0709561957F4F8F4F9F4F9923A9F0F92F19
S11321B096E9BB279395F695879577956795B79597
S11321C0F111F8CFFAF4BB0F11F460FF1BC06F5F7D
S11321D07F4F8F4F9F4F16C0882311F096E911C08F
S11321E0772321F09EE8872F762F05C0662371F0B0
S11321F096E8862F70E060E02AF09A95660F771FC4
S1132200881FDAF7880F9695879597F90895990F9F
S11322100008550FAA0BE0E8FEEF16161706E807AC
S1132220F907C0F012161306E407F50798F0621BCD
S1132230730B840B950B39F40A2661F0232B242BA2
S1132240252B21F408950A2609F4A140A6958FEFC1
S1132250811D811D089597F99F6780E870E060E013
S113226008959FEF80EC089500240A94161617062B
S113227018060906089500240A9412161306140673
S113228005060895092E0394000C11F4882352F0D6
S1132290BB0F40F4BF2B11F460FF04C06F5F7F4F8E
S11322A08F4F9F4F089557FD9058440F551F59F075
S11322B05F3F71F04795880F97FB991F61F09F3F2F
S11322C079F087950895121613061406551FF2CF58
S11322D04695F1DF08C0161617061806991FF1CFA8
S11322E086957105610508940895E894BB276627CF
S11322F07727CB0197F908950E94071108F48FEF0F
S113230008950E9494110C9442110E94341138F0E3
S11323100E943B1120F0952311F00C942B110C9486
S1132320311111240C9476110E94531170F3959F6E
S1132330C1F3950F50E0551F629FF001729FBB27B8
S1132340F00DB11D639FAA27F00DB11DAA1F649F54
S11323506627B00DA11D661F829F2227B00DA11D07
S1132360621F739FB00DA11D621F839FA00D611D8D
S1132370221F749F3327A00D611D231F849F600DAE
S1132380211D822F762F6A2F11249F5750409AF0D7
S1132390F1F088234AF0EE0FFF1FBB1F661F771F63
S11323A0881F91505040A9F79E3F510580F00C942E
S11323B02B110C9476115F3FE4F3983ED4F3869589
S11323C077956795B795F795E7959F5FC1F7FE2BCE
S11323D0880F911D9695879597F9089519F416F429
S11323E00C9431110C9434120E945B11B8F39923AC
S11323F0C9F3B6F39F57550B87FF0E94421200247E
S1132400A0E640EA900180585695979528F4805CA0
S1132410660F771F881F20F026173707480730F408
S1132420621B730B840B202931294A2BA695179420
S11324300794202531254A2758F7660F771F881FF0
S113244020F026173707480730F4620B730B840B10
S1132450200D311D411DA09581F7B901842F91589C
S1132460880F9695879508959F3F31F0915020F4F9
S1132470879577956795B795880F911D969587955C
S113248097F9089591505040660F771F881FD2F72F
S11324900895A0E1B0E0EFE4F2E10C940E167C01A3
S11324A01B016A01FC0117821682838181FF44C3E8
S11324B09E012F5F3F4F3901F7019381F10193FD95
S11324C0859193FF81911F01882309F431C38532DB
S11324D039F493FD859193FF81911F01853239F47D
S11324E0B70190E00E94811856016501E5CF10E024
S11324F0512C912CFFE1F915D8F08B3279F038F496
S1132500803279F08332A1F4F92DF0612EC08D323E
S113251061F0803369F4292D21602DC0392D32609A
S1132520932E892D8460982E2AC0E92DE86015C069
S113253097FC2DC020ED280F2A3088F496FE06C0A3
S11325403AE0139F200D1124122F19C08AE0589EDF
S1132550200D1124522EE92DE0629E2E10C08E32E1
S113256031F496FCE5C2F92DF0649F2E08C08C3638
S113257021F4292D2068922E02C0883641F4F101FD
S113258093FD859193FF81911F018111B3CF9BEB43
S1132590980F933020F4992D9061805E07C09BE9D9
S11325A0980F933008F066C1992D9F7E96FF16E030
S11325B09F73992E853619F49064992E08C0863637
S11325C021F4392F3068932E02C01111115097FE57
S11325D007C01C3350F444244394410E27E00BC03D
S11325E0183038F027E017E005C027E09CE3492EB7
S11325F002C0212F412C560184E0A80EB11CF60123
S11326006081718182819381042DA3010E948817C6
S11326106C01F981FC87F0FF02C0F3FF06C091FC56
S113262006C092FE06C000E205C00DE203C00BE244
S113263001C000E08C858C7019F001115AC29BC254
S113264097FE10C04C0CFC85F4FF04C08A818133D2
S113265009F44A94141474F528E0241578F588E0F4
S1132660482E2CC096FC2AC0812F90E08C159D0525
S11326709CF03CEFC3163FEFD30674F0892D8068BD
S1132680982E0AC0E2E0F0E0EC0FFD1FE10FF11D0F
S11326908081803319F411501111F4CF97FE0EC0CC
S11326A044244394410E812F90E0C816D9062CF49B
S11326B01C1904C04424439401C010E097FE06C0D2
S11326C01C141D0434F4C601019605C085E090E095
S11326D002C081E090E001110196112331F0212F15
S11326E030E02F5F3F4F820F931F252D30E082177C
S11326F0930714F4581A01C0512C892D897049F498
S1132700552039F0B70180E290E00E9481185A9474
S1132710F7CF002329F0B701802F90E00E948118A1
S113272093FC09C0552039F0B70180E390E00E9482
S113273081185A94F7CF97FE4CC04601D7FE02C0C9
S1132740812C912CC60188199909F301E80FF91F0E
S1132750FE87ED87960124193109388B2F87012FC5
S113276010E01195019511093FEF8316930629F4A2
S1132770B7018EE290E00E948118C814D9044CF08D
S11327808F8598898815990524F4ED85FE858181C6
S113279001C080E3F1E08F1A91082D853E852F5FFB
S11327A03F4F3E872D87801691062CF0B70190E0AD
S11327B00E948118D9CFC814D90441F49A81963360
S11327C020F4953319F43C8534FF81E3B70190E09C
S11327D04EC08A81813319F09C859F7E9C87B70106
S11327E090E00E948118111105C094FC18C085E680
S11327F090E017C0B7018EE290E00E9481181E5F3E
S113280082E001E0080FF301E80FF11D8081B701B8
S113281090E00E948118802F0113F3CFE6CF85E466
S113282090E0B7010E948118D7FC06C0C114D104FE
S113283041F4EC85E4FF05C0D194C194D1088DE244
S113284001C08BE2B70190E00E94811880E32AE086
S1132850C216D1042CF08F5FFAE0CF1AD108F7CF5B
S1132860B70190E00E948118B701C601C0960E948A
S1132870811854C1833631F0833779F0833509F0F8
S113288056C020C0560132E0A30EB11CF60180816F
S1132890898301E010E0630112C05601F2E0AF0E3B
S11328A0B11CF601C080D18096FE03C0612F70E098
S11328B002C06FEF7FEFC6010E9476188C01F92DDC
S11328C0FF7714C0560122E0A20EB11CF601C080AD
S11328D0D18096FE03C0612F70E002C06FEF7FEFDE
S11328E0C6010E9460188C01F92DF0689F2EF3FD3B
S11328F01AC0852D90E008171907A8F4B70180E2E3
S113290090E00E9481185A94F4CFF60197FC8591C7
S113291097FE81916F01B70190E00E9481185110D8
S11329205A94015011090115110579F7F7C084363D
S113293011F0893661F5560197FE09C024E0A20E14
S1132940B11CF60160817181828193810AC0F2E039
S1132950AF0EB11CF60160817181072E000C880B4B
S1132960990BF92DFF769F2E97FF09C090958095BE
S1132970709561957F4F8F4F9F4FF0689F2E2AE08F
S113298030E0A3010E94DF18C82EC6183FC0092DED
S1132990853721F40F7E2AE030E01DC0097F8F3691
S11329A091F018F4883559F0C3C0803719F088378E
S11329B011F0BEC0006104FF09C0046007C094FEAA
S11329C008C0066006C028E030E005C020E130E021
S11329D002C020E132E0560107FF09C084E0A80EDE
S11329E0B11CF601608171818281938108C0F2E09B
S11329F0AF0EB11CF6016081718180E090E0A3010B
S1132A000E94DF18C82EC6180F77902E96FE0BC0B2
S1132A10092D0E7FC11650F494FE0AC092FC08C022
S1132A20092D0E7E05C0DC2C092D03C0DC2C01C051
S1132A30D12E04FF0DC0FE01EC0DF11D8081803309
S1132A4011F4097E09C002FF06C0D394D39404C0D4
S1132A50802F867809F0D39403FD11C000FF06C0CF
S1132A601C2DD51480F4150D1D190DC0D51458F462
S1132A70B70180E290E00E948118D394F7CFD51477
S1132A8010F45D1801C0512C04FF10C0B70180E39D
S1132A9090E00E94811802FF17C001FD03C088E77F
S1132AA090E002C088E590E0B7010CC0802F8678E2
S1132AB059F001FF02C08BE201C080E207FD8DE204
S1132AC0B70190E00E948118C11638F4B70180E381
S1132AD090E00E9481181150F7CFCA94F301EC0DD5
S1132AE0F11D8081B70190E00E948118C110F5CFDB
S1132AF015C0F4E0F51560F584E0581A93FE1FC084
S1132B00011127C02C8523FF2AC002EB10E0392DC8
S1132B103071932EF8018491811124C0552009F459
S1132B20E4CCB70180E290E00E9481185A94F6CF79
S1132B30F7018681978126C08FEF9FEF23C0B701ED
S1132B4080E290E00E9481185A945110F8CFD8CFB7
S1132B50512CB701802F90E00E948118D3CF06EB4F
S1132B6010E0D5CF91108052B70190E00E948118F7
S1132B700F5F1F4FCFCF23E0251510F483E0BDCFA7
S1132B80512CC0CF6096E2E10C942A16AA1BBB1B01
S1132B9051E107C0AA1FBB1FA617B70710F0A61B59
S1132BA0B70B881F991F5A95A9F780959095BC017A
S1132BB0CD010895052E97FB1EF400940E94F11593
S1132BC057FD07D00E94451607FC03D04EF40C9421
S1132BD0F11550954095309521953F4F4F4F5F4FDC
S1132BE0089590958095709561957F4F8F4F9F4F75
S1132BF00895EE0FFF1F0590F491E02D0994A29F14
S1132C00B001B39FC001A39F700D811D1124911DBC
S1132C10B29F700D811D1124911D08952F923F9232
S1132C204F925F926F927F928F929F92AF92BF92D8
S1132C30CF92DF92EF92FF920F931F93CF93DF9384
S1132C40CDB7DEB7CA1BDB0B0FB6F894DEBF0FBEE1
S1132C50CDBF09942A88398848885F846E847D842E
S1132C608C849B84AA84B984C884DF80EE80FD8030
S1132C700C811B81AA81B981CE0FD11D0FB6F894A6
S1132C80DEBF0FBECDBFED010895A1E21A2EAA1B2F
S1132C90BB1BFD010DC0AA1FBB1FEE1FFF1FA21708
S1132CA0B307E407F50720F0A21BB30BE40BF50B05
S1132CB0661F771F881F991F1A9469F7609570958E
S1132CC0809590959B01AC01BD01CF0108950F93B0
S1132CD01F93CF93DF938230910510F482E090E04C
S1132CE0E0916102F091620220E030E0A0E0B0E007
S1132CF0309719F140815181028113814817590796
S1132D00C8F08417950769F4109731F012960C9364
S1132D10129713961C9327C00093610210936202CA
S1132D2022C02115310519F04217530718F49A01EE
S1132D30BD01EF01DF01F801DBCF21153105F9F009
S1132D40281B390B2430310580F48A819B8161155D
S1132D50710521F0FB019383828304C09093620286
S1132D6080936102FE01329644C0FE01E20FF31F1C
S1132D708193919322503109398328833AC0209159
S1132D805F0230916002232B41F4209102013091C3
S1132D9003013093600220935F022091000130917F
S1132DA001012115310541F42DB73EB740910401CD
S1132DB050910501241B350BE0915F02F0916002F4
S1132DC0E217F307A0F42E1B3F0B2817390778F0FE
S1132DD0AC014E5F5F4F2417350748F04E0F5F1F5D
S1132DE05093600240935F028193919302C0E0E0AC
S1132DF0F0E0CF01DF91CF911F910F910895CF9310
S1132E00DF93009709F481C0FC0132971382128288
S1132E10A0916102B0916202109781F42081318106
S1132E20820F931F20915F023091600228173907A7
S1132E3051F5F0936002E0935F0267C0ED0120E07A
S1132E4030E0CE17DF0740F44A815B819E014115D3
S1132E505105F1F0EA01F5CFD383C283408151815A
S1132E60840F951FC817D90759F488819981840F55
S1132E70951F0296918380838A819B8193838283A9
S1132E802115310529F4F0936202E09361023DC0FB
S1132E90E901FB83EA8349915991C40FD51FEC17CB
S1132EA0FD0761F480819181840F951F0296E901E9
S1132EB099838883828193819B838A83E0E0F0E015
S1132EC012968D919C911397009719F0FD01DC01E6
S1132ED0F7CF8D919C9111979D012E5F3F4F820FEB
S1132EE0931F20915F02309160022817390769F41B
S1132EF0309729F4109262021092610202C0138288
S1132F001282B0936002A0935F02DF91CF91089583
S1132F10283008F027E03327DA01990F311D87FDA7
S1132F20916000966105710539F432602E5F3D931E
S1132F3030E32A95E1F708959F3F30F0803871051A
S1132F40610509F03C5F3C5F3D93913008F0806877
S1132F50911DDF93CF931F930F93FF92EF92192F3D
S1132F60987F9695E92F96959695E90FFF27EC5E45
S1132F70FE4F99273327EE24FF24A701E70105908C
S1132F800894079428F4360FE71EF81E491F511DB4
S1132F90660F771F881F991F0694A1F70590079461
S1132FA028F4E70EF81E491F561FC11D770F881F0E
S1132FB0991F661F0694A1F70590079428F4F80E4C
S1132FC0491F561FC71FD11D880F991F661F771FE2
S1132FD00694A1F70590079420F4490F561FC71FC4
S1132FE0D81F990F661F771F881F0694A9F784912D
S1132FF01095177041F0D695C79557954795F79456
S1133000E7941A95C1F7EAEBF0E0689415901591EE
S113301035916591959105907FE27395E118F10AD8
S1133020430B560BC90BD009C0F7E10CF11E431F2B
S1133030561FC91FD01D7EF4703311F48A95E6CF54
S1133040E894015030F0080F0AF40027021708F43E
S1133050202F2395022F7A3328F079E37D932A9544
S1133060E9F710C07D932A9589F60694979567959C
S1133070379517951794E118F10A430B560BC90BB2
S1133080D00998F023957E9173957A3308F070E314
S11330907C932013B8F77E9170617D9330F0839513
S11330A071E37D9370E32A95E1F71124EF90FF908B
S11330B00F911F91CF91DF91992787FD90950895E6
S11330C0FC010590615070400110D8F780959095EF
S11330D08E0F9F1F0895FB01DC010D900020E9F77E
S11330E0119701900D920020E1F70895FC016150C1
S11330F0704001900110D8F7809590958E0F9F1F16
S113310008950F931F93CF93DF93FB01238121FD38
S113311003C08FEF9FEF2CC022FF16C0468157815A
S1133120248135814217530744F4A081B1819D0164
S11331302F5F3F4F318320838C93268137812F5F0C
S11331403F4F3783268314C08B01EC01FB010084BD
S1133150F185E02D0995892BE1F6D80116968D911C
S11331609C911797019617969C938E931697CE0170
S1133170DF91CF911F910F910895AEE0B0E0E3ECA1
S1133180F8E10C941C160D891E8986E08C831A8341
S113319009838FEF9FE79E838D83AE01475E5F4F68
S11331A06F89788DCE0101960E944912EF81F885CE
S11331B0E00FF11F10822E96E4E00C943816FA0109
S11331C0AA27283051F1203181F1E8946F936E7F62
S11331D06E5F7F4F8F4F9F4FAF4FB1E03ED0B4E053
S11331E03CD0670F781F891F9A1FA11D680F791F94
S11331F08A1F911DA11D6A0F711D811D911DA11DA5
S113320020D009F468943F912AE0269F11243019B4
S1133210305D3193DEF6CF010895462F4770405D4F
S11332204193B3E00FD0C9F7F6CF462F4F70405DFE
S11332304A3318F0495D31FD4052419302D0A9F759
S1133240EACFB4E0A6959795879577956795BA9553
S1133250C9F700976105710508959B01AC010A2E19
S113326006945795479537952795BA95C9F7620FF0
S1133270731F841F951FA01D0895A8E1B0E042E0CC
S113328050E00C944B190196272F0E945A190C9464
S11332905919DC01CB01FC01F999FECF06C0F2BD3E
S11332A0E1BDF89A319600B40D9241505040B8F700
S11332B00895262FF999FECF92BD81BDF89A019702
S11332C000B4021639F01FBA20BD0FB6F894FA9A6A
S10D32D0F99A0FBE0895F894FFCF99
S11332DA00006302200064000600000000000500EC
S11332EAFBFF02003C006300000000000100010033
S11332FA500050000600000000001E001E0063007B
S113330A000002000400060008000A000C000E0077
S113331A100012001400160018001A001C001E00E7
S113332A2000220024005A005C0063000000000010
S113333A0000000000000000000000000000A0429D
S113334AA69BC43B0D0A2564240D0A00252E336668
S113335A240D0A00244125642400502564240054C1
S113336A252E30662400544D50252E3166240048FB
S10F337A252E3166240030782558000010
S9030000FC
