S016000045787465726E616C4465766963652E737265637B
S11300000C94D8000C94F5000C94F5000C94F500B5
S11300100C94F5000C94F5000C94F5000C94F50088
S11300200C94F5000C944F030C94F5000C94F5001B
S11300300C94F5000C9438030C94F5000C94F50022
S11300400C9421030C94F5000C94F5000C94F50029
S11300500C94F5000C94A5030C94F5000C94F50095
S11300600C94F5000C94F500B60AD509A30AD50939
S1130070A30AD509850AD509770AD509690AD509D4
S11300805B0AD5094E0AD5094E0AD509310AD509A4
S1130090310AD5095B0AD5095B0AD5095B0AD5097A
S11300A0170AD5095B0AD5095B0AD5095B0A6E6193
S11300B06E00696E660000407A10F35A00A0724E1A
S11300C018090010A5D4E80000E87648170000E4F9
S11300D00B54020000CA9A3B000000E1F505000041
S11300E080969800000040420F000000A0860100A6
S11300F00000102700000000E80300000000640076
S1130100000000000A0000000000010000000000E0
S11301102C76D888DC674F0823DFC1DFAE59E1B104
S1130120B796E5E3E453C63AE651997696E8E6C213
S11301308426EB898C9B62ED407C6FFCEFBC9C9F1A
S113014040F2BAA56FA5F490055A2AF75C936B6C3C
S1130150F9676DC11BFCE0E40D47FEF520E6B50030
S1130160D0ED902E0300943577050080841E08009E
S113017000204E0A000000C80C333333330F986E4E
S113018012831141EF8D2114893BE65516CFFEE60B
S1130190DB18D1844B381BF77C1D901DA4BBE424D1
S11301A0203284725E228100C9F124ECA1E53D274E
S11301B011241FBECFEFD8E0DEBFCDBF11E0A0E019
S11301C0B1E0E2E7F6E302C005900D92A639B1076B
S11301D0D9F722E0A6E9B1E001C01D92AA38B2071E
S11301E0E1F70E949E0B0C94371B0C940000CF92F5
S11301F0DF92EF92FF920F931F93CF93DF9300D080
S113020000D01F92CDB7DEB7AC01FE01319695E068
S1130210DF011D929A95E9F72C988FE99FE00197E9
S1130220F1F700C000002C9A249895ED9A95F1F707
S113023000001C9B0FC081E30F900F900F900F9054
S11302400F90DF91CF911F910F91FF90EF90DF906E
S1130250CF900895AFE3B1E01197F1F700C000002B
S11302601C9902C082E3E8CF8FE391E00197F1F794
S113027000C000007E0196E0E90EF11C01E010E0F0
S113028087E090E0A0E029EC30E003C02150310980
S1130290A9F11C9BFBCFB0EABA95F1F71C9B07C0F0
S11302A09801082E01C0220F0A94EAF7A22B29EC28
S11302B030E003C02150310919F11C99FBCF01979B
S11302C010F7A193EE16FF06D9F68FE99FE0019788
S11302D0F1F700C000002C9A249A09811A81102792
S11302E00127102799818A81980F8B81980F8C811F
S11302F0890F9D81891731F085E39ECF83E39CCFDD
S113030084E39ACF7B016A018B819C81782F692FCA
S113031087FD22C080E090E00E94961220E030E049
S113032040E251E40E94EE11D6016D937D938D93CA
S11303309C931397B80180E090E00E94961220E00D
S113034030E040E251E40E94EE11F70160837183D2
S11303508283938380E070CF7F7780E090E00E9477
S1130360961220E030E040E251E40E94EE11DC01FC
S1130370CB01B058F60180839183A283B383DACF93
S1130380FC01808191819C0197FD20C140918002F4
S113039050918102421753070CF484C080910601E6
S11303A0909107018436910509F47BC08091A601E0
S11303B09091A701892B21F01092A7011092A60118
S11303C08091A4019091A501892B21F01092A5019F
S11303D01092A4018091B0008F7D8093B00084E6D8
S11303E090E090930701809306011092AB01109264
S11303F0AA0180917802909179029093A901809347
S1130400A801089520917C0230917D0228173907B4
S11304104CF497FF2CC0809106019091070184361B
S1130420910529F187E88093B40087E890E09093E0
S113043007018093060180915A0290915B02892BF7
S113044049F08091A6019091A70101969093A7018C
S11304508093A60180917A0290917B029093AB01E4
S11304608093AA018091B00080628093B0002091B3
S1130470A6013091A70180915A0290915B028217E4
S1130480930778F485E090E09093500280934F02B4
S113049090934102809340021092A7011092A6010A
S11304A02A9A08954091AA015091AB014115510532
S11304B0B1F0415051095093AB014093AA01452B2F
S11304C081F78091B0008F7D8093B0008091780295
S11304D0909179029093A9018093A8010895409185
S11304E04002509141024150510943305105C8F234
S11304F040915C0250915D024115510509F473C0AD
S113050060917E0270917F02861797070CF463C096
S113051060910601709107016436710509F47DC08C
S11305206091A2017091A301621B730B6F3FFFEFF7
S11305307F0724F0623071050CF478C01092A50195
S11305401092A4013093A3012093A20120917A0276
S113055030917B02232B09F48ACF20917E023091C3
S11305607F028217930764F4181619060CF04ACF19
S113057020910601309107012436310509F442CF58
S11305808AEF8093B4008AEF90E090930701809300
S1130590060180915A0290915B02892B49F0809167
S11305A0A6019091A70101969093A7018093A601BB
S11305B080917A0290917B029093AB018093AA017F
S11305C08091B00080628093B00008952227332781
S11305D0281B390BDBCE60917C0270917D02681779
S11305E079070CF095CF2091A4013091A501421711
S11305F0530708F0ABCF85E090E0909350028093CE
S11306004F0284E090E09093410280934002109264
S1130610A5011092A4012A9A08953093A30120936E
S1130620A2012091A4013091A501E1CF2091A40160
S11306303091A5012F5F3F4F3093A5012093A40172
S1130640D6CF1F920F920FB60F9211248F939F93C0
S11306508091580290915902019690935902809387
S113066058029F918F910F900FBE0F901F90189575
S11306701F920F920FB60F9211248F939F93809124
S11306805602909157020196909357028093560216
S11306909F918F910F900FBE0F901F9018951F92EE
S11306A00F920FB60F9211242F933F934F935F93A2
S11306B06F937F938F939F93AF93BF93EF934091E7
S11306C05402509155024F5F5F4F5093550240932F
S11306D05402E1E0E09351029A01AFEAB7E40E94C8
S11306E0CB17281B390B36952795820F931F9295AC
S11306F082958F7089279F70892769E1689F90018F
S1130700699F300D11244217530711F4E0935202EC
S11307104D37510538F081E0809353021092550211
S11307201092540283E88093B200EF91BF91AF918D
S11307309F918F917F916F915F914F913F912F91F5
S11307400F900FBE0F901F9018951F920F920FB627
S11307500F9211242F933F934F935F936F937F9343
S11307608F939F93AF93BF93EF93FF9380E090E0B9
S11307700E94E80E809178009091790090933D0258
S113078080933C02FF91EF91BF91AF919F918F9124
S11307907F916F915F914F913F912F910F900FBE79
S11307A00F901F901895CF92DF92EF92FF920F93C4
S11307B01F93CF93DF93CDB7DEB760970FB6F8944E
S11307C0DEBF0FBECDBFCE0101967C0180E1F701F3
S11307D011928A95E9F78DE591E00E945911F894F8
S11307E00EE211E08AE5C82E81E0D82EF80181914D
S11307F091918F010E94091B9F938F93DF92CF9257
S1130800FF92EF920E94891AC7010E9459110F901A
S11308100F900F900F900F900F90F1E002351F078B
S113082029F7789460960FB6F894DEBF0FBECDBF5B
S1130830DF91CF911F910F91FF90EF90DF90CF90B8
S11308400895CF92DF92EF92FF920F931F93CF936D
S1130850DF93CDB7DEB760970FB6F894DEBF0FBE57
S1130860CDBF8E010F5F1F4F80E1F80111928A9571
S1130870E9F7809183028F93809182028F9388E5B8
S113088091E09F938F931F930F930E94891AC8013D
S11308900E945911809181028F93809180028F93DD
S11308A08AE5E82E81E0F82EFF92EF921F930F93D2
S11308B00E94891AC8010E94591180917F028F9366
S11308C080917E028F93FF92EF921F930F930E9469
S11308D0891AC8010E94591180917D028F938091D9
S11308E07C028F93FF92EF921F930F930E94891AB9
S11308F0C8010E94591180917B028F9380917A02E2
S11309008F93FF92EF921F930F930E94891AC8014D
S11309100E945911809179028F93809178028F936C
S1130920FF92EF921F930F930E94891A0FB6F894C7
S1130930DEBF0FBECDBFC8010E945911809177025E
S11309408F93809176028F93FF92EF921F930F9370
S11309500E94891AC8010E945911809175028F93CF
S1130960809174028F93809173028F9380917202AD
S11309708F9390E6C92E91E0D92EDF92CF921F93E8
S11309800F930E94891AC8010E9459118091710223
S11309908F93809170028F9380916F028F938091D7
S11309A06E028F93DF92CF921F930F930E94891A46
S11309B0C8010E94591180916D028F9380916C023D
S11309C08F93FF92EF921F930F930E94891AC8018D
S11309D00E94591180916B028F9380916A028F93C8
S11309E0FF92EF921F930F930E94891A0FB6F89407
S11309F0DEBF0FBECDBFC8010E94591180916902AC
S1130A008F93809168028F93FF92EF921F930F93BD
S1130A100E94891AC8010E945911809167028F931C
S1130A20809166028F93809165028F938091640216
S1130A308F93DF92CF921F930F930E94891AC8015C
S1130A400E945911809163028F93809162028F9367
S1130A50FF92EF921F930F930E94891AC8010E947C
S1130A605911809161028F93809160028F93FF925C
S1130A70EF921F930F930E94891AC8010E94591183
S1130A8080915F028F9380915E028F93FF92EF9229
S1130A901F930F930E94891A0FB6F894DEBF0FBEFE
S1130AA0CDBFC8010E94591180915D028F9380913E
S1130AB05C028F93FF92EF921F930F930E94891A07
S1130AC0C8010E94591180915B028F9380915A0250
S1130AD08F93FF92EF921F930F930E94891AC8017C
S1130AE00E9459110FB6F894DEBF0FBECDBF6096B9
S1130AF00FB6F894DEBF0FBECDBFDF91CF911F912B
S1130B000F91FF90EF90DF90CF9008950F931F9374
S1130B10CF93DF93F894CAE0D1E00EE211E069913B
S1130B207991F801819191918F010E940F1BF1E05D
S1130B30CE32DF07A1F77894DF91CF911F910F9107
S1130B400895F89480E090E00E94091B909383023A
S1130B508093820282E090E00E94091B90938102BC
S1130B608093800284E090E00E94091B90937F02AE
S1130B7080937E0286E090E00E94091B90937D02A0
S1130B8080937C0288E090E00E94091B90937B0292
S1130B9080937A028AE090E00E94091B9093790284
S1130BA0809378028CE090E00E94091B9093770276
S1130BB0809376028EE090E00E94091BBC0180E0E5
S1130BC090E00E94961220E030E04AE754E40E944C
S1130BD0EE119B01AC0160E070E080E89FE30E94AD
S1130BE07C116093720270937302809374029093E9
S1130BF0750280E190E00E94091BBC0180E090E056
S1130C000E94961220E030E04AE754E40E94EE117C
S1130C109B01AC0160E070E080E89FE30E947C11DE
S1130C2060936E0270936F028093700290937102CE
S1130C3082E190E00E94091B90936D0280936C0204
S1130C4084E190E00E94091B90936B0280936A02F6
S1130C5086E190E00E94091B9093690280936802E8
S1130C6088E190E00E94091BBC0180E090E00E94B2
S1130C70961220E030E04AE754E40E94EE116093BB
S1130C8064027093650280936602909367028AE11E
S1130C9090E00E94091B90936302809362028CE1AE
S1130CA090E00E94091B90936102809360028EE1A0
S1130CB090E00E94091B90935F0280935E0280E2A1
S1130CC090E00E94091B90935D0280935C0282E293
S1130CD090E00E94091B90935B0280935A027894DF
S1130CE008958F929F92AF92BF92CF92DF92EF922C
S1130CF0FF920F931F93CF93DF934B015A01690126
S1130D00DC0111962C9111972F938C918F9388E687
S1130D1091E09F938F93CCE2D2E0DF93CF930E9434
S1130D20891ABE018CEA91E00E94371AD401119607
S1130D308C9111978F938C918F938EE691E09F9372
S1130D408F93DF93CF930E94891ABE018CEA91E0BE
S1130D500E94371AD50111968C9111978F938C911B
S1130D608F9383E791E09F938F93DF93CF930E94B8
S1130D70891ABE018CEA91E00E94371AD6011396B3
S1130D808C9113978F9312968C9112978F9311963F
S1130D908C9111978F938C918F938AE791E09F9315
S1130DA08F93DF93CF930E94891ABE018CEA91E05E
S1130DB00E94371AD80113968C9113978F93129629
S1130DC08C9112978F9311968C9111978F938C918C
S1130DD08F9381E891E09F938F93DF93CF930E9449
S1130DE0891A8DB79EB782960FB6F8949EBF0FBE30
S1130DF08DBFBE018CEA91E00E94371AD701139689
S1130E008C9113978F9312968C9112978F931196BE
S1130E108C9111978F938C918F938AE891E09F9393
S1130E208F93DF93CF930E94891ABE018CEA91E0DD
S1130E300E94371A8CEA91E00E9468111F928F93E6
S1130E4081E991E09F938F93DF93CF930E94891A56
S1130E50BE018CEA91E00E94371A8CEA91E00E946C
S1130E60591180E8ECEAF1E0DF011D928A95E9F777
S1130E70EDB7FEB73E960FB6F894FEBF0FBEEDBFBA
S1130E80DF91CF911F910F91FF90EF90DF90CF9062
S1130E90BF90AF909F908F90089586E184B989E3C5
S1130EA085B98FE387B980EC88B98CE08AB983EF80
S1130EB08BB90E9486050E94A10581E00E94D00E94
S1130EC082E090E00E94421181E090E00E94421191
S1130ED082E090E00E94E80E7894A89599E288E177
S1130EE00FB6F894A895809360000FBE90936000AD
S1130EF0299A0895FC014081518157FD95C0509372
S1130F00A1014093A001483E83E05807BCF089E06A
S1130F1090E090939F0180939E0190939D01809314
S1130F209C01459B31C080919C01806D88B95A9B7E
S1130F3076C08081918197FF5A9808959A01453629
S1130F4051050CF048C0ADECBCEC0E94CB17969553
S1130F508795969587959695879590939F0180930D
S1130F609E019C01220F331F880F991F880F991F20
S1130F70880F991F820F931F481B590B50939D0193
S1130F8040939C014599CFCF80919E01806E88B992
S1130F908091080190910901079771F2E0914D0247
S1130FA0F0914E02EE0FFF1FE25DFE4F80819181B2
S1130FB09C012F7E232B19F00E9709F0BDCF5A996F
S1130FC037C08091A0019091A1018436910508F069
S1130FD0B4CF5A9A08953695279536952795ABE759
S1130FE0B4E10E94CB179695879590939F018093C7
S1130FF09E019A01ADECBCEC0E94CB17AC01569556
S1131000479556954795569547959A010E94CB1753
S1131010969587959695879596958795A2CF808185
S1131020918197FDD6CF089551954195510967CF88
S11310308091A0019091A1018436910508F47DCF9F
S11310405A987BCF98B188B190718072892B41F402
S113105080914002806E88B95A9B05C05A980895C1
S113106088B1807C88B908954E9B14C080919A0100
S113107090919B010197C9F04F9920C080919801EC
S11310809091990101969093990180939801019709
S1131090D9F0089580919A0190919B0101969093C3
S11310A09B0180939A01019739F781E08093430271
S11310B010929B0110929A014F9BE0CF809198016E
S11310C090919901019729F781E08093420210924F
S11310D09901109298010895809108019091090155
S11310E0209143028630910531F02223C1F0109201
S11310F0480210924702222389F0209142022223BF
S113110069F08630910509F440C0079769F081E0E1
S11311108093450210924302109242020895309146
S113112042023111E4CF0895E0914D02F0914E0254
S1131130EE0FFF1FE25DFE4F808191818C3591059A
S113114009F43DC083369105A1F18A359105D1F1A9
S113115083E090E0909309018093080190935002FA
S113116080934F02F894E0914D02F0914E02EE0FFD
S1131170FF1FE25DFE4F808191810E94091B9093C5
S11311808502809384027894C5CF8091B0008F7DCE
S11311908093B00087E090E0909309018093080168
S11311A09093500280934F0210924C0210924B0283
S11311B0B1CF0E94860581E080933F02ABCF0E94AD
S11311C02104A8CF0E94D303A5CF20915E023091C1
S11311D05F022115310571F1FC01808191810A972B
S11311E020F5809196019091970101969093970133
S11311F08093960141E050E05093410240934002B5
S1131200FB01408151814A305105B8F12817390753
S113121000F52A9A85E090E09093500280934F0263
S113122010929701109296010895FB01808191819B
S11312300A9780F08091960190919701892B49F04B
S1131240109297011092960110924102109240025E
S11312500895089580919601909197010196909335
S113126097018093960142E050E0509341024093ED
S113127040022817390768F7CCCF43E050E0509379
S1131280410240934002C2CF80913E02882309F17B
S113129080914F0290915002892BD9F4809143029E
S11312A0811104C0809142028823E9F184E090E036
S11312B09093500280934F02809162029091630256
S11312C090934C0280934B0210924302109242027C
S11312D0089580914302882389F08091B4008A3F65
S11312E041F18AEF8093B4008091B00080628093D2
S11312F0B00081E080934402109243028091420244
S1131300882389F08091B400873871F087E880934E
S1131310B4008091B00080628093B00081E080933B
S113132044021092420208958091B00085FDF6CFE8
S1131330EDCF8091B00085FDDCCFD3CF8091430207
S1131340882379F080914D0290914E028431910569
S113135028F4019690934E0280934D02109243021A
S1131360089580914202882369F080914D02909102
S11313704E02009729F0019790934E0280934D02FC
S113138010924202089580914502811129C0E09192
S11313904D02F0914E02EE0FFF1FE25DFE4F0190F1
S11313A0F081E02DE332F105B8F087E090E090930E
S11313B00901809308019093500280934F02109288
S11313C04E0210924D0210928502109284021092E5
S11313D04302109242020895EC5CFF4F0C94C5172F
S11313E0F8946091840270918502E0914D02F0912D
S11313F04E02EE0FFF1FE25DFE4F808191810E943D
S11314000F1B78941092850210928402109243026A
S11314101092420287E090E09093090180930801C2
S11314209093500280934F02109245020895809148
S113143043028111BAC080914202882341F2809113
S1131440840290918502181619060CF0C0CF0197FA
S11314509093850280938402109243021092420278
S1131460089580914302882361F0809184029091D1
S11314708502833691052CF401969093850280931E
S1131480840280914202882309F4A1CF80918402CE
S11314909091850282309105D4F699CF80914302D0
S11314A0882349F28091840290918502873E23E04B
S11314B092070CF655C080914302882309F4BBCFF0
S11314C08091840290918502833691050CF0B3CF0C
S11314D047C080914302882309F4ADCF80918402F0
S11314E0909185028C3391050CF0A5CF39C0809181
S11314F04302882309F49FCF80918402909185024E
S1131500833091050CF097CF2BC080914302882340
S113151059F0809184029091850297FF05C001964D
S1131520909385028093840280914202882309F477
S11315304ECF80918402909185028C3F2FEF9207C9
S11315400CF445CF84CF80914302882309F473CFF0
S11315508091840290918502853091050CF06BCFC7
S11315600196909385028093840265CF8091430213
S1131570882361F08091840290918502883C9105D2
S11315802CF4019690938502809384028091420208
S1131590882309F41CCF80918402909185028933B9
S11315A02FEF92070CF413CF52CF809184029091C5
S11315B0850218161906A4F620914202222309F482
S11315C006CF45CF299881E00E94A70E81E00E94B2
S11315D0B90E109241021092400284E090E0909380
S11315E0500280934F028091620290916302909323
S11315F04C0280934B0281E00895299A8091B000B7
S11316008F7D8093B0002A9880E00E94A70E80E02E
S11316100E94B90E84E690E090930701809306013E
S11316201092AB011092AA011092A9011092A80184
S11316301092A7011092A60180E090E00E94E80EAB
S113164080914F0290915002059741F01092500200
S113165010924F0210924C0210924B0280E00895B7
S11316608F929F92AF92BF92CF92DF92EF92FF92AE
S1131670CF93DF936B017A01E901BA01FC01808108
S113168091810E94D70FBE01F601808191810E9451
S1131690D70FF70180809180A280B380C880D98061
S11316A0EA80FB80A7019601C501B4010E94E911FB
S11316B0181644F120E030E0A901C701B6010E94E8
S11316C0E9118823A1F1A7019601C501B4010E9483
S11316D0EE119B01AC0160E070E080E89FE30E94A2
S11316E07C1120E030E04AE754EC0E944D13DF9176
S11316F0CF91FF90EF90DF90CF90BF90AF909F90ED
S11317008F900895A5019401C701B6010E94EE11BE
S11317109B01AC0160E070E080E89FE30E947C11D3
S113172020E030E04AE754E40E944D13E0CFC12C9E
S1131730D12C80E8E82E8FE3F82EC5CFCF93DF932A
S1131740CDB7DEB7C455D1090FB6F894DEBF0FBECE
S1131750CDBF2D961CAE1DAE1EAE1FAE2D97299685
S11317601CAE1DAE1EAE1FAE299725961CAE1DAE37
S11317701EAE1FAE259763961FAE1EAE639761968D
S11317801FAE1EAE61972F961FAE1EAE2F971DA6DD
S11317901EA61FA618AA1AAA19AA00E810E01CABD4
S11317A00BAB80E092E00E9433189EAB8DAB1FAA76
S11317B018AE19AE1AAE1CAE1BAE1EAF0DAF80E054
S11317C092E00E94331821969FAF8EAF21970E941A
S11317D04D071F8A188E198E1A8E1B8E1C8E1D8E15
S11317E01E8E1F8E18A219A21AA2C0906802D09051
S11317F06902B60180E090E00E9496126BA37CA37C
S11318008DA39EA3D8A6CFA2809064029090650277
S1131810A0906602B090670289A69AA6ABA6BCA661
S113182019821A821B821C821D821E821F821886C4
S113183019861A861B861C866D877E878F87988BF0
S1131840DA8AC98A8B8A9C8AAD8ABE8AC12CD12C39
S1131850812C912CA12CB12C36E0632E712C45E007
S1131860442E512C54E0252E312C3EC080913E0252
S1131870882309F401C21899EBC08114910409F476
S113188005C1A114B10409F49DC116BC10928500D0
S1131890109284001092590210925802109257022A
S11318A0109256028114910419F021E0821A9108D1
S11318B0A114B10419F031E0A31AB10880914B02CC
S11318C090914C02009709F492C1019790934C02B5
S11318D080934B02892B09F08AC110925002109216
S11318E04F0210925302A895809151028823D9F097
S11318F080914F02909150028430910509F40AC2FC
S11319008730910509F4F7C18330910509F4EAC1E0
S1131910892B39F4449902C0459B03C088B1807C6B
S113192088B91092510280915202882349F1809122
S11319303E0281116BC10E9434080E946C088091A0
S11319400801909109018330910509F464C186303E
S1131950910509F4B3C1079709F4BDC18091490207
S113196090914A02892B11F04F99DEC18091440273
S1131970882321F04E9B02C04F99DBC11092520282
S113198082E0C816D10450F0BE016B5B7F4FCE01DC
S1131990875B9F4F0E94F700C12CD12C809153028A
S11319A0882309F4A0CF4F9946C1809108019091F2
S11319B009018730910509F455C1039709F443C11E
S11319C08091490290914A02059750F480913F0218
S11319D0811106C080914702909148024E9778F198
S11319E010924A0210924902109248021092470241
S11319F010924E0210924D027092090160920801F9
S1131A0010923F0280913E02882309F4FAC030927A
S1131A10500220924F02809162029091630290934F
S1131A204C0280934B028091400290914102892B99
S1131A3021F05092500240924F020E94A105189B3F
S1131A4015CF189B1AC080913E02882309F42ACF2F
S1131A500E94FD0A80933E02CE0147960E947C10AC
S1131A60CE0101960E947C1021E0AE01435D5F4FE0
S1131A7060E070E0CB010E94981080913E028823C0
S1131A8009F410CF8114910409F0FBCE85B192E0E2
S1131A90892785B986B52091580265962FAF659739
S1131AA064961FAE649765962EAD3FAD6597280F7B
S1131AB0311DC90160916C0270916D020E949217F0
S1131AC080E090E00E94961220917202309173029D
S1131AD040917402509175020E944D130E94671246
S1131AE063967FAF6EAF63974091840050918500F9
S1131AF02091560230915702AFEFBFEF0E94CB17EF
S1131B00640F751F811D911D20916A0230916B0233
S1131B1040E050E00E94A617CA01B9010E94981241
S1131B2020916E0230916F024091700250917102C7
S1131B300E944D130E94671261967FAF6EAF61974A
S1131B409E012F5F3F4FAE01495E5F4FBE01615B57
S1131B507F4FCE018F5A9F4F0E94300B0E9460121C
S1131B602F967FAF6EAF2F9760913C0270913D022C
S1131B7080E090E00E94961220E030E04AE75FE3C4
S1131B800E944D1325966CAF7DAF8EAF9FAF259706
S1131B90CE018B5B9F4F7C018E01075B1F4F9E0123
S1131BA02F5B3F4FAE01435B5F4FBE01615B7F4FD5
S1131BB00C960E9471069FEFC91AD90AA114B104A8
S1131BC009F063CEBE01615B7F4FCE018F5A9F4FF8
S1131BD00E94E5088091A8019091A901009709F459
S1131BE0B0C001979093A9018093A8014ECE809133
S1131BF04F0290915002059709F073CE0E9422087B
S1131C0070CE1092500210924F020DCF81E090E0FE
S1131C100E94E80E90CE20914602222309F449C086
S1131C201092500210924F0231E023272093460273
S1131C300E94C30993CE80910801909109018730D5
S1131C40910509F0BACE8091490290914A022091FF
S1131C504702309148022F5F3F4F30934802209350
S1131C604702B2CE8091490290914A020196909324
S1131C704A0280934902EBCF0E94E20A80933E021B
S1131C8010925302A0907602B090770263961FAE32
S1131C901EAE639761961FAE1EAE61972F961FAE60
S1131CA01EAE2F9782E0C82ED12C9EE1892E912C56
S1131CB01BCE9093500280934F02B6CF0E944409EA
S1131CC080910801909109018730910521F00397D3
S1131CD009F044CEADCF0E949E09809108019091F5
S1131CE00901F5CF84E892E00E947A0780914F02BF
S1131CF0909150020DCE80914D0290914E02880F2A
S1131D00991F825D9E4F0E947A0780914F029091A5
S1131D105002FACDCE01835B9F4F0E947A078091D7
S1131D204F0290915002ECCD10924A021092490257
S1131D301DCE8091B0008F7D8093B000109244023C
S1131D401DCECE01835B9F4F0E94C0019ECD8111A9
S1131D5007C080916E008E7F80936E0015BC08953D
S1131D6087E085BD80916E00816080936E0016BC13
S1131D700895811108C080916F008E7F80936F0059
S1131D8010928100089587E08093810080916F0014
S1131D90816080936F0010928500109284000895F2
S1131DA01092B200811108C01092B10080917000AD
S1131DB08E7F80937000089583E08093B00087E065
S1131DC08093B100809170008160809370000895C9
S1131DD0009779F0019731F480917A0080648093C0
S1131DE07A0008958FE880937A0087E480937C00DA
S1131DF0089580917A008F7B80937A0008958F9262
S1131E009F92AF92BF92CF92DF92EF92FF920F9385
S1131E101F93CF93DF93FB0180809180A280B380D6
S1131E20EC018C011E5FC12CD12C760115C0B901C7
S1131E30330F880B990B0E9498129B01AC010E94EE
S1131E404D139B01AC01C701B6010E947D116B01CA
S1131E507C010C171D0791F06991799189919991F1
S1131E60A50194010E947C110E9460129B0177FFDE
S1131E70DECF22273327261B370BD9CF20E030E0D3
S1131E8040E05CE30E944D130E94C0139B01AC012F
S1131E900E947D11DF91CF911F910F91FF90EF90E0
S1131EA0DF90CF90BF90AF909F908F9008954F9206
S1131EB05F926F927F928F929F92AF92BF92CF92D6
S1131EC0DF92EF92FF920F931F93CF93DF934B0117
S1131ED05C01EA01211152C00E811F8148805980A2
S1131EE06A807B8028853985CC80DD807601EE0C84
S1131EF0FF1CEE0CFF1C8FEFC81AD80AE20EF31E6B
S1131F00F7012081318142815381C501B4010E94CE
S1131F107C11A30192010E947D11688379838A83D5
S1131F209B83F70180829182A282B382C601B801A9
S1131F300E9492179D838C83B80180E090E00E94F8
S1131F4096129B01AC01688179818A819B810E94F0
S1131F50EE11688379838A839B83DF91CF911F91EC
S1131F600F91FF90EF90DF90CF90BF90AF909F9034
S1131F708F907F906F905F904F9008951882198290
S1131F801A821B820E811F81C801880F991F880F36
S1131F90991F0E943318888799879C01CC24C39485
S1131FA0D12CE12CF12C412C512C3201A7CF4F9292
S1131FB05F926F927F928F929F92AF92BF92CF92D5
S1131FC0DF92EF92FF920F931F93CF93DF9300D092
S1131FD000D000D0CDB7DEB78C017E836D83DB01EA
S1131FE01C96CD90DD90ED90FC901F9750966D91CE
S1131FF07C91519780E090E00E949612A70196018F
S11320000E947D119B01AC01C701B6010E94EE1133
S11320104B015C01ED81FE81608771878287938724
S11320204480558066807780B80180E090E00E940B
S11320309612A30192010E947C11A50194010E94B1
S11320404D13A30192010E947D1169837A838B83CE
S11320509C83AD81BE816D937D938D939C931397E7
S11320609B01AC01C301B2010E947C119F77ED81F9
S1132070FE8122893389448955890E944D132B019D
S11320803C01A501940160E070E080E89FE30E94B8
S11320907C11A70196010E944D139B01AC01C30161
S11320A0B2010E947D11AD81BE811C966D937D931A
S11320B08D939C931F9789819A81AB81BC81ED811B
S11320C0FE8184839583A683B78326960FB6F894FE
S11320D0DEBF0FBECDBFDF91CF911F910F91FF9057
S11320E0EF90DF90CF90BF90AF909F908F907F90B4
S11320F06F905F904F900895CF93DF93EC016889C0
S1132100798980E090E00E9496126C877D878E87A3
S11321109F87188219821A821B821C821D821E824A
S11321201F82188619861A861B86DF91CF9108951F
S11321304F925F926F927F92AF92BF92CF92DF9253
S1132140EF92FF920F931F93CF93DF937B018C0148
S1132150EA0121115FC08C819D812E813F8182170C
S11321609307D0F1488059806A807B8020E030E07A
S1132170A901C301B2010E94E911882309F467C0CF
S1132180AA84BB84CC84DD849701A801B501C6016F
S11321900E947C110E9460129B0177FD6EC0B90100
S11321A0330F880B990B0E949812A30192010E948D
S11321B04813181624F5B501C601DF91CF911F917C
S11321C00F91FF90EF90DF90CF90BF90AF907F90F2
S11321D06F905F904F900895E885F9859C012F5F7B
S11321E03F4F3D832C83880F991F880F991FE80F59
S11321F0F91FCB01D80180839183A283B383AE01FD
S1132200465F5F4F20E0B701C8010E94570F570196
S11322106801D1CF1D821C82188219821A821B8206
S11322208E819F81880F991F880F991F0E943318F0
S113223099878887AE01465F5F4F21E0B701C801E7
S11322400E94570FA12CB12CC12CD12CB4CF20E06B
S11322506E018AE0C80ED11CA601B701C8010E9414
S1132260570FB601888599850E94FF0E2B013C010A
S1132270688379838A839B8383CF22273327261B12
S1132280370B8DCF009791F0019721F488E080936C
S1132290C10008951092C10086E08093C20083E0DB
S11322A090E09093C5008093C40008951092C100FB
S11322B00895FC012081222351F031969091C000B1
S11322C095FFFCCF2093C60021912111F7CF0895EB
S11322D0FC0180E047E09191992369F0892728E087
S11322E030E004C0880F21503109A9F387FFFACFE9
S11322F0880F8427F8CF08955058BB27AA270E9437
S113230094110C940E130E94001338F00E940713CA
S113231020F039F49F3F19F426F40C94FD120EF4C6
S1132320E095E7FB0C94F712E92F0E941F1358F372
S1132330BA17620773078407950720F079F4A6F5A6
S11323400C9441130EF4E0950B2EBA2FA02D0B0123
S1132350B90190010C01CA01A0011124FF27591BE6
S113236099F0593F50F4503E68F11A16F040A22FEC
S1132370232F342F4427585FF3CF4695379527955D
S1132380A795F0405395C9F77EF41F16BA0B620B5C
S1132390730B840BBAF09150A1F0FF0FBB1F661FA3
S11323A0771F881FC2F70EC0BA0F621F731F841FE6
S11323B048F4879577956795B795F7959E3F08F00C
S11323C0B0CF9395880F08F09927EE0F97958795CE
S11323D008950E94D31208F481E008950E94021225
S11323E00C940E130E94071358F00E94001340F03F
S11323F029F45F3F29F00C94F71251110C94421305
S11324000C94FD120E941F1368F39923B1F3552312
S113241091F3951B550BBB27AA27621773078407F3
S113242038F09F5F5F4F220F331F441FAA1FA9F389
S113243035D00E2E3AF0E0E832D091505040E69577
S1132440001CCAF72BD0FE2F29D0660F771F881FD8
S1132450BB1F261737074807AB07B0E809F0BB0BCB
S1132460802DBF01FF2793585F4F3AF09E3F5105DF
S113247078F00C94F7120C9442135F3FE4F3983E07
S1132480D4F3869577956795B795F7959F5FC9F7C8
S1132490880F911D9695879597F90895E1E0660F49
S11324A0771F881FBB1F621773078407BA0720F0C2
S11324B0621B730B840BBA0BEE1F88F7E09508952B
S11324C00E9467126894B1110C94421308950E94FB
S11324D0271388F09F5798F0B92F9927B751B0F078
S11324E0E1F0660F771F881F991F1AF0BA95C9F794
S11324F014C0B13091F00E944113B1E008950C94DE
S11325004113672F782F8827B85F39F0B93FCCF390
S1132510869577956795B395D9F73EF49095809510
S1132520709561957F4F8F4F9F4F0895E89409C030
S113253097FB3EF490958095709561957F4F8F4FF2
S11325409F4F9923A9F0F92F96E9BB279395F69508
S1132550879577956795B795F111F8CFFAF4BB0F86
S113256011F460FF1BC06F5F7F4F8F4F9F4F16C0EA
S1132570882311F096E911C0772321F09EE8872F74
S1132580762F05C0662371F096E8862F70E060E030
S11325902AF09A95660F771F881FDAF7880F9695A9
S11325A0879597F90895990F0008550FAA0BE0E84D
S11325B0FEEF16161706E807F907C0F01216130601
S11325C0E407F50798F0621B730B840B950B39F441
S11325D00A2661F0232B242B252B21F408950A26A7
S11325E009F4A140A6958FEF811D811D089597F9E7
S11325F09F6780E870E060E008959FEF80EC0895A5
S113260000240A94161617061806090608950024CD
S11326100A9412161306140605060895092E039447
S1132620000C11F4882352F0BB0F40F4BF2B11F4BB
S113263060FF04C06F5F7F4F8F4F9F4F089557FD1A
S11326409058440F551F59F05F3F71F04795880F1C
S113265097FB991F61F09F3F79F0879508951216B3
S113266013061406551FF2CF4695F1DF08C016165F
S113267017061806991FF1CF869571056105089410
S11326800895E894BB2766277727CB0197F9089527
S11326900E94D31208F48FEF08950E9460130C94E3
S11326A00E130E94001338F00E94071320F09523A4
S11326B011F00C94F7120C94FD1211240C94421393
S11326C00E941F1370F3959FC1F3950F50E0551F9F
S11326D0629FF001729FBB27F00DB11D639FAA2773
S11326E0F00DB11DAA1F649F6627B00DA11D661FC2
S11326F0829F2227B00DA11D621F739FB00DA11DE3
S1132700621F839FA00D611D221F749F3327A00D9C
S1132710611D231F849F600D211D822F762F6A2F38
S113272011249F5750409AF0F1F088234AF0EE0F9D
S1132730FF1FBB1F661F771F881F91505040A9F7CA
S11327409E3F510580F00C94F7120C9442135F3FA6
S1132750E4F3983ED4F3869577956795B795F79506
S1132760E7959F5FC1F7FE2B880F911D969587957E
S113277097F9089519F416F40C94FD120C940014AE
S11327800E942713B8F39923C9F3B6F39F57550B47
S113279087FF0E940E140024A0E640EA90018058AE
S11327A05695979528F4805C660F771F881F20F054
S11327B026173707480730F4621B730B840B202954
S11327C031294A2BA69517940794202531254A27A9
S11327D058F7660F771F881F20F02617370748071A
S11327E030F4620B730B840B200D311D411DA09539
S11327F081F7B901842F9158880F9695879508958C
S11328009F3F31F0915020F4879577956795B79560
S1132810880F911D9695879597F90895915050408A
S1132820660F771F881FD2F70895A0E1B0E0EBE1AF
S1132830F4E10C94DA177C011B016A01FC01178294
S11328401682838181FF44C39E012F5F3F4F39016C
S1132850F7019381F10193FD859193FF81911F010C
S1132860882309F431C3853239F493FD859193FFAC
S113287081911F01853239F4B70190E00E944D1A0D
S113288056016501E5CF10E0512C912CFFE1F915BB
S1132890D8F08B3279F038F4803279F08332A1F4B5
S11328A0F92DF0612EC08D3261F0803369F4292D49
S11328B021602DC0392D3260932E892D8460982E8D
S11328C02AC0E92DE86015C097FC2DC020ED280F23
S11328D02A3088F496FE06C03AE0139F200D112496
S11328E0122F19C08AE0589E200D1124522EE92D72
S11328F0E0629E2E10C08E3231F496FCE5C2F92DB2
S1132900F0649F2E08C08C3621F4292D2068922E65
S113291002C0883641F4F10193FD859193FF8191C2
S11329201F018111B3CF9BEB980F933020F4992DA5
S11329309061805E07C09BE9980F933008F066C1F0
S1132940992D9F7E96FF16E09F73992E853619F474
S11329509064992E08C0863621F4392F3068932E5E
S113296002C01111115097FE07C01C3350F44424C7
S11329704394410E27E00BC0183038F027E017E0ED
S113298005C027E09CE3492E02C0212F412C5601AB
S113299084E0A80EB11CF60160817181828193816B
S11329A0042DA3010E9454196C01F981FC87F0FFE6
S11329B002C0F3FF06C091FC06C092FE06C000E20E
S11329C005C00DE203C00BE201C000E08C858C70F1
S11329D019F001115AC29BC297FE10C04C0CFC8521
S11329E0F4FF04C08A81813309F44A94141474F501
S11329F028E0241578F588E0482E2CC096FC2AC0DF
S1132A00812F90E08C159D059CF03CEFC3163FEFA1
S1132A10D30674F0892D8068982E0AC0E2E0F0E0B5
S1132A20EC0FFD1FE10FF11D8081803319F411506B
S1132A301111F4CF97FE0EC044244394410E812F0C
S1132A4090E0C816D9062CF41C1904C044244394FD
S1132A5001C010E097FE06C01C141D0434F4C60126
S1132A60019605C085E090E002C081E090E001118C
S1132A700196112331F0212F30E02F5F3F4F820F59
S1132A80931F252D30E08217930714F4581A01C0C0
S1132A90512C892D897049F4552039F0B70180E211
S1132AA090E00E944D1A5A94F7CF002329F0B70101
S1132AB0802F90E00E944D1A93FC09C0552039F0F4
S1132AC0B70180E390E00E944D1A5A94F7CF97FE25
S1132AD04CC04601D7FE02C0812C912CC601881936
S1132AE09909F301E80FF91FFE87ED879601241970
S1132AF03109388B2F87012F10E0119501951109A9
S1132B003FEF8316930629F4B7018EE290E00E940A
S1132B104D1AC814D9044CF08F85988988159905E5
S1132B2024F4ED85FE85818101C080E3F1E08F1AF4
S1132B3091082D853E852F5F3F4F3E872D87801658
S1132B4091062CF0B70190E00E944D1AD9CFC81419
S1132B50D90441F49A81963320F4953319F43C85D1
S1132B6034FF81E3B70190E04EC08A81813319F0CC
S1132B709C859F7E9C87B70190E00E944D1A11119D
S1132B8005C094FC18C085E690E017C0B7018EE23A
S1132B9090E00E944D1A1E5F82E001E0080FF301ED
S1132BA0E80FF11D8081B70190E00E944D1A802F3B
S1132BB00113F3CFE6CF85E490E0B7010E944D1AEC
S1132BC0D7FC06C0C114D10441F4EC85E4FF05C070
S1132BD0D194C194D1088DE201C08BE2B70190E099
S1132BE00E944D1A80E32AE0C216D1042CF08F5FB4
S1132BF0FAE0CF1AD108F7CFB70190E00E944D1A3E
S1132C00B701C601C0960E944D1A54C1833631F0F3
S1132C10833779F0833509F056C020C0560132E07D
S1132C20A30EB11CF6018081898301E010E06301E9
S1132C3012C05601F2E0AF0EB11CF601C080D18083
S1132C4096FE03C0612F70E002C06FEF7FEFC601F4
S1132C500E94421A8C01F92DFF7714C0560122E01C
S1132C60A20EB11CF601C080D18096FE03C0612F74
S1132C7070E002C06FEF7FEFC6010E942C1A8C0136
S1132C80F92DF0689F2EF3FD1AC0852D90E00817EA
S1132C901907A8F4B70180E290E00E944D1A5A94F3
S1132CA0F4CFF60197FC859197FE81916F01B701EE
S1132CB090E00E944D1A51105A94015011090115C7
S1132CC0110579F7F7C0843611F0893661F556019C
S1132CD097FE09C024E0A20EB11CF6016081718147
S1132CE0828193810AC0F2E0AF0EB11CF6016081CB
S1132CF07181072E000C880B990BF92DFF769F2EFE
S1132D0097FF09C090958095709561957F4F8F4F7F
S1132D109F4FF0689F2E2AE030E0A3010E94AB1A77
S1132D20C82EC6183FC0092D853721F40F7E2AE02E
S1132D3030E01DC0097F8F3691F018F4883559F0C2
S1132D40C3C0803719F0883711F0BEC0006104FF9A
S1132D5009C0046007C094FE08C0066006C028E0ED
S1132D6030E005C020E130E002C020E132E056014D
S1132D7007FF09C084E0A80EB11CF60160817181CF
S1132D808281938108C0F2E0AF0EB11CF60160812C
S1132D90718180E090E0A3010E94AB1AC82EC6188E
S1132DA00F77902E96FE0BC0092D0E7FC11650F49E
S1132DB094FE0AC092FC08C0092D0E7E05C0DC2CCE
S1132DC0092D03C0DC2C01C0D12E04FF0DC0FE016F
S1132DD0EC0DF11D8081803311F4097E09C002FFDE
S1132DE006C0D394D39404C0802F867809F0D3947A
S1132DF003FD11C000FF06C01C2DD51480F4150D71
S1132E001D190DC0D51458F4B70180E290E00E945A
S1132E104D1AD394F7CFD51410F45D1801C0512C7A
S1132E2004FF10C0B70180E390E00E944D1A02FF36
S1132E3017C001FD03C088E790E002C088E590E078
S1132E40B7010CC0802F867859F001FF02C08BE2D5
S1132E5001C080E207FD8DE2B70190E00E944D1AA7
S1132E60C11638F4B70180E390E00E944D1A115066
S1132E70F7CFCA94F301EC0DF11D8081B70190E006
S1132E800E944D1AC110F5CF15C0F4E0F51560F598
S1132E9084E0581A93FE1FC0011127C02C8523FF1C
S1132EA02AC00EEA10E0392D3071932EF801849176
S1132EB0811124C0552009F4E4CCB70180E290E0EC
S1132EC00E944D1A5A94F6CFF7018681978126C045
S1132ED08FEF9FEF23C0B70180E290E00E944D1A6C
S1132EE05A945110F8CFD8CF512CB701802F90E0CD
S1132EF00E944D1AD3CF02EB10E0D5CF911080522F
S1132F00B70190E00E944D1A0F5F1F4FCFCF23E00F
S1132F10251510F483E0BDCF512CC0CF6096E2E1BB
S1132F200C94F617AA1BBB1B51E107C0AA1FBB1FB9
S1132F30A617B70710F0A61BB70B881F991F5A9541
S1132F40A9F780959095BC01CD010895052E97FBB6
S1132F501EF400940E94BD1757FD07D00E9411185B
S1132F6007FC03D04EF40C94BD1750954095309552
S1132F7021953F4F4F4F5F4F0895909580957095E1
S1132F8061957F4F8F4F9F4F0895EE0FFF1F059060
S1132F90F491E02D0994A29FB001B39FC001A39FB7
S1132FA0700D811D1124911DB29F700D811D11247E
S1132FB0911D08952F923F924F925F926F927F924C
S1132FC08F929F92AF92BF92CF92DF92EF92FF9235
S1132FD00F931F93CF93DF93CDB7DEB7CA1BDB0BE1
S1132FE00FB6F894DEBF0FBECDBF09942A88398886
S1132FF048885F846E847D848C849B84AA84B9848D
S1133000C884DF80EE80FD800C811B81AA81B98198
S1133010CE0FD11D0FB6F894DEBF0FBECDBFED01AC
S11330200895A1E21A2EAA1BBB1BFD010DC0AA1F05
S1133030BB1FEE1FFF1FA217B307E407F50720F01D
S1133040A21BB30BE40BF50B661F771F881F991F98
S11330501A9469F760957095809590959B01AC01E1
S1133060BD01CF0108950F931F93CF93DF93823057
S1133070910510F482E090E0E0918802F0918902D9
S113308020E030E0A0E0B0E0309719F140815181B8
S11330900281138148175907C8F08417950769F40A
S11330A0109731F012960C93129713961C9327C025
S11330B0009388021093890222C02115310519F06A
S11330C04217530718F49A01BD01EF01DF01F8011B
S11330D0DBCF21153105F9F0281B390B24303105DC
S11330E080F48A819B816115710521F0FB01938332
S11330F0828304C09093890280938802FE013296F1
S113310044C0FE01E20FF31F8193919322503109D1
S1133110398328833AC02091860230918702232B79
S113312041F42091020130910301309387022093EE
S1133130860220910001309101012115310541F4ED
S11331402DB73EB74091040150910501241B350B66
S1133150E0918602F0918702E217F307A0F42E1B98
S11331603F0B2817390778F0AC014E5F5F4F2417E7
S1133170350748F04E0F5F1F509387024093860235
S11331808193919302C0E0E0F0E0CF01DF91CF9111
S11331901F910F910895CF93DF93009709F481C095
S11331A0FC01329713821282A0918802B0918902A5
S11331B0109781F420813181820F931F2091860220
S11331C0309187022817390751F5F0938702E0936D
S11331D0860267C0ED0120E030E0CE17DF0740F43F
S11331E04A815B819E0141155105F1F0EA01F5CF59
S11331F0D383C28340815181840F951FC817D90797
S113320059F488819981840F951F02969183808354
S11332108A819B81938382832115310529F4F0935C
S11332208902E09388023DC0E901FB83EA83499166
S11332305991C40FD51FEC17FD0761F4808191816A
S1133240840F951F0296E901998388838281938173
S11332509B838A83E0E0F0E012968D919C91139712
S1133260009719F0FD01DC01F7CF8D919C91119726
S11332709D012E5F3F4F820F931F20918602309154
S113328087022817390769F4309729F410928902C4
S11332901092880202C013821282B0938702A09314
S11332A08602DF91CF910895283008F027E0332774
S11332B0DA01990F311D87FD916000966105710552
S11332C039F432602E5F3D9330E32A95E1F7089597
S11332D09F3F30F080387105610509F03C5F3C5F29
S11332E03D93913008F08068911DDF93CF931F9335
S11332F00F93FF92EF92192F987F9695E92F969549
S11333009695E90FFF27E05FFE4F99273327EE24B8
S1133310FF24A701E70105900894079428F4360FC9
S1133320E71EF81E491F511D660F771F881F991F3E
S11333300694A1F70590079428F4E70EF81E491F98
S1133340561FC11D770F881F991F661F0694A1F78A
S11333500590079428F4F80E491F561FC71FD11D66
S1133360880F991F661F771F0694A1F7059007948D
S113337020F4490F561FC71FD81F990F661F771FC8
S1133380881F0694A9F784911095177041F0D6957B
S1133390C79557954795F794E7941A95C1F7E6EBC7
S11333A0F0E068941590159135916591959105908B
S11333B07FE27395E118F10A430B560BC90BD00950
S11333C0C0F7E10CF11E431F561FC91FD01D7EF428
S11333D0703311F48A95E6CFE894015030F0080F69
S11333E00AF40027021708F4202F2395022F7A33BA
S11333F028F079E37D932A95E9F710C07D932A9507
S113340089F6069497956795379517951794E1185B
S1133410F10A430B560BC90BD00998F023957E9102
S113342073957A3308F070E37C932013B8F77E9198
S113343070617D9330F0839571E37D9370E32A95F9
S1133440E1F71124EF90FF900F911F91CF91DF913D
S1133450992787FD90950895FC010590615070406F
S11334600110D8F7809590958E0F9F1F0895FB014A
S1133470DC010D900020E9F7119701900D920020D6
S1133480E1F70895FC016150704001900110D8F7F4
S1133490809590958E0F9F1F08950F931F93CF9340
S11334A0DF93FB01238121FD03C08FEF9FEF2CC02D
S11334B022FF16C046815781248135814217530764
S11334C044F4A081B1819D012F5F3F4F318320835C
S11334D08C93268137812F5F3F4F3783268314C017
S11334E08B01EC01FB010084F185E02D0995892B0A
S11334F0E1F6D80116968D919C911797019617962F
S11335009C938E931697CE01DF91CF911F910F91CB
S11335100895AEE0B0E0EFE8FAE10C94E8170D8905
S11335201E8986E08C831A8309838FEF9FE79E832D
S11335308D83AE01475E5F4F6F89788DCE01019612
S11335400E941514EF81F885E00FF11F10822E966A
S1133550E4E00C940418FA01AA27283051F1203130
S113356081F1E8946F936E7F6E5F7F4F8F4F9F4F13
S1133570AF4FB1E03ED0B4E03CD0670F781F891F55
S11335809A1FA11D680F791F8A1F911DA11D6A0F23
S1133590711D811D911DA11D20D009F468943F91D6
S11335A02AE0269F11243019305D3193DEF6CF01D5
S11335B00895462F4770405D4193B3E00FD0C9F79B
S11335C0F6CF462F4F70405D4A3318F0495D31FD08
S11335D04052419302D0A9F7EACFB4E0A69597955B
S11335E0879577956795BA95C9F700976105710531
S11335F008959B01AC010A2E06945795479537957B
S11336002795BA95C9F7620F731F841F951FA01DD4
S11336100895A8E1B0E042E050E00C94171B019635
S1133620272F0E94261B0C94251BDC01CB01FC01D7
S1133630F999FECF06C0F2BDE1BDF89A319600B407
S11336400D9241505040B8F70895262FF999FECFB6
S113365092BD81BDF89A019700B4021639F01FBAE1
S113366020BD0FB6F894FA9AF99A0FBE0895F8940B
S1053670FFCF86
S113367200008A022000640006000000000004002A
S1133682FCFF02003C003C000000000001000100BD
S113369250000600000001000300000000000000CA
S11336A202000400060008000A000C000E001000CC
S11336B212001400160018001A001C001E0020003C
S11336C222005A005C0063000D0A2564240D0A00DE
S11336D2252E3366240D0A00244125642400502536
S11336E264240041534D2564240054252E3066245D
S11336F200544D50252E3166240048252E3166246F
S109370200307825580098
S9030000FC
