S016000045787465726E616C4465766963652E737265637B
S11300000C94DA000C94F7000C94F7000C94F700AD
S11300100C94F7000C94F7000C94F7000C94F70080
S11300200C94F7000C9451030C94F7000C94F70013
S11300300C94F7000C943A030C94F7000C94F7001A
S11300400C9423030C94F7000C94F7000C94F70021
S11300500C94F7000C94A7030C94F7000C94F7008D
S11300600C94F7000C94F700B30AD209A00AD20941
S1130070A00AD209820AD209740AD209660AD209EC
S1130080580AD2094B0AD2094B0AD2092E0AD209BC
S11300902E0AD209580AD209580AD209580AD20992
S11300A0580AD209140AD209580AD209580AD2099C
S11300B0580A6E616E00696E660000407A10F35A49
S11300C000A0724E18090010A5D4E80000E8764894
S11300D0170000E40B54020000CA9A3B000000E140
S11300E0F505000080969800000040420F000000D3
S11300F0A08601000000102700000000E8030000B3
S113010000006400000000000A000000000001007C
S1130110000000002C76D888DC674F0823DFC1DF9D
S1130120AE59E1B1B796E5E3E453C63AE6519976A0
S113013096E8E6C28426EB898C9B62ED407C6FFCDA
S1130140EFBC9C9F40F2BAA56FA5F490055A2AF71C
S11301505C936B6CF9676DC11BFCE0E40D47FEF525
S113016020E6B500D0ED902E03009435770500808D
S1130170841E080000204E0A000000C80C333333EC
S1130180330F986E12831141EF8D2114893BE6558C
S113019016CFFEE6DB18D1844B381BF77C1D901D6F
S11301A0A4BBE424203284725E228100C9F124ECD1
S11301B0A1E53D2711241FBECFEFD8E0DEBFCDBFA0
S11301C011E0A0E0B1E0E8ECF4E302C005900D9288
S11301D0AC3AB107D9F722E0ACEAB1E001C01D9214
S11301E0A236B207E1F70E942D0B0C94621A0C940C
S11301F00000CF92DF92EF92FF920F931F93CF9361
S1130200DF9300D000D01F92CDB7DEB7AC01FE0162
S1130210319695E0DF011D929A95E9F72C988FE9C4
S11302209FE00197F1F700C000002C9A249895ED07
S11302309A95F1F700001C9B0FC081E30F900F907B
S11302400F900F900F90DF91CF911F910F91FF901E
S1130250EF90DF90CF900895AFE3B1E01197F1F7FD
S113026000C000001C9902C082E3E8CF8FE391E054
S11302700197F1F700C000007E0196E0E90EF11C41
S113028001E010E087E090E0A0E029EC30E003C05A
S113029021503109A9F11C9BFBCFB0EABA95F1F7C3
S11302A01C9B07C09801082E01C0220F0A94EAF78C
S11302B0A22B29EC30E003C02150310919F11C991B
S11302C0FBCF019710F7A193EE16FF06D9F68FE93D
S11302D09FE00197F1F700C000002C9A249A09814D
S11302E01A8110270127102799818A81980F8B8101
S11302F0980F8C81890F9D81891731F085E39ECFFA
S113030083E39CCF84E39ACF7B016A018B819C8138
S1130310782F692F87FD22C080E090E00E94C111F0
S113032020E030E040E251E40E941911D6016D93BF
S11303307D938D939C931397B80180E090E00E9485
S1130340C11120E030E040E251E40E941911F701AC
S1130350608371838283938380E070CF7F7780E0B2
S113036090E00E94C11120E030E040E251E40E949C
S11303701911DC01CB01B058F60180839183A2836B
S1130380B383DACFFC01808191819C0197FD20C168
S11303904091580250915902421753070CF484C0FB
S11303A080910601909107018436910509F47BC080
S11303B08091BC019091BD01892B21F01092BD0167
S11303C01092BC018091BA019091BB01892B21F05C
S11303D01092BB011092BA018091B0008F7D80937E
S11303E0B00084E690E09093070180930601109298
S11303F0C1011092C00180915002909151029093DA
S1130400BF018093BE01089520915402309155029A
S1130410281739074CF497FF2CC08091060190915E
S113042007018436910529F187E88093B40087E8B1
S113043090E090930701809306018091300290919F
S11304403102892B49F08091BC019091BD01019644
S11304509093BD018093BC0180915202909153020C
S11304609093C1018093C0018091B0008062809319
S1130470B0002091BC013091BD0180913002909177
S113048031028217930778F485E090E09093260276
S11304908093250290931702809316021092BD0157
S11304A01092BC012A9A08954091C0015091C10153
S11304B041155105B1F0415051095093C101409388
S11304C0C001452B81F78091B0008F7D8093B000EF
S11304D080915002909151029093BF018093BE018C
S11304E0089540911602509117024150510943302A
S11304F05105C8F240913202509133024115510521
S113050009F473C0609156027091570286179707D9
S11305100CF463C0609106017091070164367105A3
S113052009F47DC06091B8017091B901621B730B2D
S11305306F3FFFEF7F0724F0623071050CF478C041
S11305401092BB011092BA013093B9012093B80103
S11305502091520230915302232B09F48ACF209127
S11305605602309157028217930764F4181619063D
S11305700CF04ACF20910601309107012436310551
S113058009F442CF8AEF8093B4008AEF90E090930D
S11305900701809306018091300290913102892BEA
S11305A049F08091BC019091BD0101969093BD01E9
S11305B08093BC0180915202909153029093C101A7
S11305C08093C0018091B00080628093B000089550
S11305D022273327281B390BDBCE609154027091FC
S11305E05502681779070CF095CF2091BA01309124
S11305F0BB014217530708F0ABCF85E090E090931E
S113060026028093250284E090E090931702809361
S113061016021092BB011092BA012A9A08953093DF
S1130620B9012093B8012091BA013091BB01E1CF07
S11306302091BA013091BB012F5F3F4F3093BB0132
S11306402093BA01D6CF1F920F920FB60F921124A6
S11306508F939F9380912E0290912F0201969093F5
S11306602F0280932E029F918F910F900FBE0F90B7
S11306701F9018951F920F920FB60F9211248F930B
S11306809F9380912C0290912D02019690932D02BC
S113069080932C029F918F910F900FBE0F901F900B
S11306A018951F920F920FB60F9211242F933F9318
S11306B04F935F936F937F938F939F93AF93BF9366
S11306C0EF9340912A0250912B024F5F5F4F50935A
S11306D02B0240932A02E1E0E09327029A01AFEA59
S11306E0B7E40E94F616281B390B36952795820F1E
S11306F0931F929582958F7089279F70892769E14E
S1130700689F9001699F300D11244217530711F41B
S1130710E09328024D37510538F081E08093290297
S113072010922B0210922A0283E88093B200EF9178
S1130730BF91AF919F918F917F916F915F914F91F5
S11307403F912F910F900FBE0F901F9018951F92FD
S11307500F920FB60F9211242F933F934F935F93F1
S11307606F937F938F939F93AF93BF93EF93FF9375
S113077080E090E00E94400E809178009091790092
S11307809093130280931202FF91EF91BF91AF9166
S11307909F918F917F916F915F914F913F912F9195
S11307A00F900FBE0F901F901895CF92DF92EF928B
S11307B0FF920F931F93CF93DF93CDB7DEB760976C
S11307C00FB6F894DEBF0FBECDBFCE0101967C01FB
S11307D080E1F70111928A95E9F789E791E00E9497
S11307E08410F89400E311E086E7C82E81E0D82E47
S11307F0F801819191918F010E94341A9F938F93F4
S1130800DF92CF92FF92EF920E94B419C7010E9427
S113081084100F900F900F900F900F900F90F1E0B5
S113082006351F0729F7789460960FB6F894DEBF53
S11308300FBECDBFDF91CF911F910F91FF90EF902D
S1130840DF90CF900895CF92DF92EF92FF920F93B3
S11308501F93CF93DF93CDB7DEB760970FB6F894AD
S1130860DEBF0FBECDBF8E010F5F1F4F80E1F801C9
S113087011928A95E9F780915B028F9380915A02D5
S11308808F9384E791E09F938F931F930F930E941C
S1130890B419C8010E948410809159028F938091E9
S11308A058028F9386E7E82E81E0F82EFF92EF92AC
S11308B01F930F930E94B419C8010E948410809161
S11308C057028F93809156028F93FF92EF921F935A
S11308D00F930E94B419C8010E948410809155029C
S11308E08F93809154028F93FF92EF921F930F93F3
S11308F00E94B419C8010E948410809153028F93FE
S1130900809152028F93FF92EF921F930F930E9454
S1130910B419C8010E948410809151028F93809170
S113092050028F93FF92EF921F930F930E94B4197A
S11309300FB6F894DEBF0FBECDBFC8010E9484106D
S113094080914F028F9380914E028F93FF92EF928A
S11309501F930F930E94B419C8010E9484108091C0
S11309604D028F9380914C028F9380914B028F9311
S113097080914A028F939CE7C92E91E0D92EDF9291
S1130980CF921F930F930E94B419C8010E94841040
S1130990809149028F93809148028F9380914702FE
S11309A08F93809146028F93DF92CF921F930F9380
S11309B00E94B419C8010E948410809145028F934B
S11309C0809144028F93FF92EF921F930F930E94A2
S11309D0B419C8010E948410809143028F938091BE
S11309E042028F93FF92EF921F930F930E94B419C8
S11309F00FB6F894DEBF0FBECDBFC8010E948410AD
S1130A00809141028F93809140028F93FF92EF92E5
S1130A101F930F930E94B419C8010E9484108091FF
S1130A203F028F9380913E028F93FF92EF921F9328
S1130A300F930E94B419C8010E94841080913D0252
S1130A408F9380913C028F9380913B028F9380918E
S1130A503A028F93DF92CF921F930F930E94B4199F
S1130A60C8010E948410809139028F9380913802CA
S1130A708F93FF92EF921F930F930E94B419C801B2
S1130A800E948410809137028F93809136028F9355
S1130A90FF92EF921F930F930E94B4190FB6F8942C
S1130AA0DEBF0FBECDBFC8010E9484108091350205
S1130AB08F93809134028F93FF92EF921F930F9341
S1130AC00E94B419C8010E948410809133028F934C
S1130AD0809132028F93FF92EF921F930F930E94A3
S1130AE0B419C8010E948410809131028F938091BF
S1130AF030028F93FF92EF921F930F930E94B419C9
S1130B00C8010E9484100FB6F894DEBF0FBECDBF9B
S1130B1060960FB6F894DEBF0FBECDBFDF91CF91C4
S1130B201F910F91FF90EF90DF90CF9008950F9356
S1130B301F93CF93DF93F894CAE0D1E000E311E070
S1130B4069917991F801819191918F010E943A1AEA
S1130B50F1E0C033DF07A1F77894DF91CF911F91C3
S1130B600F910895F89480E090E00E94341A9093D5
S1130B705B0280935A0282E090E00E94341A9093C0
S1130B8059028093580284E090E00E94341A9093B2
S1130B9057028093560286E090E00E94341A9093A4
S1130BA055028093540288E090E00E94341A909396
S1130BB05302809352028AE090E00E94341A909388
S1130BC05102809350028CE090E00E94341A90937A
S1130BD04F0280934E028EE090E00E94341ABC01D2
S1130BE080E090E00E94C11120E030E04AE754E444
S1130BF00E9419119B01AC0160E070E080E89FE362
S1130C000E94A71060934A0270934B0280934C0297
S1130C1090934D0280E190E00E94341ABC0180E080
S1130C2090E00E94C11120E030E04AE754E40E94C1
S1130C3019119B01AC0160E070E080E89FE30E9421
S1130C40A7106093460270934702809348029093E2
S1130C50490282E190E00E94341A90934502809305
S1130C60440284E190E00E94341A909343028093FA
S1130C70420286E190E00E94341A909341028093EC
S1130C80400288E190E00E94341A90933F028093DE
S1130C903E028AE190E00E94341ABC0180E090E0B8
S1130CA00E94C11120E030E04AE754E40E94191187
S1130CB060933A0270933B0280933C0290933D020E
S1130CC08CE190E00E94341A9093390280933802A8
S1130CD08EE190E00E94341A90933702809336029A
S1130CE080E290E00E94341A90933502809334029B
S1130CF082E290E00E94341A90933302809332028D
S1130D0084E290E00E94341A90933102809330027E
S1130D1078940895AF92BF92CF92DF92EF92FF92B0
S1130D200F931F93CF93DF935B016A017901DC0179
S1130D3011962C9111972F938C918F9384E891E0C5
S1130D409F938F93C2E0D2E0DF93CF930E94B419B4
S1130D50BE0182EC91E00E946219D50111968C913A
S1130D6011978F938C918F938AE891E09F938F933F
S1130D70DF93CF930E94B419BE0182EC91E00E94EC
S1130D806219D60113968C9113978F9312968C91B6
S1130D9012978F9311968C9111978F938C918F93B7
S1130DA08FE891E09F938F93DF93CF930E94B419C0
S1130DB0BE0182EC91E00E946219D70113968C91D6
S1130DC013978F9312968C9112978F9311968C91FF
S1130DD011978F938C918F9386E991E09F938F93D2
S1130DE0DF93CF930E94B419BE0182EC91E00E947C
S1130DF06219D80113968C9113978F9312968C9144
S1130E0012978F9311968C9111978F938C918F9346
S1130E108FE991E09F938F93DF93CF930E94B4194E
S1130E208DB79EB784960FB6F8949EBF0FBE8DBF44
S1130E30BE0182EC91E00E94621982EC91E00E9472
S1130E4093101F928F9386EA91E09F938F93DF9381
S1130E50CF930E94B419BE0182EC91E00E94621902
S1130E6082EC91E00E94841080E4E2ECF1E0DF0186
S1130E701D928A95E9F70F900F900F900F900F90A5
S1130E800F90DF91CF911F910F91FF90EF90DF9022
S1130E90CF90BF90AF90089586E184B989E385B976
S1130EA08FE387B980EC88B98CE08AB983EF8BB97A
S1130EB00E94B20581E00E94280E82E090E00E9428
S1130EC06D1081E090E00E946D1082E090E00E943D
S1130ED0400E7894A89599E288E10FB6F894A89505
S1130EE0809360000FBE90936000299A0895FC01DE
S1130EF04081518157FD95C05093B7014093B6018D
S1130F00483E83E05807BCF089E090E09093B50137
S1130F108093B4019093B3018093B201459B31C097
S1130F208091B201806D88B95A9B76C0808191818D
S1130F3097FF5A9808959A01453651050CF048C018
S1130F40ADECBCEC0E94F616969587959695879520
S1130F50969587959093B5018093B4019C01220FD7
S1130F60331F880F991F880F991F880F991F820FAD
S1130F70931F481B590B5093B3014093B2014599F9
S1130F80CFCF8091B401806E88B98091080190918F
S1130F900901079771F2E0912302F0912402EE0F08
S1130FA0FF1FE05DFE4F808191819C012F7E232BEA
S1130FB019F00E9709F0BDCF5A9937C08091B60148
S1130FC09091B7018436910508F0B4CF5A9A0895E8
S1130FD03695279536952795ABE7B4E10E94F6162A
S1130FE0969587959093B5018093B4019A01ADECE1
S1130FF0BCEC0E94F616AC0156954795569547955C
S1131000569547959A010E94F6169695879596955A
S1131010879596958795A2CF8081918197FDD6CFAC
S1131020089551954195510967CF8091B6019091EA
S1131030B7018436910508F47DCF5A987BCF98B1D7
S113104088B190718072892B41F480911602806E70
S113105088B95A9B05C05A98089588B1807C88B98C
S113106008954E9B14C08091B0019091B1010197F5
S1131070C9F04F9920C08091AE019091AF010196C3
S11310809093AF018093AE010197D9F008958091B8
S1131090B0019091B10101969093B1018093B00198
S11310A0019739F781E0809319021092B1011092EF
S11310B0B0014F9BE0CF8091AE019091AF010197B9
S11310C029F781E0809318021092AF011092AE01CB
S11310D008958091080190910901209119028630A8
S11310E0910531F02223C1F010921E0210921D02CC
S11310F0222389F020911802222369F08630910579
S113110009F440C0079769F081E080931B021092B4
S11311101902109218020895309118023111E4CF87
S11311200895E0912302F0912402EE0FFF1FE05D89
S1131130FE4F808191818C35910509F43DC0833641
S11311409105A1F18A359105D1F183E090E0909366
S11311500901809308019093260280932502F89454
S1131160E0912302F0912402EE0FFF1FE05DFE4F99
S1131170808191810E94341A90935D0280935C0275
S11311807894C5CF8091B0008F7D8093B00087E0C4
S113119090E0909309018093080190932602809334
S11311A025021092220210922102B1CF0E949705CB
S11311B081E080931502ABCF0E942304A8CF0E9444
S11311C0D503A5CF20913402309135022115310584
S11311D071F1FC01808191810A9720F58091AC0125
S11311E09091AD0101969093AD018093AC0141E0E3
S11311F050E05093170240931602FB014081518145
S11312004A305105B8F12817390700F52A9A85E0C4
S113121090E090932602809325021092AD011092E3
S1131220AC010895FB01808191810A9780F080913F
S1131230AC019091AD01892B49F01092AD0110924F
S1131240AC0110921702109216020895089580912D
S1131250AC019091AD0101969093AD018093AC01E6
S113126042E050E0509317024093160228173907C2
S113127068F7CCCF43E050E0509317024093160236
S1131280C2CF80911402882309F1809125029091A4
S11312902602892BD9F480911902811104C080910E
S11312A018028823E9F184E090E090932602809369
S11312B02502809138029091390290932202809302
S11312C021021092190210921802089580911902B5
S11312D0882389F08091B4008A3F41F18AEF80939A
S11312E0B4008091B00080628093B00081E080936C
S11312F01A021092190280911802882389F08091B1
S1131300B400873871F087E88093B4008091B0000E
S113131080628093B00081E080931A0210921802D8
S113132008958091B00085FDF6CFEDCF8091B00097
S113133085FDDCCFD3CF80911902882379F0809189
S11313402302909124028531910528F4019690930B
S113135024028093230210921902089580911802A6
S1131360882369F08091230290912402009729F048
S113137001979093240280932302109218020895F7
S113138080911B02811129C0E0912302F091240273
S1131390EE0FFF1FE05DFE4F0190F081E02DE5327E
S11313A0F105B8F087E090E090930901809308017B
S11313B09093260280932502109224021092230215
S11313C010925D0210925C0210921902109218029F
S11313D00895EC5CFF4F0C94F016F89460915C0255
S11313E070915D02E0912302F0912402EE0FFF1F41
S11313F0E05DFE4F808191810E943A1A78941092A8
S11314005D0210925C02109219021092180287E099
S113141090E09093090180930801909326028093B1
S1131420250210921B020895809119028111BAC0FD
S113143080911802882341F280915C0290915D02B0
S1131440181619060CF0C0CF019790935D02809393
S11314505C021092190210921802089580911902E8
S1131460882361F080915C0290915D02833691053E
S11314702CF4019690935D0280935C028091180293
S1131480882309F4A1CF80915C0290915D0282309F
S11314909105D4F699CF80911902882349F280915D
S11314A05C0290915D02873E23E092070CF655C0E2
S11314B080911902882309F4BBCF80915C0290913A
S11314C05D02833691050CF0B3CF47C080911902B9
S11314D0882309F4ADCF80915C0290915D028C3336
S11314E091050CF0A5CF39C080911902882309F425
S11314F09FCF80915C0290915D02833091050CF046
S113150097CF2BC080911902882359F080915C02F7
S113151090915D0297FF05C0019690935D028093C0
S11315205C0280911802882309F44ECF80915C02FA
S113153090915D028C3F2FEF92070CF445CF84CF3E
S113154080911902882309F473CF80915C029091F1
S11315505D02853091050CF06BCF019690935D028E
S113156080935C0265CF80911902882361F0809199
S11315705C0290915D02883C91052CF40196909355
S11315805D0280935C0280911802882309F41CCFC9
S113159080915C0290915D0289332FEF92070CF4E5
S11315A013CF52CF80915C0290915D0218161906F8
S11315B0A4F620911802222309F406CF45CF2998D6
S11315C081E00E94FF0D81E00E94110E109217022B
S11315D01092160284E090E09093260280932502F4
S11315E080913802909139029093220280932102D3
S11315F081E00895299A8091B0008F7D8093B00096
S11316002A9880E00E94FF0D80E00E94110E84E67B
S113161090E090930701809306011092C10110920B
S1131620C0011092BF011092BE011092BD01109230
S1131630BC0180E090E00E94400E809125029091D0
S11316402602059741F0109226021092250210926C
S113165022021092210280E00895CF93DF93CDB748
S1131660DEB7C655D1090FB6F894DEBF0FBECDBFA5
S113167061961CAE1DAE1EAE1FAE61972D961CAEBC
S11316801DAE1EAE1FAE2D9729961CAE1DAE1EAE0E
S11316901FAE299767961FAE1EAE679765961FAE5D
S11316A01EAE659763961FAE1EAE639719AA1AAA5B
S11316B01BAA1CAA1EAA1DAA00E810E018AF0FABB3
S11316C080E092E00E945E179AAF89AF1BAE1CAE19
S11316D01DAE1EAE21961FAE1EAE219723961FAFE0
S11316E00EAF239780E092E00E945E1725969FAF8D
S11316F08EAF259788E1ECE5F1E0DE015996019083
S11317000D928A95E1F788E1ECE5F1E0DE011196AE
S113171001900D928A95E1F70E944C07E12CF12C7F
S1131720A12CB12CC12CD12C36E0832E912C45E078
S1131730642E712C54E0452E512C3EC0809114022D
S1131740882309F4F1C11899EBC0A114B10409F478
S11317500FC1C114D10409F48DC116BC10928500C7
S11317601092840010922F0210922E0210922D02D9
S113177010922C02A114B10419F081E0A81AB10846
S1131780C114D10419F091E0C91AD1088091210241
S113179090912202009709F482C10197909322024A
S11317A080932102892B09F07AC1109226021092AB
S11317B0250210922902A895809127028823D9F046
S11317C080912502909126028430910509F4FAC192
S11317D08730910509F4E7C18330910509F4DAC132
S11317E0892B39F4449902C0459B03C088B1807C9D
S11317F088B91092270280912802882349F18091A8
S1131800140281115BC10E9431080E946908809111
S11318100801909109018330910509F454C186307F
S1131820910509F4A3C1079709F4ADC180911F0282
S113183090912002892B11F04F99CEC180911A0208
S1131840882321F04E9B02C04F99CBC110922802ED
S113185082E0E816F10450F0BE01675B7F4FCE01D1
S1131860835B9F4F0E94F900E12CF12C80912902A7
S1131870882309F4A0CF4F9936C180910801909133
S113188009018730910509F445C1039709F433C16F
S113189080911F0290912002059750F480911502C7
S11318A0811106C080911D0290911E024E9778F11D
S11318B01092200210921F0210921E0210921D021A
S11318C0109224021092230290920901809208013E
S11318D01092150280911402882309F4EAC05092F0
S11318E02602409225028091380290913902909309
S11318F02202809321028091160290911702892B73
S113190021F070922602609225020E94B205189B73
S113191015CF189B24C080911402882309F42ACF80
S11319200E94FA0A8093140221E0AE01475E5F4FE1
S113193060E070E0CB010E942F0F21E0AE014F5F09
S11319405F4F60E070E0CB010E942F0F21E0AE01F9
S11319504F5C5F4F60E070E0CB010E94C30F809149
S11319601402882309F406CFA114B10409F0F1CEBE
S113197085B192E0892785B986B530902E02212C55
S11319809101280F311DC9016091440270914502F3
S11319900E94BD1680E090E00E94C11120914A028D
S11319A030914B0240914C0250914D020E947812AA
S11319B00E94921167967FAF6EAF67974091840043
S11319C05091850020912C0230912D02AFEFBFEF92
S11319D00E94F616640F751F811D911D209142020D
S11319E03091430240E050E00E94D116CA01B9018F
S11319F00E94C3112091460230914702409148024F
S1131A00509149020E9478120E94921165967FAF0C
S1131A106EAF659763961FAE1EAE63976091120218
S1131A207091130280E090E00E94C11120E030E048
S1131A304AE75FE30E94781229966CAF7DAF8EAFC0
S1131A409FAF29978E01075B1F4F9E01235B3F4F7A
S1131A50AE014B5B5F4FBE016D5A7F4FCE018B5A77
S1131A609F4F0E948A063FEFE31AF30AC114D10480
S1131A7009F073CEBE016D5A7F4FCE018B5A9F4F32
S1131A800E94E2088091BE019091BF01009709F481
S1131A90B0C001979093BF018093BE015ECE809148
S1131AA0250290912602059709F083CE0E941F0813
S1131AB080CE10922602109225021DCF81E090E084
S1131AC00E94400EA0CE20911C02222309F449C09A
S1131AD0109226021092250231E0232720931C0243
S1131AE00E94C009A3CE809108019091090187301A
S1131AF0910509F0CACE80911F0290912002209195
S1131B001D0230911E022F5F3F4F30931E0220931F
S1131B101D02C2CE80911F029091200201969093E3
S1131B20200280931F02EBCF0E94DF0A80931402ED
S1131B3010922902C0904E02D0904F0267961FAEB9
S1131B401EAE679765961FAE1EAE659763961FAE71
S1131B501EAE639782E0E82EF12C9EE1A92EB12CF3
S1131B602BCE9093260280932502B6CF0E94410982
S1131B7080910801909109018730910521F0039724
S1131B8009F054CEADCF0E949B0980910801909139
S1131B900901F5CF8CE592E00E9477078091250238
S1131BA0909126021DCE8091230290912402880FE9
S1131BB0991F805D9E4F0E94770780912502909126
S1131BC026020ACECE018F5A9F4F0E94770780913A
S1131BD0250290912602FCCD1092200210921F0241
S1131BE02DCE8091B0008F7D8093B00010921A02A8
S1131BF02DCECE018F5A9F4F0E94C201AECD8111CE
S1131C0007C080916E008E7F80936E0015BC08958E
S1131C1087E085BD80916E00816080936E0016BC64
S1131C200895811108C080916F008E7F80936F00AA
S1131C3010928100089587E08093810080916F0065
S1131C40816080936F001092850010928400089543
S1131C501092B200811108C01092B10080917000FE
S1131C608E7F80937000089583E08093B00087E0B6
S1131C708093B1008091700081608093700008951A
S1131C80009779F0019731F480917A008064809311
S1131C907A0008958FE880937A0087E480937C002B
S1131CA0089580917A008F7B80937A0008958F92B3
S1131CB09F92AF92BF92CF92DF92EF92FF920F93D7
S1131CC01F93CF93DF93FB0180809180A280B38028
S1131CD0EC018C011E5FC12CD12C760115C0B90119
S1131CE0330F880B990B0E94C3119B01AC010E9416
S1131CF078129B01AC01C701B6010E94A8106B01C8
S1131D007C010C171D0791F0699179918991999142
S1131D10A50194010E94A7100E948B119B0177FFDB
S1131D20DECF22273327261B370BD9CF20E030E024
S1131D3040E05CE30E9478120E94EB129B01AC012C
S1131D400E94A810DF91CF911F910F91FF90EF9007
S1131D50DF90CF90BF90AF909F908F9008954F9257
S1131D605F926F927F928F929F92AF92BF92CF9227
S1131D70DF92EF92FF920F931F93CF93DF934B0168
S1131D805C01EA01211152C00E811F8148805980F3
S1131D906A807B8028853985CC80DD807601EE0CD5
S1131DA0FF1CEE0CFF1C8FEFC81AD80AE20EF31EBC
S1131DB0F7012081318142815381C501B4010E9420
S1131DC0A710A30192010E94A810688379838A83D3
S1131DD09B83F70180829182A282B382C601B801FB
S1131DE00E94BD169D838C83B80180E090E00E9420
S1131DF0C1119B01AC01688179818A819B810E9418
S1131E001911688379838A839B83DF91CF911F9112
S1131E100F91FF90EF90DF90CF90BF90AF909F9085
S1131E208F907F906F905F904F90089518821982E1
S1131E301A821B820E811F81C801880F991F880F87
S1131E40991F0E945E17888799879C01CC24C394AC
S1131E50D12CE12CF12C412C512C3201A7CF2F9203
S1131E603F924F925F926F927F928F929F92AF9226
S1131E70BF92CF92DF92EF92FF920F931F93CF9373
S1131E80DF936B017C01EA01B889A989FA89EB899E
S1131E90222309F46FC08D011F01412C512C320102
S1131EA0212F302F432D522D6B2F7A2F8F2F9E2FC2
S1131EB00E94A8109B01AC01612F702F832D922DDD
S1131EC00E9419114B015C016C877D878E879F8767
S1131ED0A3019201C701B6010E94A710A5019401B4
S1131EE00E947812A30192010E94A8106B017C0148
S1131EF0688379838A839B839B01AC01C301B2010C
S1131F000E94A7109F772C893D894E895F890E9482
S1131F1078122B013C01A501940160E070E080E897
S1131F209FE30E94A710212F302F432D522D0E9492
S1131F3078129B01AC01C301B2010E94A8106C830A
S1131F407D838E839F83C886D986EA86FB86DF914C
S1131F50CF911F910F91FF90EF90DF90CF90BF90A2
S1131F60AF909F908F907F906F905F904F903F9035
S1131F702F9008951C810D813E802F8048845984C0
S1131F806A847B848DCF4F925F926F927F92AF92DF
S1131F90BF92CF92DF92EF92FF920F931F93CF9352
S1131FA0DF937B018C01EA0121115FC08C819D814B
S1131FB02E813F8182179307D0F1488059806A802F
S1131FC07B8020E030E0A901C301B2010E9414111A
S1131FD0882309F467C0AA84BB84CC84DD84970178
S1131FE0A801B501C6010E94A7100E948B119B0194
S1131FF077FD6EC0B901330F880B990B0E94C31192
S1132000A30192010E947312181624F5B501C601AA
S1132010DF91CF911F910F91FF90EF90DF90CF90C0
S1132020BF90AF907F906F905F904F900895E88538
S1132030F9859C012F5F3F4F3D832C83880F991FA7
S1132040880F991FE80FF91FCB01D8018083918372
S1132050A283B383AE01465F5F4F20E0B701C8019E
S11320600E94AF0E57016801D1CF1D821C821882D5
S113207019821A821B828E819F81880F991F880F73
S1132080991F0E945E1799878887AE01465F5F4F4C
S113209021E0B701C8010E94AF0EA12CB12CC12CC4
S11320A0D12CB4CF20E06E018AE0C80ED11CA60169
S11320B0B701C8010E94AF0EB601888599850E94B8
S11320C0570E2B013C01688379838A839B8383CFDA
S11320D022273327261B370B8DCF009791F00197CA
S11320E021F488E08093C10008951092C10086E035
S11320F08093C20083E090E09093C5008093C40075
S113210008951092C1000895FC012081222351F00A
S113211031969091C00095FFFCCF2093C600219189
S11321202111F7CF0895FC0180E047E091919923B4
S113213069F0892728E030E004C0880F2150310974
S1132140A9F387FFFACF880F8427F8CF0895505852
S1132150BB27AA270E94BF100C9439120E942B128D
S113216038F00E94321220F039F49F3F19F426F41B
S11321700C9428120EF4E095E7FB0C942212E92F3C
S11321800E944A1258F3BA17620773078407950727
S113219020F079F4A6F50C946C120EF4E0950B2E55
S11321A0BA2FA02D0B01B90190010C01CA01A001A5
S11321B01124FF27591B99F0593F50F4503E68F100
S11321C01A16F040A22F232F342F4427585FF3CF41
S11321D0469537952795A795F0405395C9F77EF412
S11321E01F16BA0B620B730B840BBAF09150A1F05B
S11321F0FF0FBB1F661F771F881FC2F70EC0BA0FE1
S1132200621F731F841F48F4879577956795B79568
S1132210F7959E3F08F0B0CF9395880F08F0992763
S1132220EE0F9795879508950E94FE1108F481E0BA
S113223008950E942D110C9439120E94321258F004
S11322400E942B1240F029F45F3F29F00C942212D3
S113225051110C946D120C9428120E944A1268F3C6
S11322609923B1F3552391F3951B550BBB27AA274B
S113227062177307840738F09F5F5F4F220F331F85
S1132280441FAA1FA9F335D00E2E3AF0E0E832D04D
S113229091505040E695001CCAF72BD0FE2F29D050
S11322A0660F771F881FBB1F261737074807AB0722
S11322B0B0E809F0BB0B802DBF01FF2793585F4F97
S11322C03AF09E3F510578F00C9422120C946D1252
S11322D05F3FE4F3983ED4F3869577956795B79579
S11322E0F7959F5FC9F7880F911D9695879597F984
S11322F00895E1E0660F771F881FBB1F62177307FD
S11323008407BA0720F0621B730B840BBA0BEE1F11
S113231088F7E09508950E9492116894B1110C9485
S11323206D1208950E94521288F09F5798F0B92FA9
S11323309927B751B0F0E1F0660F771F881F991FF6
S11323401AF0BA95C9F714C0B13091F00E946C121A
S1132350B1E008950C946C12672F782F8827B85F2A
S113236039F0B93FCCF3869577956795B395D9F74E
S11323703EF490958095709561957F4F8F4F9F4F58
S11323800895E89409C097FB3EF490958095709564
S113239061957F4F8F4F9F4F9923A9F0F92F96E9AD
S11323A0BB279395F695879577956795B795F11122
S11323B0F8CFFAF4BB0F11F460FF1BC06F5F7F4FBF
S11323C08F4F9F4F16C0882311F096E911C07723D1
S11323D021F09EE8872F762F05C0662371F096E8DA
S11323E0862F70E060E02AF09A95660F771F881FA9
S11323F0DAF7880F9695879597F90895990F00084D
S1132400550FAA0BE0E8FEEF16161706E807F907C2
S1132410C0F012161306E407F50798F0621B730B5D
S1132420840B950B39F40A2661F0232B242B252BDE
S113243021F408950A2609F4A140A6958FEF811D81
S1132440811D089597F99F6780E870E060E0089522
S11324509FEF80EC089500240A94161617061806B8
S11324600906089500240A94121613061406050694
S11324700895092E0394000C11F4882352F0BB0F25
S113248040F4BF2B11F460FF04C06F5F7F4F8F4F88
S11324909F4F089557FD9058440F551F59F05F3FC3
S11324A071F04795880F97FB991F61F09F3F79F072
S11324B087950895121613061406551FF2CF4695F4
S11324C0F1DF08C0161617061806991FF1CF869576
S11324D07105610508940895E894BB27662777275A
S11324E0CB0197F908950E94FE1108F48FEF089527
S11324F00E948B120C9439120E942B1238F00E9405
S1132500321220F0952311F00C9422120C9428120C
S113251011240C946D120E944A1270F3959FC1F31A
S1132520950F50E0551F629FF001729FBB27F00D7D
S1132530B11D639FAA27F00DB11DAA1F649F6627D2
S1132540B00DA11D661F829F2227B00DA11D621F21
S1132550739FB00DA11D621F839FA00D611D221FDB
S1132560749F3327A00D611D231F849F600D211DBF
S1132570822F762F6A2F11249F5750409AF0F1F042
S113258088234AF0EE0FFF1FBB1F661F771F881FAB
S113259091505040A9F79E3F510580F00C942212AF
S11325A00C946D125F3FE4F3983ED4F386957795CF
S11325B06795B795F795E7959F5FC1F7FE2B880F51
S11325C0911D9695879597F9089519F416F40C942E
S11325D028120C942B130E945212B8F39923C9F3B6
S11325E0B6F39F57550B87FF0E9439130024A0E6CA
S11325F040EA900180585695979528F4805C660FC0
S1132600771F881F20F026173707480730F4621B0E
S1132610730B840B202931294A2BA6951794079410
S1132620202531254A2758F7660F771F881F20F089
S113263026173707480730F4620B730B840B200D01
S1132640311D411DA09581F7B901842F9158880F40
S11326509695879508959F3F31F0915020F4879582
S113266077956795B795880F911D9695879597F9F6
S1132670089591505040660F771F881FD2F7089530
S1132680A0E1B0E0E6E4F3E10C9405177C011B0142
S11326906A01FC0117821682838181FF44C39E0173
S11326A02F5F3F4F3901F7019381F10193FD85912C
S11326B093FF81911F01882309F431C3853239F4D2
S11326C093FD859193FF81911F01853239F4B70100
S11326D090E00E94781956016501E5CF10E0512C75
S11326E0912CFFE1F915D8F08B3279F038F480326F
S11326F079F08332A1F4F92DF0612EC08D3261F0AE
S1132700803369F4292D21602DC0392D3260932E38
S1132710892D8460982E2AC0E92DE86015C097FCA5
S11327202DC020ED280F2A3088F496FE06C03AE02A
S1132730139F200D1124122F19C08AE0589E200DDA
S11327401124522EE92DE0629E2E10C08E3231F4F7
S113275096FCE5C2F92DF0649F2E08C08C3621F456
S1132760292D2068922E02C0883641F4F10193FD90
S1132770859193FF81911F018111B3CF9BEB980F3A
S1132780933020F4992D9061805E07C09BE9980FE7
S1132790933008F066C1992D9F7E96FF16E09F73D3
S11327A0992E853619F49064992E08C0863621F442
S11327B0392F3068932E02C01111115097FE07C0B3
S11327C01C3350F444244394410E27E00BC01830CA
S11327D038F027E017E005C027E09CE3492E02C04B
S11327E0212F412C560184E0A80EB11CF601608112
S11327F0718182819381042DA3010E947F186C0151
S1132800F981FC87F0FF02C0F3FF06C091FC06C00B
S113281092FE06C000E205C00DE203C00BE201C057
S113282000E08C858C7019F001115AC29BC297FE8E
S113283010C04C0CFC85F4FF04C08A81813309F478
S11328404A94141474F528E0241578F588E0482E89
S11328502CC096FC2AC0812F90E08C159D059CF01D
S11328603CEFC3163FEFD30674F0892D8068982E91
S11328700AC0E2E0F0E0EC0FFD1FE10FF11D8081E2
S1132880803319F411501111F4CF97FE0EC0442473
S11328904394410E812F90E0C816D9062CF41C19DC
S11328A004C04424439401C010E097FE06C01C14E5
S11328B01D0434F4C601019605C085E090E002C011
S11328C081E090E001110196112331F0212F30E0D5
S11328D02F5F3F4F820F931F252D30E08217930700
S11328E014F4581A01C0512C892D897049F45520CB
S11328F039F0B70180E290E00E9478195A94F7CF3A
S1132900002329F0B701802F90E00E94781993FCEE
S113291009C0552039F0B70180E390E00E9478198E
S11329205A94F7CF97FE4CC04601D7FE02C0812CC3
S1132930912CC60188199909F301E80FF91FFE8744
S1132940ED87960124193109388B2F87012F10E068
S11329501195019511093FEF8316930629F4B701E8
S11329608EE290E00E947819C814D9044CF08F8547
S113297098898815990524F4ED85FE85818101C027
S113298080E3F1E08F1A91082D853E852F5F3F4F3C
S11329903E872D87801691062CF0B70190E00E94A7
S11329A07819D9CFC814D90441F49A81963320F404
S11329B0953319F43C8534FF81E3B70190E04EC0B0
S11329C08A81813319F09C859F7E9C87B70190E0B2
S11329D00E947819111105C094FC18C085E690E096
S11329E017C0B7018EE290E00E9478191E5F82E062
S11329F001E0080FF301E80FF11D8081B70190E0B9
S1132A000E947819802F0113F3CFE6CF85E490E07C
S1132A10B7010E947819D7FC06C0C114D10441F44F
S1132A20EC85E4FF05C0D194C194D1088DE201C0C6
S1132A308BE2B70190E00E94781980E32AE0C21685
S1132A40D1042CF08F5FFAE0CF1AD108F7CFB70189
S1132A5090E00E947819B701C601C0960E947819C7
S1132A6054C1833631F0833779F0833509F056C089
S1132A7020C0560132E0A30EB11CF6018081898387
S1132A8001E010E0630112C05601F2E0AF0EB11C88
S1132A90F601C080D18096FE03C0612F70E002C0B1
S1132AA06FEF7FEFC6010E946D198C01F92DFF773E
S1132AB014C0560122E0A20EB11CF601C080D180E0
S1132AC096FE03C0612F70E002C06FEF7FEFC60176
S1132AD00E9457198C01F92DF0689F2EF3FD1AC03E
S1132AE0852D90E008171907A8F4B70180E290E05B
S1132AF00E9478195A94F4CFF60197FC859197FEB9
S1132B0081916F01B70190E00E94781951105A9495
S1132B10015011090115110579F7F7C0843611F038
S1132B20893661F5560197FE09C024E0A20EB11C56
S1132B30F60160817181828193810AC0F2E0AF0E57
S1132B40B11CF60160817181072E000C880B990B72
S1132B50F92DFF769F2E97FF09C09095809570956B
S1132B6061957F4F8F4F9F4FF0689F2E2AE030E092
S1132B70A3010E94D619C82EC6183FC0092D853757
S1132B8021F40F7E2AE030E01DC0097F8F3691F0DA
S1132B9018F4883559F0C3C0803719F0883711F01C
S1132BA0BEC0006104FF09C0046007C094FE08C0F1
S1132BB0066006C028E030E005C020E130E002C035
S1132BC020E132E0560107FF09C084E0A80EB11CE1
S1132BD0F601608171818281938108C0F2E0AF0EB9
S1132BE0B11CF6016081718180E090E0A3010E9434
S1132BF0D619C82EC6180F77902E96FE0BC0092D35
S1132C000E7FC11650F494FE0AC092FC08C0092D30
S1132C100E7E05C0DC2C092D03C0DC2C01C0D12E96
S1132C2004FF0DC0FE01EC0DF11D8081803311F411
S1132C30097E09C002FF06C0D394D39404C0802F38
S1132C40867809F0D39403FD11C000FF06C01C2D43
S1132C50D51480F4150D1D190DC0D51458F4B70101
S1132C6080E290E00E947819D394F7CFD51410F441
S1132C705D1801C0512C04FF10C0B70180E390E03F
S1132C800E94781902FF17C001FD03C088E790E095
S1132C9002C088E590E0B7010CC0802F867859F017
S1132CA001FF02C08BE201C080E207FD8DE2B701A3
S1132CB090E00E947819C11638F4B70180E390E0DF
S1132CC00E9478191150F7CFCA94F301EC0DF11D4D
S1132CD08081B70190E00E947819C110F5CF15C02A
S1132CE0F4E0F51560F584E0581A93FE1FC0011155
S1132CF027C02C8523FF2AC002EB10E0392D307148
S1132D00932EF8018491811124C0552009F4E4CC58
S1132D10B70180E290E00E9478195A94F6CFF70147
S1132D208681978126C08FEF9FEF23C0B70180E291
S1132D3090E00E9478195A945110F8CFD8CF512CB2
S1132D40B701802F90E00E947819D3CF06EB10E0F2
S1132D50D5CF91108052B70190E00E9478190F5F8F
S1132D601F4FCFCF23E0251510F483E0BDCF512CA6
S1132D70C0CF6096E2E10C942117AA1BBB1B51E162
S1132D8007C0AA1FBB1FA617B70710F0A61BB70BD7
S1132D90881F991F5A95A9F780959095BC01CD017C
S1132DA00895052E97FB1EF400940E94E81657FD23
S1132DB007D00E943C1707FC03D04EF40C94E8168D
S1132DC050954095309521953F4F4F4F5F4F089553
S1132DD090958095709561957F4F8F4F9F4F089583
S1132DE0EE0FFF1F0590F491E02D0994A29FB0010E
S1132DF0B39FC001A39F700D811D1124911DB29F2B
S1132E00700D811D1124911D08952F923F924F92B0
S1132E105F926F927F928F929F92AF92BF92CF9266
S1132E20DF92EF92FF920F931F93CF93DF93CDB76F
S1132E30DEB7CA1BDB0B0FB6F894DEBF0FBECDBFE7
S1132E4009942A88398848885F846E847D848C84B8
S1132E509B84AA84B984C884DF80EE80FD800C81C1
S1132E601B81AA81B981CE0FD11D0FB6F894DEBFA4
S1132E700FBECDBFED010895A1E21A2EAA1BBB1B04
S1132E80FD010DC0AA1FBB1FEE1FFF1FA217B30732
S1132E90E407F50720F0A21BB30BE40BF50B661F48
S1132EA0771F881F991F1A9469F76095709580950C
S1132EB090959B01AC01BD01CF0108950F931F9321
S1132EC0CF93DF938230910510F482E090E0E0919B
S1132ED06002F091610220E030E0A0E0B0E03097C1
S1132EE019F1408151810281138148175907C8F0B3
S1132EF08417950769F4109731F012960C93129782
S1132F0013961C9327C0009360021093610222C0A1
S1132F102115310519F04217530718F49A01BD0120
S1132F20EF01DF01F801DBCF21153105F9F0281B92
S1132F30390B2430310580F48A819B816115710538
S1132F4021F0FB019383828304C0909361028093F8
S1132F506002FE01329644C0FE01E20FF31F81932A
S1132F60919322503109398328833AC020915E021B
S1132F7030915F02232B41F420910201309103012F
S1132F8030935F0220935E02209100013091010191
S1132F902115310541F42DB73EB7409104015091FC
S1132FA00501241B350BE0915E02F0915F02E217EC
S1132FB0F307A0F42E1B3F0B2817390778F0AC0158
S1132FC04E5F5F4F2417350748F04E0F5F1F509335
S1132FD05F0240935E028193919302C0E0E0F0E0CF
S1132FE0CF01DF91CF911F910F910895CF93DF937C
S1132FF0009709F481C0FC01329713821282A091D8
S11330006002B0916102109781F420813181820FB6
S1133010931F20915E0230915F022817390751F502
S1133020F0935F02E0935E0267C0ED0120E030E0C0
S1133030CE17DF0740F44A815B819E01411551059B
S1133040F1F0EA01F5CFD383C28340815181840F2B
S1133050951FC817D90759F488819981840F951F42
S11330600296918380838A819B8193838283211535
S1133070310529F4F0936102E09360023DC0E90157
S1133080FB83EA8349915991C40FD51FEC17FD07BF
S113309061F480819181840F951F0296E9019983DF
S11330A08883828193819B838A83E0E0F0E0129697
S11330B08D919C911397009719F0FD01DC01F7CFD6
S11330C08D919C9111979D012E5F3F4F820F931F0D
S11330D020915E0230915F022817390769F4309716
S11330E029F4109261021092600202C013821282CB
S11330F0B0935F02A0935E02DF91CF9108952830D0
S113310008F027E03327DA01990F311D87FD91601C
S113311000966105710539F432602E5F3D9330E30A
S11331202A95E1F708959F3F30F0803871056105D5
S113313009F03C5F3C5F3D93913008F08068911D3D
S1133140DF93CF931F930F93FF92EF92192F987FE2
S11331509695E92F96959695E90FFF27EC5EFE4F1D
S113316099273327EE24FF24A701E701059008944B
S1133170079428F4360FE71EF81E491F511D660FE9
S1133180771F881F991F0694A1F70590079428F4C8
S1133190E70EF81E491F561FC11D770F881F991F80
S11331A0661F0694A1F70590079428F4F80E491FAA
S11331B0561FC71FD11D880F991F661F771F0694BE
S11331C0A1F70590079420F4490F561FC71FD81F75
S11331D0990F661F771F881F0694A9F7849110958D
S11331E0177041F0D695C79557954795F794E7948E
S11331F01A95C1F7EAEBF0E06894159015913591B2
S11332006591959105907FE27395E118F10A430B5E
S1133210560BC90BD009C0F7E10CF11E431F561F12
S1133220C91FD01D7EF4703311F48A95E6CFE8945B
S1133230015030F0080F0AF40027021708F4202F79
S11332402395022F7A3328F079E37D932A95E9F7C1
S113325010C07D932A9589F60694979567953795BE
S113326017951794E118F10A430B560BC90BD009B3
S113327098F023957E9173957A3308F070E37C93EC
S11332802013B8F77E9170617D9330F0839571E3DC
S11332907D9370E32A95E1F71124EF90FF900F914D
S11332A01F91CF91DF91992787FD90950895FC0197
S11332B00590615070400110D8F7809590958E0F5D
S11332C09F1F0895FB01DC010D900020E9F7119781
S11332D001900D920020E1F70895FC0161507040C7
S11332E001900110D8F7809590958E0F9F1F089537
S11332F00F931F93CF93DF93FB01238121FD03C021
S11333008FEF9FEF2CC022FF16C046815781248186
S113331035814217530744F4A081B1819D012F5F89
S11333203F4F318320838C93268137812F5F3F4F1A
S11333303783268314C08B01EC01FB010084F185E3
S1133340E02D0995892BE1F6D80116968D919C9173
S11333501797019617969C938E931697CE01DF913B
S1133360CF911F910F910895AEE0B0E0EAEBF9E13F
S11333700C9413170D891E8986E08C831A830983A4
S11333808FEF9FE79E838D83AE01475E5F4F6F890A
S1133390788DCE0101960E944013EF81F885E00FED
S11333A0F11F10822E96E4E00C942F17FA01AA273D
S11333B0283051F1203181F1E8946F936E7F6E5F74
S11333C07F4F8F4F9F4FAF4FB1E03ED0B4E03CD022
S11333D0670F781F891F9A1FA11D680F791F8A1F05
S11333E0911DA11D6A0F711D811D911DA11D20D06C
S11333F009F468943F912AE0269F11243019305D26
S11334003193DEF6CF010895462F4770405D419316
S1133410B3E00FD0C9F7F6CF462F4F70405D4A3363
S113342018F0495D31FD4052419302D0A9F7EACF2B
S1133430B4E0A6959795879577956795BA95C9F75A
S113344000976105710508959B01AC010A2E06944D
S11334505795479537952795BA95C9F7620F731F06
S1133460841F951FA01D0895A8E1B0E042E050E03C
S11334700C94421A0196272F0E94511A0C94501A48
S1133480DC01CB01FC01F999FECF06C0F2BDE1BD20
S1133490F89A319600B40D9241505040B8F708950F
S11334A0262FF999FECF92BD81BDF89A019700B4F9
S11334B0021639F01FBA20BD0FB6F894FA9AF99A99
S10B34C00FBE0895F894FFCF3C
S11334C800006202200064000600000000000500FD
S11334D8FBFF02003C0003000000000001000100A3
S11334E8500050000600000001001E001E0063008A
S11334F8000002000400060008000A000C000E0088
S1133508100012001400160018001A001C001E00F7
S11335182000220024005A005C0063000000000020
S11335280000000000000000000000000000A042AD
S1133538A69BC43B0D0A2564240D0A00252E336678
S1133548240D0A00244125642400502564240054D1
S1133558252E30662400544D50252E31662400480B
S10F3568252E3166240030782558000020
S9030000FC
